:020000040800F2
:10000000B81A00201D320008D9200008DB200008A3
:10001000DF200008E3200008E720000800000000BF
:10002000000000000000000000000000EB200008BD
:10003000ED20000800000000EF2000083532000825
:1000400037320008373200083732000837320008EC
:1000500037320008373200083732000837320008DC
:1000600037320008373200083732000837320008CC
:1000700037320008373200083732000837320008BC
:100080003732000837320008B92300083732000839
:1000900003620008373200083732000837320008A0
:1000A00037320008E96200083732000837320008AA
:1000B000CB210008312200084B220008373200080B
:1000C000373200083732000837320008373200086C
:1000D00037320008F12000082D21000869210008AE
:1000E000373200083732000837320008373200084C
:1000F000672300083732000837320008373200081B
:1001000037320008373200089122000837320008E1
:1001100077210008A1210008372300085123000897
:10012000373200083732000837320008373200080B
:100130000000000037320008373200086F62000804
:1001400037320008DFF80CD009F0BAFE004800474B
:1001500043060008B81A002010B50121084608F02F
:1001600011F910BDFE480078002804DDFC48007835
:10017000401EFB490870704710B5FA4803F0EFFDC8
:10018000F94804F055FE0020F84948700120087035
:100190000020F7490870C87048708870F549888059
:1001A0007920C8708220F14908818221EF4841817D
:1001B00081810020ED4908830021EC48418381833F
:1001C000C183018441848184C1840020EA4908708C
:1001D000EA490870EA4908601420E14908700020E3
:1001E000E8490870E84908800120E8494872002081
:1001F000E7490870E749C8704873087188721E2083
:1002000008834FF4B47048830020487188710877E0
:10021000C8710872487788778020C877002081F8F5
:10022000200010BD10B504F0EEFA04F027FB10BD5D
:10023000704710B541F61F414FF4967003F0B8FDBA
:1002400003F0E5FD41F61F41642003F002FE03F0D8
:1002500032FE47210A2003F049FE03F077FE002119
:1002600040F2CF2003F08CFE41F61F414FF47A702C
:1002700003F006FF03F034FF41F61F4141F28830DE
:1002800003F048FF03F076FF41F61F414FF49670EC
:1002900003F094FF03F0C2FF41F61F414FF4967044
:1002A00003F0D6FF04F004F810BD10B504F096F981
:1002B0000821B94807F0D3FD04F014F84FF4807119
:1002C000B64807F0CCFD04F079F810BD10B5042154
:1002D000B24807F0C4FD4FF40061B14807F0BDFD1E
:1002E00010BD08B50121042008F04CF801210820B8
:1002F00008F048F80121102008F044F801210846D0
:1003000008F040F80121202008F03CF8012007F017
:1003100070FE002007F0A3FF002006F0ACFA0121D8
:10032000A04807F0BEFD0420ADF8000003208DF8C2
:10033000020018208DF803006946984807F0E0FC99
:100340000820ADF8000004208DF8030069469348AA
:1003500007F0D6FC4FF48050ADF8000003208DF874
:10036000020018208DF8030069468C4807F0C8FC8D
:100370004FF40060ADF8000004208DF803006946DA
:10038000864807F0BDFC4FF40050ADF80000032094
:100390008DF8020018208DF8030069467E4807F0AA
:1003A000AFFC4FF48050ADF8000004208DF803003E
:1003B0006946794807F0A4FC1320ADF8000000203E
:1003C0008DF803006946754807F09AFC0320ADF8E4
:1003D000000000208DF8030069466F4807F090FC8C
:1003E0000320ADF8000000208DF8030069466C483A
:1003F00007F086FC4FF48070ADF8000010208DF8F7
:10040000030003208DF802006946644807F078FC79
:100410004FF48070ADF8000018208DF80300032021
:100420008DF8020069465C4807F06AFC4FF4805082
:10043000ADF8000010208DF8030003208DF80200B5
:100440006946574807F05CFC0420ADF80000102016
:100450008DF8030003208DF802006946524807F02A
:100460004FFC4FF40060ADF8000010208DF8030041
:1004700003208DF802006946494807F041FC4FF41B
:100480008060ADF8000010208DF8030003208DF887
:1004900002006946404807F033FC4FF40060ADF8B5
:1004A000000010208DF8030003208DF8020069463B
:1004B000394807F025FC4FF40070ADF80000042027
:1004C0008DF803006946364807F01AFC4FF44040A7
:1004D000ADF8000010208DF8030003208DF8020015
:1004E00069462D4807F00CFC4020ADF800001020B4
:1004F0008DF8030003208DF802006946284807F0B4
:10050000FFFB8020ADF8000010208DF803000320D1
:100510008DF802006946214807F0F2FB8020ADF813
:10052000000004208DF8030069461B4807F0E8FB33
:100530004FF40070ADF8000048208DF803006946C4
:10054000154807F0DDFB2020ADF8000010208DF8E5
:10055000030003208DF802006946104826E00000E1
:100560000400002018020020A81100204A110020D9
:100570009C00002004010020A400002005000020B1
:1005800084000020780000207A000020221500203E
:100590000700002084110020000C014000080140E9
:1005A00000100140000230000014014007F0A8FBD9
:1005B0004FF40070ADF8000010208DF80300032008
:1005C0008DF8020069465C4807F09AFB0820ADF8F8
:1005D000000048208DF803006946584807F090FB5A
:1005E0007820ADF8000010208DF8030003208DF86E
:1005F00002006946514807F083FB08BD10B550481A
:100600004078042804D100F0E4FC4D4803F077FB67
:100610004C48007820B14C48007808B902F0E7FB5C
:100620004A4A4B49484804F071FB47480079012881
:1006300004D100204449087102F0E8FA02F02AFDD2
:1006400010BDFFF799FD04F020FA4FF4FA6004F0B2
:1006500054FAFFF746FEFFF7E5FDFFF726FEFFF72A
:100660007BFD01F0F5FE01F004FFFFF72FFEFFF721
:10067000E0FD002003F0CAFC8021364807F0EDFBC6
:10068000022005F056FD05F085FA00203249087079
:1006900010E03148007831492F4A127821F81200D1
:1006A00092202F492C4A127888542B480078401CFD
:1006B00029490870284800782828EADB9120284931
:1006C000087281F82800A2204876402081F8250091
:1006D00081F822000120204908702BE005F05AFA29
:1006E00004F08EFC00F0CCFD04F0C6FA01F00AF82C
:1006F00000F013FD44F6206002F031FE502002F0BD
:10070000D5F81E226421052000F096FF15480078D8
:1007100001280FD101F078FB102000F096FAFFF7C6
:1007200021FD00F04EFF00F0BCFA00F039FA002085
:100730000C490870D2E7000000100140000C014095
:100740001802002048010020A8110020433E0008A4
:100750007B2F000800080140340000205C0E0020C0
:1007600050100020060000202DE9FC5F0446894659
:10077000002001904CBB484609F04AFA009009F06D
:1007800079FA8246CF4AD04B09F0D0F907460022C9
:10079000CE4B09F024F9054609F07FFA0190019843
:1007A00009F03BFA82B2CA480078401EC94921F8D4
:1007B0001020C7480078401CC549087008460078DA
:1007C000082801DD0120087099E0012C1CD1484661
:1007D00009F01EFA009009F04DFA8246BE4ABF4B5E
:1007E00009F0A4F907460022B84B09F0F8F80546CD
:1007F00009F053FA0190019809F00FFA81B2B54857
:10080000103820F814107AE0022C1CD1484609F068
:10081000FFF9009009F02EFA0746B14AB14B09F0F2
:1008200085F905460022A94B09F0D9F8824609F05E
:1008300034FA0190019809F0F0F981B2A548103816
:1008400020F814105BE0032C1CD1484609F0E0F9B5
:10085000009009F00FFA0746A34AA44B09F066F985
:1008600005460022994B09F0BAF8824609F015FABC
:100870000190019809F0D1F981B29648103820F81A
:1008800014103CE0032C1CD1484609F0C1F900903B
:1008900009F0F0F90746944A944B09F047F90546E8
:1008A00000228A4B09F09BF8824609F0F6F9019084
:1008B000019809F0B2F981B28648103820F8141076
:1008C0001DE0032C1BD1484609F0A2F9009009F065
:1008D000D1F90746844A854B09F028F905460022DC
:1008E0007A4B09F07CF8824609F0D7F9019001981B
:1008F00009F093F981B27748103820F81410BDE858
:10090000FC9F10B50446601EC4B27948005D00F03B
:10091000010020B14021774807F09FFA03E0402111
:10092000744807F09CFA7248005D00F0020028B19C
:100930004FF40041704807F090FA04E04FF4004192
:100940006D4807F08CFA6A48005D00F0040028B199
:100950004FF48041684807F080FA04E04FF480418A
:10096000654807F07CFA10BD70B500240025594891
:1009700018380078B0B161480078401C5F490870B1
:1009800000205F4908705F49086052491839487073
:100990005A480078022805DB0020584908704D4964
:1009A000183908700221584805F036FF002875D024
:1009B000554805F053FE044646481838007801288B
:1009C00012D15248007818B15048007802280BD153
:1009D0004E480078401C4D49087000204849087076
:1009E00048490860012525E045480078401C4449F5
:1009F0000870444800682044424908604048007834
:100A0000042817D108460068C0F38F013F480078DA
:100A1000FFF7AAFE01202F491839487000203949F4
:100A200008603A480078401C384908700020344972
:100A30000870012535480078062802DB002033497C
:100A40000870FDB100253148007830B90723012234
:100A500009212D4805F09BFD2BE02C48007801284A
:100A600006D1072301220A21274805F090FD20E046
:100A700026480078022806D10723012208212248AF
:100A800005F085FD15E021480078032807D10723EC
:100A9000012211461C4805F07AFD0AE00DE01B48D2
:100AA0000078042805D1072301220021164805F00B
:100AB0006EFD0121144805F03EFD05480078FFF762
:100AC00020FF70BD52B81E85EB51C83F0000E03FCB
:100AD0005800002062110020B81E85EB51B8BE3FBF
:100AE000DBF97E6ABC74933FBC0512143FC6C43F59
:100AF0005900002000100140000C01406800002057
:100B000062000020640000200024014061000020F9
:100B100010B57448408AB0F5B27F03DB72480068B4
:100B2000401C00E0002070490860084600680A2860
:100B300003D304216D4807F092F910BD01218140D3
:100B40006B4A12688A436A490A60704700B50346D7
:100B50001846FFF7F3FF00BD01218140644A126887
:100B6000114011B90021634A517001218140604A4E
:100B7000126811435E4A1160704700B5034618467B
:100B8000FFF7EAFF00BD30B505460C46012D03D145
:100B90002046FFF7F2FF02E02046FFF7D7FF30BD07
:100BA00000B55548007800B100BD4E4840888C28FB
:100BB00006DD4C484088AA2802DA0620FFF7DDFF50
:100BC000484840888C2802DA0820FFF7D6FF4548BD
:100BD0004088F52802DC0720FFF7B8FF414840882D
:100BE0008C2802DB0820FFF7B1FF3E484088B4287C
:100BF00002DB0620FFF7AAFF3A49098B32291BDDE9
:100C00003849498B322917DD3649898B322913DD62
:100C10003449C98B32290FDD3249098C32290BDD69
:100C20003049498C322907DD2E49898C322903DD70
:100C30002C49C98C322901DC012100E00021084641
:100C40000921FFF7A0FF00BFAEE710B50446284812
:100C5000008880B218B929480078012819D128489D
:100C60000078A04215DA26480078401C2449087014
:100C700004EBD471224A1278B2EB610F04DA4021FE
:100C8000204807F0EAF80BE040211E4807F0E7F89B
:100C900006E000201A49087040211A4807F0DFF8E2
:100CA00010BD1948007B00F0010018490870084683
:100CB000007828B91448007B00F00200022801D116
:100CC000012000E00020114908700846007820B19A
:100CD0000848407808B9012000E000200B4908705E
:100CE000704700004A110020140000200008014055
:100CF0007C0000209C000020040000200E0000204A
:100D000070000020000C01408411002080000020B1
:100D100070B504460D46DF48007818B12146DEA0C4
:100D200009F00CF9042C03D10120E04948701FE0C0
:100D3000032C08D1DE4890F8200040F00200DC4986
:100D400081F8200014E0052C03D10120D849087156
:100D50000EE0012C08D1D64890F8200040F0200089
:100D6000D34981F8200003E0062C01D1D048457317
:100D700070BD704700B58DB0242104A808F017FE9F
:100D80000020019002900390CA48C07ACA490880A6
:100D9000C8488089C9490880C648C089C8490880B0
:100DA000C848007800287DD149F63B40ADF81000D6
:100DB0002420ADF8120000208DF8140003208DF8D7
:100DC0001500C14890F858088DF81600BF48C07843
:100DD0008DF8170002208DF8180001208DF81900F9
:100DE000BB4800798DF81A0000208DF81B008DF8A3
:100DF0001C00B749888900EBD071C1F347018DF819
:100E00001D10B349488A00EBD071C1F347018DF83A
:100E10001E1000208DF81F008DF820008DF8210095
:100E2000AC4800788DF82500AA4840788DF8260057
:100E3000A84880788DF82700A648C0788DF828004B
:100E4000A44800798DF82900A24840798DF82A003D
:100E5000A04880798DF82B009E48C0798DF82C0031
:100E60009348007B8DF82D009B4800680C909048BB
:100E7000C07A8DF82E0024219348A0F86214032034
:100E8000914981F860040846B0F85818A0F8661433
:100E90008E48C1788C48A0F868144FF47A7100F23B
:100EA0006A4000E011E008F082FD242204A98B488A
:100EB00008F064FD844802F0C8FC8949824802F0C9
:100EC000DFFB01207F49087052E07E48007801284E
:100ED0004ED149F63B40ADF80400824800880C3002
:100EE00080B2ADF8060000208DF808008DF80900EA
:100EF000754890F858088DF80A007448C0788DF845
:100F00000B0002208DF80C008DF80D00754800884C
:100F1000ADF80E004FF47A71704808F048FD6F4844
:100F20000199016002994160039981606D480088D0
:100F3000002806DD6B4802886B4968480C3008F0D1
:100F40001DFDBDF806106048A0F862145F48C17826
:100F50005D48A0F86814B0F85818A0F8661402F0BC
:100F60009AFC5F49584802F0A0FB002055490870E0
:100F70000DB000BDF0B504460D460021012200234E
:100F800000204C4E717AB27A0ABB07291AD1767CBE
:100F900076B100BF08E04D4EF678544F3F5CBE423C
:100FA00000D10123461CF0B2424E767C8642F2DC30
:100FB000012B03D101263E4FFE7708E080263C4FEF
:100FC000FE7704E0002301268E40394FFE77F0BD06
:100FD000704710B53748047A3B4890F8520801280A
:100FE00015D1112C02D101F001FB30E0102C02D1FF
:100FF00001F012FB2BE0152C04D101210020FFF79A
:10100000B9FF24E0292C22D1FFF7E2FF1FE02E4890
:1010100090F8520802281AD100210846FFF7AAFFCB
:101020002948B0F85A082949C97888420FD1192CA3
:1010300002D1FFF79FFE0AE0182C02D1FFF799FEBC
:1010400005E01448007810B129A008F077FF0020CF
:101050002C4908702C4908800B20FFF777FD10BD44
:10106000194AA2F862140322174B83F860241A4627
:10107000B2F85838A2F86834144AD2788032124B49
:10108000A3F866241A4682F86A047047134A11547A
:1010900070470000A4000020706F776572206576AD
:1010A000656E743A2025780D0A0000009C0000202F
:1010B00084110020BE14002084010020560100206D
:1010C00086010020A6000020180200200001002058
:1010D0004A110020221500207C00002082060020FA
:1010E000814C000858010020D01100202C15002050
:1010F000636F6D6D616E64206572726F72210D0A8F
:101100000D0A0000780000207A00002010B5044687
:101110002146FD4808F066F810BD10B5FB48007B7D
:1011200000F00200022854D1F9480078002850D17C
:101130004FF40061F74806F090FE02F087FF0120AF
:10114000F549087003F07FF92021F44806F085FE88
:101150000821F24806F083FE1021F04806F07FFED9
:10116000EF480078002806DDED4800783C2802DAD8
:101170000020EC4908700020E9490870E94800782F
:1011800000287CD1E8484088B4280EDA0421E748DA
:1011900006F065FE642002F05EF84FF40061DF485F
:1011A00006F05BFE642002F056F80421DF4806F0EA
:1011B00054FE642002F04FF80120DD490870002041
:1011C000DC4908700520DC4948700120D5490870C9
:1011D00055E0CE48007B00F0020002284FD0CC48FA
:1011E000007800284BD103F02EF903F061F8CC48C9
:1011F000007808B9012001E0C9480078C8490870A2
:10120000C848007801283AD10421C84806F027FED2
:10121000C34800780A2832DB4FF40061BF4806F06B
:101220001EFE642002F017F80020BE490870042159
:10123000BE4806F012FE03F092F802F016FF0020FE
:10124000B5490870642002F006F80120B84908701A
:101250000020B84908700620B74948704FF4006173
:10126000AC4806F0FCFD0821AC4806F0F6FD202154
:10127000AA4806F0F4FD1021A84806F0EEFD10BDC6
:101280002DE9F0410020A2490870AC480068C82848
:101290001DD30020A9490860A9480068C821B0FBF7
:1012A000F1F4204608F0B4FCA64908600020A449E7
:1012B0000860A448006808F0DDFC0646A24AA34B7B
:1012C00008F034FC044608F0BCFC97494880A0486C
:1012D000006808F09DFC804608F0CCFC06469D4A5C
:1012E0009D4B08F023FC044608F0ABFC8E49C886F1
:1012F00089480078012834D10846C08E9B2810DA2E
:1013000096490968B1F5F97F05D294490968891CA5
:10131000924A116001E09149096888B2FFF7F6FE30
:1013200026E08148C08E8C2813DD7F48C08E9B2824
:101330000FDA8A490968022905D988490968891E8E
:10134000864A116001E08549096888B2FFF7DEFE30
:101350000EE0002081490860098888B2FFF7D6FEB8
:1013600006E000207D490860098888B2FFF7CEFEBC
:10137000BDE8F08110B50221794805F04DFA00284A
:1013800037D07848007880B96C480068401C6B49B9
:101390000860734805F062F96949096808446849BA
:1013A000086001206F4908700BE06E480078012842
:1013B00007D100206B490870694805F04FF964496E
:1013C00008606848007830B9072301220421644886
:1013D00005F0DDF809E063480078012805D107230E
:1013E00001220B215E4805F0D2F801215C4805F08E
:1013F000A2F810BD10B55C48007800B110BD4A4895
:101400004088BE2804DD00BF00205849087007E06E
:1014100045484088B42800DB02E0012053490870A9
:101420005248007810B95248007840B1374890F8D7
:10143000200040F00100354981F8200007E03348E2
:1014400090F8200020F00100304981F82000474842
:10145000007820B94648007808B9012000E0002053
:10146000012804D12948007B40F0040003E027480C
:10147000007B20F00400254908730846407B20B912
:101480008021244806F0CFFC40B9204890F8200085
:1014900040F004001D4981F8200007E01B4890F847
:1014A000200020F00400194981F820001748007935
:1014B000C8B1002015490871084690F8200020F0B6
:1014C000020081F82000084690F8200020F020005B
:1014D00081F82000084690F8200020F0400081F8B4
:1014E00020000020487310484089962842DA0020E6
:1014F0000649087048708870C87048718871C87152
:101500000872012008715AE0000800408411002090
:101510000C00002000100140C0000020000C014021
:10152000BA000020B40000204A1100200008014049
:10153000BD000020A5000020C4110020C400002030
:10154000C8000020CC0000204BB0389CF9D5C43F27
:10155000D4000020E17A14AE47E1BA3FD000002069
:1015600000280140D800002004000020D9000020FD
:10157000DA0000205B4890F8200000F0010020B95C
:101580005848C07F00F0010008B1012000E00020B1
:10159000544908700846C07F00F0020028B9084688
:1015A00090F8200000F0020008B1012000E00020C7
:1015B0004C4988700846C07F00F00400C87000BF26
:1015C0001CE749480078401C4749087008460078E5
:1015D0000A2815D1002008704248007B00F0020064
:1015E000022809D13F480069401C3E49086108466D
:1015F0004069401C486103E000203A4908614861A5
:10160000704770B50546002413E04FF40071374869
:1016100006F023FC322001F01EFE4FF40071334827
:1016200006F01DFC0A2001F016FE03F025FB601CED
:10163000C4B2032CE9DB70BD70B506460C461546F6
:101640002B48007800283BD12A480078012803D095
:1016500029480078012828D12848007828B9012095
:101660002649087000202649088025480088B04295
:1016700005DC4FF400711D4806F0EFFB30E0204818
:101680000088B04209DD1E480088A04205DA4FF408
:101690000071164806F0E3FB22E019480088A042DA
:1016A0001EDB0020164908801AE00020134908704C
:1016B000134908804FF400710C4806F0D0FB0FE08E
:1016C0000F480088B0EBE50F03DC0A20FFF799FF15
:1016D00006E00B480088A84202DB00200849088089
:1016E00070BD000084110020DB00002000100140CC
:1016F0000C000020800000200E000020BE00002012
:10170000B8000020FB48007800B17047FA48007824
:10171000112850D2DFE800F009509FE4FBFAF9F8F5
:10172000684F4FAEFCF6F5F4F3000020F349086172
:101730000720C8720846007B20F080000873F0483C
:10174000007820B90846007B20F002000873EB48BF
:10175000C07818B10120E84908702CE0E74800780B
:1017600018B10220E449087025E0E448807818B1F7
:101770000320E14908701EE0E048C07918B1042058
:10178000DD49087017E0DD48007A18B10520DA4914
:10179000087010E0D948407918B10620D649087081
:1017A00009E0D648807918B10720D349087002E0D3
:1017B0000020D149087072E2D248007800F004009D
:1017C00018B10020CC4908709FE70220CB49C872AD
:1017D0000846007B40F0020008730020CA494870A8
:1017E0000820C54908705AE20120C4490877084614
:1017F000C07830B90846007818B90020BE49087092
:1018000028E0BE48C07830B9BC48007818B1022042
:10181000B94908701EE0B948807828B9B748C0793E
:1018200010B9B648007AA8B1B44890F8200020F06A
:101830000200B24981F82000084690F8200020F00C
:10184000200081F82000084690F8200020F0400099
:1018500081F8200023E20020A849C8720846007BD6
:1018600040F0020008730020A74948700B20A249ED
:10187000087014E20120A14908770846007B40F077
:10188000020008730846007818B900209A490870C9
:1018900025E09A48C07818B10120974908701EE0E9
:1018A0009648807828B99548C07910B99348007A4D
:1018B000A8B1924890F8200020F002008F4981F8EA
:1018C0002000084690F8200020F0200081F8200039
:1018D000084690F8200020F0400081F82000DEE16A
:1018E00001208649C8720846007B40F00200087358
:1018F0000020854948700C207F490870CFE17BE1CA
:101900001FE1A5E049E003E067E10BE191E03AE087
:1019100001207A4908770846007B40F002000873EE
:101920000846807858B9002073490870734890F8C9
:10193000200020F00200714981F8200022E06F4869
:10194000C07818B101206C4908701BE06B48007822
:1019500018B102206849087014E06848C07910B9CD
:101960006648007A70B1654890F8200020F02000A9
:10197000624981F82000084690F8200020F04000DD
:1019800081F820008BE105205C49C87200205E4987
:1019900048700D205849087081E1012057490877A7
:1019A0000846007B40F0020008730846C07918B969
:1019B0000020514908703BE05048C07858B10120E0
:1019C0004D4908704D4890F8200020F020004B4908
:1019D00081F820002CE04948007858B1022046499F
:1019E0000870464890F8200020F02000434981F814
:1019F00020001DE04148807858B103203E4908701E
:101A00003E4890F8200020F020003C4981F820005A
:101A10000EE03A48006928280AD9384890F8200092
:101A200020F02000354981F820000020324908705C
:101A300035E106203149C8720846007B40F00200BB
:101A400008730020304948700E202B49087026E1A9
:101A500001202A4908770846007B40F0800008737F
:101A60000846007A48B90020234908702348007BC3
:101A700020F080002149087353E02048C07880B1ED
:101A800001201D4908701D48007B20F080001B4983
:101A90000873084690F8200020F0400081F82000EC
:101AA0003FE01648007880B10220134908701348BF
:101AB000007B20F0800011490873084690F8200050
:101AC00020F0400081F820002BE00C488078E8B13D
:101AD0000320094908700948007B20F0800007496D
:101AE0000873084690F8200020F0400081F820009C
:101AF00017E0000004000020EA000020841100200C
:101B0000E00000207C0000209C000020FE48C079FE
:101B100038B1FD4890F8200020F02000FA4981F803
:101B20002000BCE00320F849C8720846007B40F062
:101B3000020008730020F54948700F20F44908702E
:101B4000ADE00120F04908770846007B40F0020034
:101B500008730846C07F00F0800040B90846C07F87
:101B600000F0080018B90020E949087034E0E648A0
:101B7000C07818B10120E64908702DE0E2480078ED
:101B800018B10220E249087026E0DF48807818B1D9
:101B90000320DF4908701FE0DB48007A10B9DA48FB
:101BA000C07978B1D84890F8200020F02000D649BC
:101BB00081F82000084690F8200020F0400081F8CD
:101BC000200009E0D0480069282805D90120CE4925
:101BD00048770020CE49087061E00420CA49C872E5
:101BE0000846007B40F0020008730020C749487097
:101BF0001020C749087052E00120C3490877084601
:101C0000007B40F0800008730846C07F00F0800031
:101C100040B90846C07F00F0100018B90020BC4948
:101C200008703BE0B848C07848B10120B849087056
:101C3000B548007B20F08000B34908732EE0B2481D
:101C4000007848B10220B2490870AF48007B20F00C
:101C50008000AD49087321E0AB48807848B103208B
:101C6000AB490870A848007B20F08000A6490873A3
:101C700014E0A548007A10B9A348C07970B1A24811
:101C800090F8200020F020009F4981F820000846AD
:101C900090F8200020F0400081F8200000BF00BF35
:101CA00000BF32E53C2804D19A4A1278521C994B65
:101CB0001A70954A127F012A13D10022964B1A708E
:101CC000914B1A771A4692F8202022F0080283F8E6
:101CD00020201A4692F8202022F0100283F82020BB
:101CE00038E08D4A1278182A03DB18228A4B1A70C2
:101CF00007E03C2800D021B1874A1278521C864B5D
:101D00001A70844A1278182A0FD019B3834A1278AD
:101D100002F00202F2B9814A128802F40042CAB902
:101D20007E4A128802F48042A2B9774A528B002A76
:101D300004DD754A528B521E734B5A83724A128BC2
:101D4000002A04DD704A128B521E6F4B1A83002248
:101D5000704B1A706C4A128B5AB96F4A1278182A53
:101D600007DB694A92F8202042F00802664B83F8AC
:101D70002020654A528B5AB9674A1278182A07DB25
:101D8000614A92F8202042F010025F4B83F8202035
:101D90005D4A528B2AB15C4A92F8202002F0100270
:101DA0004AB10122584B5A771A4692F8202022F065
:101DB000080283F82020544A527F22B10022524B5D
:101DC0005A771E221A8370472DE9F04105460C46CA
:101DD0001646002700BF13E04FF40071504806F08C
:101DE0003CF8204601F037FA4FF400714C4806F0F9
:101DF00036F894FBF6F8404601F02DFA781CC7B28D
:101E0000AF42E9DBBDE8F08110B54FF40071454801
:101E100006F009F890BB44480078642801DB642090
:101E200002E041480078401C3F49087008460078AD
:101E3000032817D0084600780C2813D008460078ED
:101E400016280FD00846007820280BD008460078C6
:101E50002A2807D008460078342803D0084600789E
:101E6000642804D1022250211046FFF7ADFF4FF441
:101E700000712C4805F0D7FF00B910BDFFE72A48D4
:101E80000078002826DD28480078032822DC00207E
:101E9000254908701C48007B00F00200022804D18C
:101EA00022480078401C2149087020480078022808
:101EB0004DDD00201D4908704021194805F0CFFF75
:101EC00004211B4805F0CBFF00211A4807F08AF9CE
:101ED00000BFFEE714480078032839DD1248007877
:101EE0000A2835DC00201049087001200749487095
:101EF000002011490870AA20104948704FF4805101
:101F0000084805F0AAFF1BE0841100209C00002077
:101F1000EA000020EB000020EC0000207C00002004
:101F200000100140000C0140E2000020E30000200E
:101F300000080140002C01400E0000200401002098
:101F400000F002FB012264210320FFF73DFF9CE02B
:101F5000584800780A281DDB56480078142819DAFA
:101F60005548007B00F00200022813D000205149A0
:101F700008700120514908704F48007B40F0020072
:101F80004D490873084690F8200040F0020081F89F
:101F900020007AE047480078142814DB4548007890
:101FA0001E2810DA00204349087045488078CC2864
:101FB00003D1DD204249887067E0CC204049887019
:101FC00000F0C2FA61E03B4800781E2816DB394871
:101FD0000078282812DA002036490870BB203849DA
:101FE00048704FF48051374805F039FF00F0ACFAE3
:101FF000012264210A20FFF7E7FE46E02D48007821
:10200000282824DB2B480078322820DA00202949B0
:1020100008702B488079BF2803D10820284988718F
:1020200006E027488079082802D1BF20244988711A
:1020300000F08AFA002024490860244908702448E6
:10204000007810BB0421234805F007FF1DE0194864
:102050000078322816DB17480078642812DA00204E
:10206000144908701648C078002805DD3C20144942
:1020700088800020C87008E00020114988807820FE
:10208000C87002E000200B4908700B4840693C28EA
:102090000ED90A48007801280AD107490871084674
:1020A000007B20F00200087300204861034908709B
:1020B00000BFE2E6E200002084110020E0000020E2
:1020C00004010020000C014014000020BC0000208E
:1020D0000C00002000080140704700BFFEE700BF71
:1020E000FEE700BFFEE700BFFEE77047704770479E
:1020F00010B540F22551B84807F076FA38B1B64825
:1021000007F0F2F9C4B22146B44801F08FFD4FF454
:102110005871B14807F068FA38B14FF45871AE48B9
:1021200007F08CFAAC4807F0DFF910BD10B540F2AB
:102130002551AB4807F058FA38B1A94807F0D4F94F
:10214000C4B22146A74802F05DFE4FF45871A4487E
:1021500007F04AFA38B14FF45871A14807F06EFA07
:102160009F4807F0C1F910BD10B540F225519E48B7
:1021700007F03AFA10BD10B540F225519B4807F020
:1021800033FA4FF45871994807F02EFA38B14FF4EA
:102190005871964807F052FA944807F0A5F910BD17
:1021A00010B540F22551924807F01EFA4FF45871CD
:1021B0008F4807F019FA38B14FF458718C4807F07E
:1021C0003DFA8B4807F090F910BD10B50121880742
:1021D00007F035F818B30121880707F041F8FEF73A
:1021E000C3FB7E48007880B982480078401C814952
:1021F000087008460078042807DB042077494870F7
:102200000120087000207B4908707B480068B0F509
:10221000FA6F05D278480068401C7749086006E0EC
:102220004FF4FA607449086001207449087010BDC9
:1022300010B50121724807F002F828B10121704859
:1022400007F00EF800F0DAFD10BD10B501216D4861
:1022500006F0F5FF08B100F07DFB0421694806F0A7
:10226000EEFF08B100F093FB67480088962805DB75
:1022700000206549088000F077FE04E0624800888D
:10228000401C6149088005215E4806F0D5FF10BD5D
:1022900010B501215D4806F0D2FF00284AD0012187
:1022A0005A4806F0DDFF5A480078401C584908702B
:1022B00058480088401C574908800120564908703A
:1022C000534800780A2807D1002051490870534824
:1022D0000078401C51490870504800783C2804D1CF
:1022E0004F480078401C4E4908704E48807F70B1BE
:1022F0004D480078401C4C49087008460078062874
:102300000AD1002008700121FFF7CCFC04E0002175
:1023100043480078FFF7C6FC404800783C2802DBC1
:1023200000203E4908703E4800783C2802DB00202F
:102330003B49087010BD10B501213C4806F07FFFF5
:1023400028B10121394806F08BFF00F00DFE10BDC9
:1023500010B50121364806F072FF18B1012134484A
:1023600006F07EFF10BD10B50121324806F067FF70
:1023700078B101212F4806F073FF01202E49087023
:102380002E4800783C2804DC2C480078401C2B495F
:10239000087010BD10B5102005F05AF958B1284842
:1023A0000078012807D1274800682749884202D3CE
:1023B000102005F05EF910BD10B54FF408712348E8
:1023C00004F036FA30B1FEF7D5FF4FF408711F481C
:1023D00004F040FA10BD000000380140180200204F
:1023E00000440040A811002000480040004C00407C
:1023F00000500040F6000020F000002025010020E1
:102400000004004000080040F4000020000C0040E0
:10241000F7000020B800002006000020F80000208F
:10242000F900002084110020FA0000200010004074
:102430000014004000340140C2010020BA00002016
:102440002400002028000020400D03000028014047
:102450001CB504226946714802F0C6FB0120704990
:1024600048700870BDF802008870BDF80600C8709A
:102470001CBD1FB50024082269466848083002F0D8
:10248000B3FB2146641C1DF8110066490870214603
:10249000641C1DF81100634948702146641C1DF836
:1024A0001100604988702146641C3DF811005D49A7
:1024B00088802146641C1DF811005A49C8702146C5
:1024C000641C1DF811005749887108468079082856
:1024D00005D008468079BF2801D0082001E0514886
:1024E00080795049887108464078BB2805D0084655
:1024F0004078AA2801D0AA2001E04A4840784949FA
:10250000487008468078CC2805D008468078DD28B9
:1025100001D0CC2001E043488078424988700846C9
:1025200080883C2801DD3C2001E03E4880883D4910
:1025300088800846C078782801DD782001E0394895
:10254000C0783849C8701FBD10B586B00024344823
:1025500042782146641C2DF8112082782146641CA3
:102560002DF8112002782146641C2DF81120C27824
:102570002146641C2DF811202A4802782146641C4B
:102580002DF8112042782146641C2DF81120827804
:102590002146641C2DF8112082882146641C2DF8E8
:1025A0001120C2782146641C2DF811208279214621
:1025B000641C2DF811200C226946184802F0EBFA31
:1025C00006B010BD10B504460020154988700846B5
:1025D000C470FFF7B9FF0A20FFF713F810BD10B55C
:1025E000044610480470FFF7AFFF10BD10B50C484B
:1025F00041780DA007F0A2FC094881780FA007F0F0
:102600009DFC0748017811A007F098FC0448C178A8
:1026100013A007F093FC10BD7047000000FF0108F5
:102620000001002004010020446576696365207480
:102630007970653A2025640D0A0000004974656DC3
:102640004E6F3A2025640D0A00000000536F667437
:102650002076657273696F6E3A2025640D0A00005A
:10266000416464726573733A2025640D0A000000AA
:102670000CB50020019000906C48006840F4803058
:102680006A49086000BF6948006800F400300090A3
:102690000198401C0190009818B90198B0F5A06FFE
:1026A000F1D16248006800F4003010B101200090C0
:1026B00001E0002000900098012843D15C480068A8
:1026C00040F010005A4908600846006820F00300F6
:1026D00008600846006840F00200086053484068FF
:1026E000524948600846406848600846406840F4DF
:1026F000806048600846406820F47C1048600846C6
:10270000406840F4E81048600846006840F0807077
:10271000086000BF4548006800F000700028F9D04C
:102720004248406820F0030040494860084640683D
:1027300040F00200486000BF3C48406800F00C00D8
:102740000828F9D10CBD10B5FFF792FF10BD10B5E8
:102750003648006840F00100344908600846406887
:102760003449084031494860084600683249084009
:102770002E4908600846006820F48020086008465A
:10278000406820F4FE0048604FF41F008860FFF7A7
:10279000DAFF4FF000602949086010BD10B5002134
:1027A00000200022214B5B6803F00C0121B10429B9
:1027B00006D0082928D107E0214B224C236027E0CE
:1027C0001F4B204C236023E0184B5B6803F4701010
:1027D000164B5B6803F48032022303EB904022B96E
:1027E000194B4343174C23600DE0104B5B6803F417
:1027F000003323B1144B4343124C236003E0104BCE
:102800004343104C236003E00D4B0E4C236000BF8C
:1028100000BF064B5B68C3F303130C4CE15C094B30
:102820001B68CB40074C236010BD00000010024025
:10283000002002400000FFF8FFFFF6FE08ED00E078
:1028400000127A000C01002000093D001001002058
:102850003A490968491C394A1160114609686429D6
:1028600001D300211160704710B504463448006858
:10287000401C3349086008460068A04205D84FF460
:102880008051304805F0E9FA08E02D480068A04280
:1028900004D94FF480512B4805F0E1FA284800682C
:1028A000642802D300202649086010BD10B50446F4
:1028B0002548007830B96420FFF7D6FF6420FFF781
:1028C000C7FF3AE02148408A642805DA1F48C08AD9
:1028D0000A2801DA372C03DD00201D4908700CE0BE
:1028E000372C0ADC1948408A2D2806DA1748C08A96
:1028F000082802DA0120164908701548007830B916
:102900006420FFF7B1FF6420FFF7A2FF15E0232C3E
:102910000DDD0F480078012809D1611F4800FFF73D
:10292000A3FFA4F10A014800FFF792FF05E0002091
:10293000FFF79AFF0020FFF78BFF10BD2C0100204E
:102940002801002000100140250100204A1100202C
:1029500024010020A448007820F01000A24908704B
:102960000846007800F00F000E2804DA08460078C8
:10297000401C08700AE09C48007820F080009A49CA
:1029800008700846007800F0F0000870704710B535
:102990008021964805F047FA70B10221944806F06C
:1029A00049FB0021924806F015FC8F48007840F062
:1029B00010008D4908704FE08D4806F024FC8D49C9
:1029C000086000218A4806F035FB8748007800F04F
:1029D000100038B387480068B0F5967F0DD9854858
:1029E0000068B0F5617F08D28348006840008249E2
:1029F000086008460068086028E07E48006840F2E9
:102A00004C4188420FD97B480068B0F5C86F0AD2A4
:102A1000794800684000784908600846006840F03E
:102A20000100086012E07348006840F6980188428F
:102A30000CD9714800687049086001206F4908701E
:102A40006948007800F0F00067490870664800782F
:102A500020F010006449087010BD70B500250024F6
:102A600066480078012871D19CB963480088C0F39A
:102A700003300A2801D101240BE0002400205E4924
:102A800008605E4908705848007820F010005649E8
:102A90000870012C12D158480088C0F3802008B17A
:102AA00002240BE0002400205349086053490870B9
:102AB0004D48007820F010004B490870022C23D1BB
:102AC0004D480088C0F30120032801D105241BE0F4
:102AD00049480088C0F3002008B1032414E04648A8
:102AE0000068022101EA1020022801D104240BE031
:102AF0000024002040490860404908703A480078A6
:102B000020F0100038490870032C10D13A4805789D
:102B10002846FFF757FD0024002037490860374951
:102B200008703148007820F010002F490870042CFC
:102B300022D13348007850B93248007B40F002007F
:102B40003049087301202E49087009E04BE02D48F8
:102B5000007B20F002002B490873002028490870F0
:102B60000024002024490860244908701E48007889
:102B700020F010001C490870052C34D11E4805783F
:102B80002846FFF72CFD062D20D2DFE805F00307CD
:102B90000B10151A96201C49086017E0C8201A4926
:102BA000086013E04FF49670174908600EE04FF488
:102BB000C8701549086009E04FF4FA7012490860BE
:102BC00004E04FF416701049086000BF00BF0024F5
:102BD000002009490860094908700348007820F07E
:102BE00010000149087070BD34010020000C014044
:102BF000000800403C010020380100204101002075
:102C000040010020841100202C000020F9480069B8
:102C1000F9494860F9480078012876D1F8480078E9
:102C20000F287DDD08468088F649F74A128821F88A
:102C30001200F1480078F549F34A12888854F448A4
:102C40000088401CF2490880EF480088401CEE498B
:102C50000880F0480078012101EB4000EE4931F88E
:102C60001000EB49098888422BDAE748008840B316
:102C7000EA480088401EE749097888420DDBE548AC
:102C80000078401CE3490870084600784000E2499B
:102C900031F81000DE49088054E00020DD4908705A
:102CA000DD48097830F81100D94908800020D3495F
:102CB0000870D5480088DA4908800020D249088089
:102CC00040E0D4480078012101EB4000D24931F8BE
:102CD0001000CF490988884234DACB48008888BB85
:102CE000CE480088401ECB49097888420EDBC9488F
:102CF0000078401CC7490870084600784000C64963
:102D000031F81000C24908801CE009E00020C149E8
:102D10000870C148097830F81100BD49088011E0F9
:102D2000B648007870B9B64800780F280ADDB14877
:102D3000C17EB648BB4A12888154BA480088401CFC
:102D4000B84908800020B84908700120A949487195
:102D5000704710B5B548007830BBA8480078012806
:102D600004D1AB480088A349086111E0AD48008850
:102D7000AB490988884201DB002001E0A9480088AE
:102D8000A84908809F48098830F8110099490861CE
:102D900001219848017508214175012101F0DFFFEB
:102DA000944802F03FF820E0A048007801281CD1A8
:102DB00000209D49087000218E4801758E48417899
:102DC0008C484175012101F0CAFF8A4802F02AF8B7
:102DD0008B4800780F2800DA10BD9548008808B9A4
:102DE000012000E000209149087000BFF4E710B511
:102DF000FFF7AFFF00208F49087010BD10B57D4868
:102E00000078022810D18C480088401C8A4908802C
:102E100008460088012806D10020088001F03DFB0B
:102E20000320744908709EE072480078032817D187
:102E300081480088401C8049088008460088052891
:102E4000F1D10020088020217C4805F006F84FF4DD
:102E500080617B4805F001F804206649087082E033
:102E600064480078042810D173480088401C7249D7
:102E7000088008460088142875D10020088001F0D9
:102E80009DFA05205B4908706DE05A4800780528D6
:102E900022D169480088401C674908805548C0789D
:102EA00018B908460088AA285DD100206249088028
:102EB0000620504908704FF48061614804F0CFFF4C
:102EC00020215E4804F0CBFF01F0BDFA012001F0A3
:102ED000E4FA01F0D6FA46E046480078062834D1F4
:102EE00055480088401C5449088008460088B0F5C1
:102EF000FA7F38D1002008803E48C07838B10020E1
:102F00003C49C870072008700020C8802BE0394871
:102F1000C088401C3749C8800846C08803280DD1A6
:102F20000020C8800846007D10B90020087002E02B
:102F300008203049087000F088FF14E001202D4976
:102F40008870087000F081FF0DE02A48007807289B
:102F500009D12848407930B1002026494871C880FD
:102F6000087000F072FF10BD3248007800B1704761
:102F700001203049087000BFF9E770B505460E46DC
:102F8000002401F0ECF900BF05E0295D2D4801F0B7
:102F9000D8FD601CC4B2B442F7DB01F08CFA01F03A
:102FA00052FA012001F079FA70BD0146A1F5806066
:102FB00081B22548C078C0EB0010020102F1EF0099
:102FC00083B2914203DB994201DC0120704700206B
:102FD000FCE70146A1F5806081B21B48C078C0EBD8
:102FE0000010A1EB001082B21E2092FBF0F0401CFA
:102FF000C0B27047A8110020C41100204D0100206C
:10300000A5000020D01100205A010020C413002088
:10301000500100205F010020FA14002088010020E8
:10302000580100205C0100205E010020BD0000204E
:1030300052010020480100206801002000080140E2
:10304000000C014000440040000100200146A1F5B1
:10305000806081B26348C078C0EB0010A1EB001023
:1030600082B21E2092FBF0F300FB1320C0B2704727
:1030700010B5024600BF5B4BDB78C3EB03131C01AA
:10308000531EC3EB031304EB4303581800F580638E
:1030900098B210BD10B55448007808286FD1534835
:1030A00000780F286BDD52480078032868DB514810
:1030B0000078012870D150480088401C4E49088093
:1030C000494801F0B2FE4D480078012101EB400073
:1030D0004B4931F810004849098888422BDA4948A1
:1030E000008840B348480088401E44490978884217
:1030F0000DDD42480078401C4049087008460078C1
:1031000040003F4931F810003B4908805DE0002055
:103110003A4908703A48097830F811003649088071
:10312000002034490870374800883849088000205A
:103130003449088049E031480078012101EB400022
:103140002F4931F810002C49098888423DDA2D4872
:103150000088F8B92C480088401E28490978884220
:103160000FDB26480078401C244908700846007888
:103170004000234931F810001F49088025E030E065
:1031800027E000201D4908701D48097830F811001B
:103190001949088019E0FFE716480078A8B91248D5
:1031A00000691B491B4A128831F8121088420CD161
:1031B00001201949174A1288885416480088401C73
:1031C00014490880084801F030FE002008490870C2
:1031D00007E007480078401C05490870024801F0E4
:1031E00024FE10BD00010020A8110020A500002031
:1031F0005E0100204D010020500100205F010020F1
:10320000FA1400205A0100208801002058010020F3
:10321000D01100205C010020C41300200648804724
:1032200006480047FEE7FEE7FEE7FEE7FEE7FEE7AB
:10323000FEE7FEE7FEE7FEE74F270008450100082E
:10324000002105E0002200E0521C002AFCD0491CAD
:103250008142F7D3704730B50446002500BF04E033
:103260004FF47A70FFF7ECFF6D1CA542F8D330BD28
:10327000704738B5024600238DF8003000200FE07B
:103280000B780124844023404BB19DF80030C0F1FD
:1032900007050124AC402343DBB28DF80030401C0D
:1032A0000828EDDB9DF80030137038BD3CB50246B0
:1032B0000023ADF8003000200FE00B88012484408B
:1032C00023404BB1BDF80030C0F10F050124AC40E4
:1032D00023439BB2ADF80030401C1028EDDBBDF855
:1032E000003013803CBDFCB504460D46002600208E
:1032F000019041F22107009026E014F8010B0090A4
:1033000069466846FFF7B5FFBDF804009DF8001058
:1033100080EA01200190002614E0BDF8040000F4CA
:10332000004030B1BDF8040087EA400080B201904F
:1033300006E0BDF804004FF6FF7101EA400001907D
:10334000701CC6B2082EE8DB281EA5F10105D4D1F9
:1033500001A901A8FFF7AAFFBDF80400FCBD10B544
:103360000446AB480068401CA9490860084600684C
:10337000A04201D100200860A5480068B0EB540FBE
:1033800011D84FF48071A34804F067FDA24800787B
:10339000142803DAA0480078401C01E09E48007819
:1033A0009D49087004E04FF480719A4804F057FD7D
:1033B00010BD10B504462CB94FF40041974804F0F5
:1033C00032FD10BD012C01D10120FAE7022C01D100
:1033D0000120F6E7032C01D10120F2E7042C01D1F2
:1033E0000120EEE7052C01D10120EAE7062C01D1EE
:1033F0000120E6E7072C01D10120E2E7082C01D1EA
:103400000120DEE70120DCE72DE9F04105460E460C
:103410000024002782480078FF2836D081480068C1
:10342000A8421FD37F480068A8420CD17C48077887
:10343000FF207B4908707B480068401C7949086080
:103440003846BDE8F08176480078FFF7B2FF00B952
:1034500036B1002073490860FF2071490870F0E719
:10346000FF20EEE76E480078FFF7A3FF30B96D4804
:103470000068401C6B490860FF20E2E700206949B2
:103480000860FF2066490870DBE74FF4004163489D
:1034900004F0C9FC40B100BF00BF00BF00BF00BFC7
:1034A00000BF00BF00BF0DE0002408E02046FFF78A
:1034B00080FF10B95A48047003E0601CC4B20A2CA3
:1034C000F4DB00BFFF20BCE72DE9F04107460C46C6
:1034D000002100254FEAE27C02EB5C7C4FEAEC0C19
:1034E000A44507DA4FEAE37C03EB5C7C4FEAEC0C83
:1034F000A44502DB0020BDE8F08119461EE0084625
:103500004FEAE17C01EB5C7C4FEAEC0C17F80CC055
:103510000E464FEAE17801EB58784FEAE808A1EB54
:10352000C8084CFA08FC0CF0010C4CEA0505914265
:1035300001D1284600E068000546491E9142DEDAC6
:103540002846D8E72DE9F04305460E461446079F66
:1035500000218C464FEAE47804EB58784FEAE808FB
:10356000B04507DA4FEAE37803EB58784FEAE8080A
:10357000B04502DB0020BDE8F083214621E007F0E2
:10358000010C7F104FEAE17801EB58784FEAE80828
:1035900015F808800A464FEAE17901EB59794FEABC
:1035A000E909A1EBC9090CFA09F948EA0908084632
:1035B0004FEAE17901EB59794FEAE90905F8098009
:1035C000491C9942DBDD0120D5E730B502460B46A8
:1035D0000021002405E012F8015B6818C1B2601CEC
:1035E000C4B29C42F7DB00BF481CC0B230BD30B54E
:1035F00002460020002305E012F8015B2C18E0B21F
:103600005C1CE3B28B42F7DB00F13304E0B230BD67
:103610007401002000080140A500002000100140B6
:10362000780100207C01002070B504460D466078CA
:10363000012801D1A07808B9002070BD0020A07039
:1036400040F26240005D801CC1B204F10800A8474E
:103650000120F2E770B504460D46A07810B16078FD
:10366000012801D0002070BD0020A07040F262400F
:10367000005DC01DC1B204F10800A8470120F2E7B7
:1036800070B504460D46A07810B16078012801D0CD
:10369000002070BD0020A07040F26240005B811CE1
:1036A00004F10800A8470120F3E770B504460D4671
:1036B000A07810B16078012801D0002070BD0020F2
:1036C000A07040F26240005B811C04F10800A84732
:1036D0000120F3E72DE9F0410446002700250026EC
:1036E000A8463A2229466D1C04F1080042549B2248
:1036F00029466D1C425494F8601440F26440005D09
:1037000041EAC00140F26240005D41EA0010C6B2E9
:1037100029466D1C04F10800465440F26640065DDF
:1037200029466D1C04F1080046544FF48D60065D77
:1037300029466D1C04F10800465400BF0AE004F25B
:103740006A40C65D2846691CCDB204F108010E54DA
:10375000781CC7B240F26240005BB842EFDCA91EA1
:1037600004F10A00FFF7BFFD80462846691CCDB270
:1037700004F1080101F800804FEA18222846691C6C
:10378000CDB204F108010A540120A0706070BDE8B8
:10379000F0817FB50446002549F63A30ADF80000C7
:1037A000F948408A102101EB800080B2ADF8020098
:1037B00000208DF804008DF80500F44880798DF81C
:1037C00006000120ADF80800F14800788DF80A00E5
:1037D000F0480088ADF80C00EB48408AADF80E00C8
:1037E0004FF47A7104F1080006F0E1F810226946FE
:1037F00004F1080006F0C2F8E348408A8200E64976
:1038000004F1180006F0BAF8DF48408A102101EBF5
:10381000800081B240F262400153015B04F1080074
:10382000FFF761FD054640F26240025B04F10800CB
:1038300085542A0A40F26240005B401C04F10801F2
:103840000A540120A07060707FBD70B50446002549
:1038500040F26240025B04F26A4104F1080006F0A3
:103860008DF840F26240015B04F10800FFF73BFD78
:10387000054640F26240025B04F1080085542A0AC2
:1038800040F26240005B401C04F108010A54012030
:10389000A070607070BD70B50446002540F26240B3
:1038A000025B04F26A4104F1080006F067F840F296
:1038B0006240015B04F10800FFF715FD054640F288
:1038C0006240025B04F1080085542A0A40F262401B
:1038D000005B401C04F108010A540120A0706070D4
:1038E00070BD70B504460D4694F8740000BB3A2DC7
:1038F00012D1012084F874004FF47A7104F1780039
:1039000006F055F834F8721F2088401C24F872091C
:1039100004F178004554C4E0002084F87400A4F851
:1039200072004FF47A7104F1780006F040F8B8E0C4
:1039300094F87400012818D19B2D0AD1022072340A
:10394000A0702188481C24F8720904F178004554BD
:10395000A7E0002084F87400A4F872004FF47A7194
:1039600004F1780006F023F89BE094F87400022834
:103970000CD124F86E5FA188481CA0806E3C04F135
:1039800078004554032084F874008AE094F87400A9
:10399000032814D16C34A5806088A1884FF6FF728B
:1039A00002EA012108432080E188481CE0806C3C49
:1039B00004F178004554042084F8740071E094F810
:1039C0007400042830D134F8721F2088401C24F879
:1039D000720904F178004554B4F87200B4F86C1020
:1039E00088420BD1052084F87400B4F8721004F1F9
:1039F0007800FFF778FCA4F8760052E0B4F8720083
:103A0000B4F86C10884203DCB4F86C00C82848DDB8
:103A1000002084F87400A4F872004FF47A7104F165
:103A2000780005F0C4FF3CE094F87400052813D139
:103A300094F87600A84203D1062084F8740030E0A0
:103A4000002084F87400A4F872004FF47A7104F135
:103A5000780005F0ACFF24E094F87400062811D13A
:103A600000207234A0702080A088723CB5EB102F2B
:103A700001D1012070BD4FF47A7104F1780005F096
:103A800096FF0EE094F8740006280ADD002084F802
:103A90007400A4F872004FF47A7104F1780005F014
:103AA00086FF0020E6E710B50246B2F8720078B94A
:103AB0003D2903D10120A2F87200A7E03E2903D1DD
:103AC0000220A2F87200A1E00020A2F872009DE09E
:103AD000B2F87200012809D19A2903D10320A2F873
:103AE000720093E00020A2F872008FE0B2F872003A
:103AF000022809D19C2903D10420A2F8720085E094
:103B00000020A2F8720081E0B2F87200032805D10B
:103B1000224801800520A2F8720077E0B2F8720016
:103B200005280FD11E48018000884FF6FF7303EA75
:103B300000201A4B1B881843184B18800620A2F847
:103B4000720063E0B2F8720006282DD11548008893
:103B500040F2EE23984208DD0020A2F872000F4BDD
:103B60001880104B1880012010BD0E4800880B4BA8
:103B70001B8898424AD10020A2F87200074B188097
:103B8000084B18800120EFE7BE140020040100203C
:103B90008401002086010020D21400208C01002026
:103BA0008E0100209A010020B2F87200042805D18D
:103BB000764801800720A2F8720027E0B2F8720070
:103BC000072823D1724803780078401C704C20707D
:103BD0007048C154204600786C4B1B88984208D12D
:103BE0000020A2F87200694B18802346187001204B
:103BF000BAE7674800780A2808DD0020A2F87200BA
:103C0000624B1880624B18700120ADE70020ABE7D3
:103C100070B504460D4629462046FFF744FF0128AB
:103C200003D10520607000F008FB70BD70B504463C
:103C30000D4629462046FFF754FE01285AD16078E8
:103C4000052800D070BD142204F17801524805F017
:103C500095FE5148407984F852084F48017940F662
:103C6000560001554C48418840F6540001534A48DB
:103C7000817940F6580001534748C17940F65A000F
:103C800001534FF47A7104F65C0005F090FEB4F82D
:103C90006C2004F1780104F65C0005F06FFE3E48EC
:103CA000407CA8B150213D4805F081FE40F654000B
:103CB000035B3948408AA3EB8000374B5B7CC31A17
:103CC00004F1780019183448427C344805F056FE57
:103CD00040F65400035B04F1780003442E48408A08
:103CE000A3EB80012C48408A82002D4805F046FE57
:103CF0000420607000BFA5E70121417070470521D5
:103D00004170704710B50446A04710BD70B5044619
:103D10000D466078022821D1A088401CA080A08890
:103D200064281BD10020A080E08801280BD100204E
:103D3000E08094F86004012802D1052060700AE058
:103D40000320607007E0E088401CE0800120A07044
:103D50002046FFF7D1FF2846FFF7D4FF70BD0021B2
:103D60008170052141700021C18081800121C170D5
:103D70000021A0F87210A0F86E1080F87410A0F85E
:103D80007610704710B50446A04710BD8C01002086
:103D90009401002022150020BE1400202C150020C4
:103DA000D214002010B54FF4A06002F0C3FA10BD89
:103DB0007FB505460C460121C80204F0E3FA012153
:103DC000F94805F04DFAADF80850ADF80440002070
:103DD000ADF80A00ADF8060001A9F34804F00AFCAA
:103DE00019208DF8000001208DF801008DF80200E7
:103DF0008DF80300684602F0A2FA00220121EA4889
:103E000004F06FFF0021E84804F050FF7FBD10B5BB
:103E10000121E54805F024FA01221146E24804F0A8
:103E200060FF0121E04804F041FF10BD10B5002102
:103E3000DD4804F03BFF00220121DB4804F051FF84
:103E400010BD10B5FFF7E3FF10BD10B5FFF7EEFF93
:103E500010BD7FB505460C460121084604F09FFAC7
:103E60000121880705F0FCF9ADF80850ADF80440D1
:103E70000020ADF80A00ADF8060001A94FF080401F
:103E800004F0B8FB1C208DF8000003208DF8010021
:103E90008DF8020001208DF80300684602F04FFA09
:103EA00000220121880704F01CFF00214FF0804010
:103EB00004F0FCFE7FBD10B50121880705F0D0F9A4
:103EC00001221146900704F00CFF0121880704F03D
:103ED000EDFE10BD10B500214FF0804004F0E6FE6D
:103EE00000220121880704F0FCFE10BD7FB50546C5
:103EF0000C460121022004F052FA0121AB4805F0E2
:103F0000AFF9ADF80850ADF804400020ADF80A0054
:103F1000ADF8060001A9A54804F06CFB1D208DF842
:103F2000000003208DF801008DF8020001208DF8BB
:103F30000300684602F003FA002201219B4804F0C6
:103F4000D0FE0021994804F0B1FE7FBD10B50121DB
:103F5000964805F085F901221146944804F0C1FE07
:103F60000121924804F0A2FE10BD10B500218F4837
:103F700004F09CFE002201218C4804F0B2FE10BD2A
:103F800030B587B005460C460121042004F007FA3D
:103F90000121874805F064F9ADF80450ADF8004000
:103FA0000020ADF80600ADF802006946804804F034
:103FB00021FB0420ADF80C000020ADF80E0001201C
:103FC000ADF810000020ADF812000320ADF8140089
:103FD00003A9774804F0A1FD1E208DF818000220E7
:103FE0008DF8190000208DF81A0001208DF81B00B3
:103FF00006A802F0A4F9002201216D4804F071FE28
:1040000000216B4804F052FE07B030BD1FB50446D6
:104010006020ADF800000120ADF802000020ADF8EE
:1040200008006946624804F0B1FB0821604804F0CA
:1040300083FF21465C4805F0D5F801215C4804F077
:1040400041FE01215A4804F031FE1FBD10B5012187
:10405000574804F02BFE0121554805F001F90122D3
:104060000521534804F03DFE10BD10B50021504815
:1040700004F01CFE002201214D4804F032FE10BD68
:104080007FB505460C460121082004F088F901217E
:10409000484805F0E5F8ADF80850ADF804400020B8
:1040A000ADF80A00ADF8060001A9424804F0A2FAF2
:1040B00032208DF8000000208DF801008DF80200FC
:1040C00001208DF80300684602F039F90022012131
:1040D000384804F006FE0021364804F0E7FD7FBDB5
:1040E00010B50121334805F0BBF8012211463148D3
:1040F00004F0F7FD01212F4804F0D8FD10BD10B5E4
:1041000000212C4804F0D2FD00220121294804F0AE
:10411000E8FD10BD7FB505460C460121102004F0D6
:104120003EF90121244805F09BF8ADF80850ADF8A0
:1041300004400020ADF80A00ADF8060001A91E48B1
:1041400004F058FA36208DF8000003208DF80100A5
:104150008DF8020001208DF80300684602F0EFF8A8
:1041600000220121144804F0BCFD0021124804F093
:104170009DFD7FBD10B501210F4805F071F80122AA
:1041800011460D4804F0ADFD01210B4804F08EFDF1
:1041900010BD10B50021084804F088FD002201215F
:1041A000054804F09EFD10BD002C014000040040B5
:1041B00000080040000C0040001000407FB505469C
:1041C0000C460121202004F0EAF80121FC4805F00A
:1041D00047F8ADF80850ADF804400020ADF80A00EB
:1041E000ADF8060001A9F64804F004FA37208DF86E
:1041F000000003208DF801008DF8020001208DF8E9
:104200000300684602F09BF800220121EC4804F00C
:1042100068FD0021EA4804F049FD7FBD10B5012189
:10422000E74805F01DF801221146E54804F059FD64
:104230000121E34804F03AFD10BD10B50021E0482B
:1042400004F034FD00220121DD4804F04AFD10BDD8
:104250007FB505460C460121480304F093F801217F
:10426000D84804F0FDFFADF80850ADF80440002038
:10427000ADF80A00ADF8060001A9D24804F0BAF979
:104280002C208DF8000003208DF801008DF802002D
:1042900001208DF80300684602F051F80022012148
:1042A000C84804F01EFD0021C64804F0FFFC7FBD95
:1042B00010B50121C34804F0D3FF01221146C148C3
:1042C00004F00FFD0121BF4804F0F0FC10BD10B553
:1042D0000021BC4804F0EAFC00220121B94804F0A6
:1042E00000FD10BD00B585B00121880304F04AF837
:1042F000B54804F0B9FF4FF4165001900020ADF816
:104300000800ADF80A00ADF80C00ADF810000C2064
:10431000ADF80E0001A9AC4804F0E9FF25208DF8A6
:10432000000000208DF8010003208DF8020001201C
:104330008DF80300684602F002F8012240F2255190
:10434000A14805F06CF801224FF458719E4805F021
:1043500066F801219C4805F056F805B000BD00B58F
:1043600085B00420ADF8000003208DF8020018206D
:104370008DF803006946954803F0C2FC012148040A
:1043800004F00DF8924804F06FFF4FF4964001904E
:104390000020ADF80800ADF80A00ADF80C00ADF84B
:1043A00010000820ADF80E0001A9894804F09FFF15
:1043B0000121874805F027F805B000BD00B587B09A
:1043C0000820ADF8040004208DF8070001A97F48FB
:1043D00003F096FC0121480403F0E1FF7C4804F05F
:1043E00043FF4FF4165003900020ADF81000ADF8D5
:1043F0001200ADF81400ADF818000420ADF8160056
:1044000003A9734804F073FF26208DF808000120EB
:104410008DF809008DF80A008DF80B0002A801F054
:104420008EFF012240F22551694804F0F8FF012275
:104430004FF45871664804F0F2FF0121644804F01B
:10444000E2FF07B000BD08B50420ADF8000003206E
:104450008DF8020010208DF8030069465B4803F0D8
:104460004FFC08BD08B50420ADF8000003208DF80E
:10447000020018208DF803006946544803F040FC00
:1044800008BD08B50820ADF8000004208DF8030031
:1044900069464E4803F034FC08BD10B50446012CB3
:1044A00004D10421494803F0D8FC03E00421474823
:1044B00003F0D5FC10BD10B50021434804F0A3FF64
:1044C000002240F22551404804F0A9FF10BD10B56C
:1044D00001213D4804F097FF012240F225513A485E
:1044E00004F09DFF10BD00B585B00121880403F0E4
:1044F00056FF384804F0B8FE4FF4165001900020E3
:10450000ADF80800ADF80A00ADF80C00ADF81000E9
:104510000C20ADF80E0001A92E4804F0E8FE27207B
:104520008DF8000003208DF801008DF802000120B5
:104530008DF80300684601F002FF012240F2255188
:10454000244804F06CFF0121224804F05CFF05B010
:1045500000BD00B585B00121C80403F020FF1E484E
:1045600004F082FE4FF4165001900020ADF80800D0
:10457000ADF80A00ADF80C00ADF810000C20ADF855
:104580000E0001A9144804F0B2FE34208DF800009A
:1045900003208DF801008DF8020001208DF8030042
:1045A000684601F0CCFE012240F225510A4804F091
:1045B00036FF0121084804F026FF05B000BD0000C9
:1045C0000014004000340140003801400008014060
:1045D0000044004000480040004C004000B585B059
:1045E0000121080503F0DBFEF74804F03DFE4FF41F
:1045F000164001900020ADF80800ADF80A00ADF8B3
:104600000C00ADF810000C20ADF80E0001A9EE482A
:1046100004F06DFE35208DF8000001208DF80100BA
:1046200003208DF8020001208DF80300684601F098
:1046300086FE012240F22551E34804F0F0FE0121FC
:10464000E14804F0E0FE05B000BD2DE9FF4104465D
:104650000D4616461F46DDF828800121480603F066
:104660009EFE00208DF80A0001208DF80B0000202E
:104670008DF80C0001208DF80D0000208DF80E0043
:104680008DF80F008DF806808DF807408DF80860D2
:104690008DF80950ADF8047001A9CC4802F05BF91F
:1046A00001220221C94802F0DFFC14208DF800002D
:1046B00001208DF8010000208DF8020001208DF806
:1046C0000300684601F03BFEBDE8FF81F0B585B010
:1046D00007460D46002412200090019000208DF81E
:1046E00008008DF809008DF80A5000BF05E0395D1B
:1046F0000DF10B000155601C84B2AC42F7DB69463A
:10470000B24802F0A1FA0646002401E0601C84B21F
:104710003146AE4802F030FB18B940F6FF708442D3
:10472000F4DB40F6FF70844202DB012005B0F0BDEF
:104730000020FBE730B585B005460021A34802F014
:10474000FBFB10B9002005B030BD6A4600219F4830
:1047500002F06FFB002404E00DF10B00005D285512
:10476000641C082CF8D39DF80A00ECE70EB5042170
:10477000012003F0DBFB4FF4C06001F0DBFD1020F3
:10478000019000208DF808000C208DF80900012010
:104790008DF80A0001A802F0F5FE0A208DF800004D
:1047A00000208DF8010001208DF802008DF8030033
:1047B000684601F0C4FD0EBD0EB50421012003F0D2
:1047C000B5FB4FF4C06001F0B5FD10200190002052
:1047D0008DF808000C208DF8090000208DF80A00E3
:1047E00001A802F0CFFE0A208DF8000000208DF80D
:1047F000010001208DF8020000208DF803006846BA
:1048000001F09DFD0EBD00B585B00121480203F009
:10481000B9FD4FF4004003F019FD6D4801F0F8FDBB
:10482000002000908DF804008DF805004FF4602002
:1048300002900020039001208DF810006946644822
:1048400001F00DFE0121624801F035FE604801F0E3
:1048500054FE00BF5E4801F055FE0028FAD15C48C6
:1048600001F05AFE00BF5A4801F05BFE0028FAD161
:104870000121574801F05FFE05B000BD00B587B0CB
:104880000121880203F07EFD4FF4004003F0DEFCBE
:10489000504801F0BDFD002002908DF80C00012071
:1048A0008DF80D004FF46020049000200590012049
:1048B0008DF8180002A9474801F0D1FD0723012215
:1048C0000921444801F063FE0121424801F0F3FD53
:1048D000404801F012FE00BF3E4801F013FE0028E0
:1048E000FAD13C4801F018FE00BF3A4801F019FE29
:1048F0000028FAD112208DF8040003208DF805005D
:104900008DF8060001208DF8070001A801F017FDC1
:1049100001224FF408712F4801F0E3FD01212D48D9
:1049200001F009FE07B000BDF0B58BB007460C469C
:1049300015461E460121084603F017FD384602F0D1
:10494000E9FC0094019500200290039604908020D9
:104950000590400006908000079020200890C0013C
:10496000099000200A906946384602F075FD012141
:10497000384602F09CFD0BB0F0BD70B50546002432
:1049800005E0601CC4B2C82C01DD002070BD02210E
:10499000114804F0BCFF0028F3D029460E4804F06B
:1049A00063FF002405E0601CC4B2C82C01DD0020B8
:1049B000ECE70121084804F0AAFF0028F3D00648DC
:1049C00004F054FFC0B2E1E7005000400064004032
:1049D00000240140002801400038004000B585B0A7
:1049E0000121880303F0DBFC0020ADF800004FF448
:1049F0008270ADF802000020ADF804000220ADF88E
:104A000006000120ADF808004002ADF80A00382089
:104A1000ADF80C000020ADF80E000720ADF8100036
:104A200069460F4804F04AFE01210D4804F0EBFEF0
:104A3000FF20FFF7A2FF05B000BD10B504460848EF
:104A400000884FF6C771084005490880084600886D
:104A5000204308800121024804F0D5FE10BD00006B
:104A60000038004010B5002807DA0A07140E994AEA
:104A700000F00F031B1FD45403E00A07130E964ADD
:104A8000135410BD00BF7047704710B56FF004009D
:104A900001F09FFC914800689149B0FBF1F0914909
:104AA0000860084600684FF47A7148438E490860F0
:104AB00010BD01468B4A12684A434FF0E0235A6109
:104AC00000229A611A46126942F001021A6100BF7F
:104AD0004FF0E022106900F001021AB100F48032B8
:104AE000002AF5D04FF0E022126922F001024FF0C7
:104AF000E0231A6100229A61704701467A4A1268DF
:104B00004A434FF0E0235A6100229A611A46126923
:104B100042F001021A6100BF4FF0E022106900F07C
:104B200001021AB100F48032002AF5D04FF0E022E1
:104B3000126922F001024FF0E0231A6100229A610B
:104B4000704770B504460D4600BF8021204604F032
:104B500035FD0128F9D12946204604F0C1FC00BFEB
:104B60004021204604F02AFD0128F9D170BD2DE92D
:104B7000F04107460D461646002400BF07E0295DB8
:104B80003846FFF7DEFF0120FFF7B7FF641CB44291
:104B9000F5DBBDE8F0812DE9F04705460F4690466C
:104BA000B5F1006F01D2BDE8F08702F08AFDA5F1F2
:104BB00000694FEA99264FF0006000EB862A5046C4
:104BC00002F0C4FD002406E037F8141005EB4400A1
:104BD00002F0BFFE641C4445F6D302F07EFD00BF28
:104BE000E1E701460888704730B503460C46154694
:104BF000002207E01846FFF7F4FF24F812009B1C80
:104C0000501C82B2AA42F5DB30BD70B50546334870
:104C10000068B0FBF5F4B4F1807F01D3012011E00E
:104C200024F07F40401E4FF0E02148610F214FF0FB
:104C3000FF30FFF717FF00204FF0E02188610720C9
:104C40000861002008B100BFFEE70021481EFFF701
:104C500009FF70BD70B505460C4645F2555003F08E
:104C60009DF9284603F09DF9204603F09DF903F0D5
:104C70009EF903F0A1F970BD10B503F098F910BDCD
:104C800070B504460D464FF48071184803F0E5F8FE
:104C90002A4621461648FFF76AFF4FF480711348F1
:104CA00003F0DDF870BD70B504460D462A46214676
:104CB0001048FFF75CFF70BD10B5AFF23B010E4826
:104CC000FEF7DEFC10BD10B5AFF24B010A48FEF74F
:104CD000ECFC10BD18ED00E000E400E00C01002049
:104CE00000127A00A0010020A40100200008014069
:104CF00000380140005000401802002010B5044662
:104D0000A04710BD10B50446A04710BD70B50446BD
:104D10000D461646A07810B12078012801D0002059
:104D200070BD0020A070052104F10800A847207A7A
:104D30000121B1EBD01F05D13046FFF7DFFF022084
:104D400020700AE0207AC00928B9022020700020D3
:104D50003B49087001E0002020700120E0E72DE9C8
:104D6000F04104468846002500260027207D7F214B
:104D700041EAC010C2B229466D1C04F10800425439
:104D8000207D012810D1267C2846691CCDB204F173
:104D900008010E54208AC0F307262846691CCDB2AC
:104DA00004F108010E540DE0EE262846691CCDB230
:104DB00004F108010E5400BF2846691CCDB204F16D
:104DC00008010E54627D2846691CCDB204F1080129
:104DD0000A54042104F10800FEF709FC074628469E
:104DE000691CCDB204F108010F540120A070BDE888
:104DF000F081024602F0800010B10A700120704775
:104E00000020FCE710B503460C460E492046FFF78C
:104E1000F0FF012805D10B480178D97601201871DF
:104E2000D87010BD012101707047002101707047DA
:104E3000002181700170C180C170017141717047A2
:104E4000A8110020B101002007B586B01220019002
:104E5000FB480068029004208DF80C0000208DF8BB
:104E60000D0008208DF80E000698CDF80F00079869
:104E7000CDF8130001A801F08AF909B000BD07B50B
:104E800086B012200190EF480068029004208DF84F
:104E90000C0000208DF80D0008208DF80E000698FB
:104EA000CDF80F000798CDF8130001A801F06FF9B5
:104EB00009B000BD03B585B012200090E24800683B
:104EC000019004208DF8080000208DF809000420CE
:104ED0008DF80A000598CDF80B00684601F057F9E7
:104EE00007B000BD07B586B012200190D748006812
:104EF000029004208DF80C0000208DF80D00082091
:104F00008DF80E000698CDF80F000798CDF8130025
:104F100001A801F03CF909B000BD07B586B0122028
:104F20000190CB480068029004208DF80C0000200E
:104F30008DF80D0008208DF80E000698CDF80F00B2
:104F40000798CDF8130001A801F021F909B000BDC0
:104F500003B585B012200090BE480068019004207F
:104F60008DF8080000208DF8090004208DF80A0053
:104F70000598CDF80B00684601F009F907B000BDAF
:104F800001B586B012200190B34800680290042059
:104F90008DF80C0000208DF80D0003208DF80E0018
:104FA0009DF818008DF80F009DF819108DF810105D
:104FB0009DF81A108DF8111001A801F0E8F807B05B
:104FC00000BD30B50246002011E00B5C1B1200EB67
:104FD0004004A24D2B5512F8103000EB40042C4435
:104FE00063700B5C00EB40042C44A370401C282829
:104FF000EBDB30BD0246084662F31F2080B27047EB
:1050000010B58CB000249648007800285DD09548F3
:1050100095490A6802604A684260097A0172012073
:1050200092490870924893490A6802604A6842604F
:10503000097A017201208D4948708F488F490A68AA
:105040000260097901710120884948718C488D49B5
:105050000A6802604A684260097A01720120834945
:1050600088708949894802680A6042684A60007A03
:10507000087201207D49C870854886490A68026027
:105080000979017101207949087100BF16E004EB2C
:1050900044007249085C04EB44017F4A505404EB1D
:1050A00044006E490844407804EB440111444870C0
:1050B000FF2004EB440111448870641C282CE6DBBB
:1050C0000020674908700CB010BD6748007A0128BD
:1050D0007DD1724800780128FAD170480078401CD0
:1050E0006E4908705F480178407861F31F2008908E
:1050F0005D480178407861F31F2004905948817819
:10510000C07861F31F20099057488178C07861F317
:105110001F20059053480179407961F31F200A90C0
:1051200051480179407961F31F2006904D488179FB
:10513000C07961F31F200B904B488179C07961F3EE
:105140001F2007906421089890FBF1F000EB80008D
:10515000089908440499884251DB6421089890FB1F
:10516000F1F000EB80000899081A0499884246DCA7
:105170006421099890FBF1F000EB80000999084444
:10518000059988423BDB6421099890FBF1F000EB24
:1051900080000999081A0599884230DC64210A9830
:1051A00090FBF1F000EB80000A99084406998842D0
:1051B00025DB64210A9890FBF1F000EB80000A994E
:1051C000081A069988421ADC64210B9800E034E042
:1051D00090FBF1F000EB80000B990844079988429E
:1051E0000DDB64210B9890FBF1F000EB80000B9934
:1051F000081A0799884202DC1C480078E8B11A486E
:105200000168019141680291007A8DF80C00039ABF
:105210000198FFF719FE88B11249134802680A6025
:1052200042684A60007A08721420FFF766FC00208A
:105230000D4908720D49087038E037E030E0000091
:10524000D0010020D4010020D8010020DC01002082
:10525000E0010020E4010020E8010020A01500206A
:1052600034000020181600207C150020EC010020DE
:105270002116002085150020C8010020BD01002056
:105280002A1600208E1500203316002097150020C6
:10529000C3010020B80100203C160020F2010020CC
:1052A0000120FE490870022000F043FFFC48007A0C
:1052B00001287DD1FB4800780228FAD1F94800780E
:1052C000401CF8490870F8480179407961F31F20C3
:1052D0000890F3480179407961F31F200490F24867
:1052E0008179C07961F31F200990ED488179C079F7
:1052F00061F31F200590EC488178C07861F31F208E
:105300000A90E7488178C07861F31F200690E6484C
:105310000178407861F31F200B90E14801784078D4
:1053200061F31F2007906421089890FBF1F000EBD7
:105330008000089908440499884251DB6421089848
:1053400090FBF1F000EB80000899081A049988425C
:1053500046DC6421099890FBF1F000EB800009998C
:105360000844059988423BDB6421099890FBF1F0E1
:1053700000EB80000999081A0599884230DC642105
:105380000A9890FBF1F000EB80000A990844069916
:10539000884225DB64210A9890FBF1F000EB800045
:1053A0000A99081A069988421ADC64210B9800E0D1
:1053B0003AE090FBF1F000EB80000B99084407996C
:1053C00088420DDB64210B9890FBF1F000EB80002C
:1053D0000B99081A0799884202DCB048407818B344
:1053E000AF480168019141680291007A8DF80C0084
:1053F000039A0198FFF743FD80B1AB48A8490A68BA
:1054000002604A684260097A01721420FFF775FB56
:105410000020A3490872A149487005E001209F4976
:105420004870022000F085FEA048007901285ED176
:105430009C48007803285AD19A480078401C994922
:1054400008709B480178407861F31F2008909748C6
:105450000178407861F31F20049095488178C078E6
:1054600061F31F20099091488178C07861F31F2073
:1054700005906421089890FBF1F000EB80000899FA
:1054800008440499884216DB6421089890FBF1F0E7
:1054900000EB80000899081A049988420BDC0998EF
:1054A0003C300599814206DC09990598884202DB67
:1054B0007A480079A0B17D4903C9CDE90201FFF71F
:1054C000F9FC70B17A4879490A680260097901717A
:1054D0001420FFF712FB0020744908716F4908710E
:1054E00005E001206D490871022000F022FE71489C
:1054F000007A01287DD16B4800780428FAD16948E8
:105500000078401C674908706B480178407861F367
:105510001F20089067480178407861F31F200490AD
:1055200065488178C07861F31F20099061488178CF
:10553000C07861F31F2005905F480179407961F3DD
:105540001F200A905B480179407961F31F20069083
:1055500059488179C07961F31F200B9055488179B2
:10556000C07961F31F2007906421089890FBF1F047
:1055700000EB8000089908440499884251DB6421BB
:10558000089890FBF1F000EB80000899081A049944
:10559000884246DC6421099890FBF1F000EB800022
:1055A00009990844059988423BDB6421099890FBDE
:1055B000F1F000EB80000999081A0599884230DC67
:1055C00064210A9890FBF1F000EB80000A990844EE
:1055D0000699884225DB64210A9890FBF1F000EBE4
:1055E00080000A99081A069988421ADC64210B98EF
:1055F00000E03AE090FBF1F000EB80000B990844EA
:10560000079988420DDB64210B9890FBF1F000EBC9
:1056100080000B99081A0799884202DC1F4880789D
:1056200018B324480168019141680291007A8DF80D
:105630000C00039A0198FFF755FC80B11E481D49E4
:105640000A6802604A684260097A01721420FFF712
:1056500054FA0020174908721049887005E00120AB
:105660000E498870022000F064FD1448007A012879
:105670007ED10C4800780528FAD10A480078401CF1
:10568000084908700E480178407861F31F2008909F
:105690000A480178407861F31F2013E0EC010020F4
:1056A00085150020F201002021160020B8010020FD
:1056B000C30100208E1500202A1600209715002017
:1056C000331600200490FE488178C07861F31F20D3
:1056D0000990FC488178C07861F31F200590F84854
:1056E0000179407961F31F200A90F64801794079E9
:1056F00061F31F200690F2488179C07961F31F2081
:105700000B90F0488179C07961F31F2007906421E4
:10571000089890FBF1F000EB800008990844049988
:10572000884251DB6421089890FBF1F000EB800087
:105730000899081A0499884246DC6421099890FB6C
:10574000F1F000EB800009990844059988423BDBA1
:105750006421099890FBF1F000EB80000999081A88
:105760000599884230DC64210A9890FBF1F000E052
:105770004EE000EB80000A9908440699884223DB3A
:1057800064210A9890FBF1F000EB80000A99081A56
:105790000699884218DC64210B9890FBF1F000EB2D
:1057A00080000B990844079988420DDB64210B980F
:1057B00090FBF1F000EB80000B99081A07998842E2
:1057C00002DCC148C07818B3BE4801680191416845
:1057D0000291007A8DF80C00039A0198FFF79DFB67
:1057E00080B1B749B74802680A6042684A60007AE7
:1057F00008721420FFF781F90020B2490872B249FB
:10580000C87005E00120B049C870022000F091FC8A
:10581000AE480079012843D1AD48007806283FD131
:10582000AB480078401CAA490870AA480078A749EC
:105830000978884214D1A7484078A4494978884219
:105840000ED1A4488078A1498978884208D1A1481E
:10585000C0789E49C978884202D19B484079F8B106
:105860009A480168029100798DF80C00DDE9020187
:10587000FFF76EFB70B1974894490A680260097996
:1058800001711420FFF739F90020904908718E4901
:10589000487105E001208C494871022000F049FC64
:1058A0008D48007888B38A48007807282EDB88481E
:1058B0000078401C8649087008460078C41F282CD0
:1058C00027DA04EB440085490844807804EB44015E
:1058D000834A11448978884206D104EB44007F4909
:1058E00008448078FF2814D104EB44007C49084424
:1058F0000188ADF80C1080788DF80E000398FFF742
:105900003FFB00207449087003E0FFE70120704965
:10591000087000BFFFF7D7BB0FB430B585B00024C7
:1059200000259DF82B00032871D108A8007B0128D1
:105930000CD16C480168029141680391007A8DF89E
:105940001000049A0298FFF77FFA13E108A8007B81
:1059500002280AD15D480168039100798DF8100092
:10596000DDE90301FFF7F4FA04E108A8007B03284E
:105970001BD108A8407B00EB40005949084401882E
:10598000ADF8101080788DF812000498FFF7F8FA3F
:1059900038B9FF2108A8407B00EB40004F4A104473
:1059A00081701420FFF7A9F8E4E008A8007B042820
:1059B0002ED108A8417B807B61F31F20044608A8F4
:1059C000C17B007C61F31F200546282C03DD05B058
:1059D00030BC5DF814FB17E004EB44004049084478
:1059E0000188ADF8101080788DF812000498FFF748
:1059F000C7FA28B9FF2004EB4401384A11448870E3
:105A00001420FFF77AF8641CAC42E5DDB2E046E012
:105A100008A8007B05280CD1334801680291416831
:105A20000391007A8DF81000049A0298FFF75AFA51
:105A3000A0E008A8007B06280CD12248016802914A
:105A400041680391007A8DF81000049A0298FFF7DC
:105A500064FA8FE008A8007B072806D1234903C910
:105A6000CDE90301FFF726FA84E008A8007B0728A8
:105A700014D112200090019004208DF8080000201D
:105A80008DF8090002208DF80A0000208DF80B0027
:105A900001218DF80C10684600F079FB6AE09DF852
:105AA0002B00062866D108A8007B012822D108A86F
:105AB000C17B427B807B62F31F200D4A115459E069
:105AC0003316002097150020EC010020BD010020B6
:105AD000F2010020C8010020C20100203C16002075
:105AE000A01500207C1500208E150020B801002094
:105AF0005010002008A8007B022805D10120704921
:105B000008707049087135E008A8007B032804D1AB
:105B100008A8407B6C4948702CE008A8007B04284A
:105B200009D16848C07F08A94A7B01219140884378
:105B30006449C8771EE008A8007B05280BD161489E
:105B400090F8200008A94A7B0121914088435D49D3
:105B500081F820000EE008A8007B07280AD15948E8
:105B600090F8200008A94A7B0121914088435549BB
:105B700081F8200000BF2AE70120544908715449E8
:105B800008715449087254490872544908725449BA
:105B90000872704700B55348008B001250490870D6
:105BA0005048007E48704F48408B001288704D4826
:105BB000807EC8704B48808B001208714948007F76
:105BC00048714848C08B001288714648807FC87170
:105BD0004448008C001241490870424890F8200067
:105BE00048704048408C001288703E4890F822006F
:105BF000C8703C48808C001208713A4890F8240024
:105C000048713848C08C00128871364890F82600D8
:105C1000C8713448408800122F4908703148807894
:105C2000487030488089001288702E48007BC87008
:105C30002C48408A001208712A48807C4871294803
:105C40004089001288712748807AC8712548808A67
:105C50000012204908702348007D48702148C08AFE
:105C6000001288701F48807DC8700020087148713C
:105C70001C484089001288711A48807AC871002037
:105C80001349087048700F48808A000A88700D48D0
:105C9000007DC87014480088000A0C49087012483A
:105CA000007808700748007B001288700548007B68
:105CB000C8700E490E48FFF784F9FFF75DFF00BD7D
:105CC00034000020841100209C000020BD01002031
:105CD000B8010020851500207C15002097150020B4
:105CE0008E1500204A1100207C000020501000205A
:105CF0005C0E002010B50021837A012202FA03F124
:105D0000FA4A126842F00102F84B1A60F74A1C3254
:105D100012688A43F54B1C331A60027BCAB9F34AF6
:105D20000C3212688A43F14B0C331A604288C388E4
:105D300042EA0343ED4A4032847A42F83430028822
:105D4000838842EA0343E94A4032847A02EBC40280
:105D50005360027B012A19D1E44A0C3212680A43CB
:105D6000E24B0C331A604288038842EA0343DF4A5D
:105D70004032847A42F83430C288838842EA03434E
:105D8000DA4A4032847A02EBC4025360C27A3AB9EA
:105D9000D64A121D12688A43D44B1B1D1A6006E0B6
:105DA000D24A121D12680A43D04B1B1D1A60028989
:105DB00032B9CE4A143212688A43CC4B14331A607B
:105DC0000289012A06D1C94A143212680A43C74B14
:105DD00014331A60427B012A06D1C44A1C3212686D
:105DE0000A43C24B1C331A60C04A126822F00102F7
:105DF000BE4B1A6010BD2DE9F0418AB004460D4635
:105E000016461F46DDF840800121042002F0BAFA50
:105E10000121480602F0C3FA4FF48050ADF8240087
:105E200003208DF8260018208DF8270009A9B04816
:105E300001F066FF4FF40060ADF8240048208DF8B3
:105E4000270009A9AA4801F05BFF00208DF81E0079
:105E500001208DF81F0000208DF8200001208DF812
:105E6000210000208DF8220001208DF823008DF8FC
:105E70001A808DF81B408DF81C608DF81D50ADF810
:105E8000187006A99B4800F066FD00208DF81200EE
:105E90008DF8130001208DF814000020ADF80800E3
:105EA000ADF80A00ADF80C00ADF80E00ADF810002A
:105EB00001208DF8150002A800F0D7FD0122022173
:105EC0008C4801F0D1F814208DF8040001208DF8E1
:105ED000050000208DF8060001208DF8070001A8BC
:105EE00000F02DFA16208DF8040001208DF8050031
:105EF00000208DF8060001208DF8070001A800F0B1
:105F00001EFA012202217B4801F0AEF800200AB0FF
:105F1000BDE8F0810FB470B5002404A9754800F005
:105F200093FE054601E0601C84B22946714800F0EA
:105F300023FF18B940F6FF708442F4DB40F6FF708F
:105F4000844203DB012070BC5DF814FB0020FAE7FB
:105F50002DE9F0418AB004460D4616461F46DDF88D
:105F600040800121082002F00DFA0121880602F08C
:105F700016FA4FF40050ADF8240003208DF82600E7
:105F800018208DF8270009A95B4801F0B9FE4FF4ED
:105F90008050ADF8240048208DF8270009A9564804
:105FA00001F0AEFE00208DF81E0001208DF81F00CC
:105FB00000208DF8200001208DF8210000208DF8B0
:105FC000220001208DF823008DF81A808DF81B40E7
:105FD0008DF81C608DF81D50ADF8187006A9474863
:105FE00000F0B9FC01208DF8120000208DF813009C
:105FF00001208DF814000020ADF80800ADF80A006B
:10600000ADF80C00ADF80E000120ADF810008DF8D1
:10601000150002A8FFF76EFE3F208DF80400012056
:106020008DF805008DF806008DF8070001A800F036
:1060300086F901221021314801F016F800200AB03B
:10604000BDE8F0810FB470B5002404A92B4800F01E
:10605000FBFD054601E0601C84B22946274800F09C
:106060008BFE18B940F6FF708442F4DB40F6FF70F7
:10607000844203DB012070BC5DF814FB0020FAE7CA
:1060800030B587B000241EA103C9CDE90501122057
:1060900000901D480068019004208DF80800002041
:1060A0008DF8090008208DF80A00082404E005A8EE
:1060B000015D09380155641E002CF8DA69460F4865
:1060C00000F0C2FD054600E0641C29460B4800F0C4
:1060D00053FE18B940F6FF708442F5DB002400251A
:1060E0006946044800F0B0FD054610E0006A004033
:1060F0000008014000640040000C014000680040BE
:106100001212121212121212FC010020641C2946F3
:10611000814800F031FE18B940F6FF708442F5DB8B
:1061200040F6FF70844202DB012007B030BD002042
:10613000FBE738B504466425012078490870082C2F
:1061400013D2DFE804F0120406080A0C0E10C8256A
:106150000DE064250BE0282509E0142507E00A2559
:1061600005E0042503E0022501E0C82500BF00BFCB
:1061700000202B46082207210090FFF73CFE00205C
:106180002B46082207210090FFF7E2FE38BD70B5CC
:10619000054600241220286004202872002068721E
:1061A00029465D4800F050FD064601E0601C84B2BF
:1061B0003146594800F0E0FD18B940F6FF708442BE
:1061C000F4DB40F6FF70844201DB002070BD002448
:1061D0002946534800F038FD064601E0601C84B2B1
:1061E00031464F4800F0C8FD18B940F6FF708442B0
:1061F000F4DB40F6FF70844201DB0020E6E701207B
:10620000E4E700B58BB006AA0021434800F011FE78
:106210000421414801F02BF89DF82000042801D00A
:106220000BB000BD142206A901A803F0A7FB059836
:10623000009001A80FC8FFF705FF032207A93948FE
:1062400003F0C0FB58B906A8417B9DF82320007BD2
:1062500062F31F2000EB4000334A104481700A981B
:10626000009006A80FC8FFF757FB00BFD8E700B59E
:106270008BB006AA01212A4800F0DBFD2021284826
:1062800000F0F5FF9DF82000042801D00BB000BD00
:10629000142206A901A803F071FB079880B2CB284D
:1062A00002D1079880B228B90598009001A80FC8BC
:1062B000FFF730FE032207A91A4803F083FB58B901
:1062C00006A8417B9DF82320007B62F31F2000EB92
:1062D0004000154A104481700A98009006A80FC823
:1062E000FFF71AFB00BFD1E710B501210F4802F0FC
:1062F000A6FF80B101210D4802F0B2FF0C480168F1
:106300000068401C0A4A1060012904DBFFF7B8FE50
:1063100000200749086010BD0064004034000020E0
:1063200000680040E80100203C160020002C0140DD
:106330000002002031490143314A1160704770B5B5
:10634000002100230F22C47804B32D4C246804F4E8
:10635000E064C4F5E064210AC1F10403CA40447852
:1063600004FA03F18478144021430901254C06788E
:10637000A155047804F01F050124AC4005786D1187
:10638000AD0005F1E025C5F8004109E0047804F00E
:106390001F050124AC401C4D0678761145F82640B7
:1063A00070BD1A4A0A400243154B1B1F1A60704702
:1063B00039B1134A121D12680243114B1B1D1A609A
:1063C00006E00F4A121D126882430D4B1B1D1A6016
:1063D0007047042808D14FF0E021096941F0040119
:1063E0004FF0E022116107E04FF0E021096921F050
:1063F00004014FF0E0221161704700000000FA052F
:106400000CED00E000E400E080E100E080FFFF1F11
:1064100010B50446FA48844208D10121401501F024
:10642000CBFF0021601501F0C7FF17E0F54884425B
:1064300008D10121001501F0BFFF0021201501F056
:10644000BBFF0BE0F048844208D10121C80301F0F2
:10645000B3FF00214FF4004001F0AEFF10BD30B596
:106460000246002000235068E84C20400D790C685B
:1064700044EA0524204350609068E54C2040D1E96F
:1064800002542C434D7944EA450420439060D06A7D
:1064900020F470000C7C641EE4B2234340EA0350F5
:1064A000D06230BD00210160017141718160C16025
:1064B00001210174704721B1826842F001028260BB
:1064C00003E0826822F001028260704721B1826895
:1064D00042F48072826003E0826822F480728260FB
:1064E000704710B50023CBB21AB144681C43446016
:1064F00002E044689C43446010BD816841F008019B
:1065000081607047014600208A6802F008020AB1E3
:10651000012000E000207047816841F004018160A3
:106520007047014600208A6802F004020AB1012087
:1065300000E00020704721B1826842F4A00282602E
:1065400003E0826822F4A0028260704701460020C6
:106550008A6802F480020AB1012000E0002070473E
:1065600010B50A4600210023416821F46041531E02
:1065700041EA4331416010BD21B1426842F40062FA
:10658000426003E0426822F4006242607047F0B566
:1065900004460D4600200021092D11DDE068A5F11B
:1065A0000A0606EB4607072606FA07F18843A5F117
:1065B0000A0606EB460603FA06F10843E0600CE023
:1065C000206905EB4507072606FA07F1884305EB26
:1065D000450603FA06F108432061072A0FDA606BCB
:1065E000561E06EB86071F2606FA07F18843561E3D
:1065F00006EB860605FA06F10843606322E00D2AE1
:106600000FDA206BD61F06EB86071F2606FA07F166
:106610008843D61F06EB860605FA06F10843206379
:1066200010E0E06AA2F10D0606EB86071F2606FAC7
:1066300007F18843A2F10D0606EB860605FA06F17E
:106640000843E062F0BD21B1826842F480128260AA
:1066500003E0826822F48012826070470146C86CB1
:1066600080B2704766484C300068704721B142687C
:1066700042F48062426003E0426822F48062426039
:10668000704721B1426842F48052426003E04268A0
:1066900022F48052426070470A460021816821F44A
:1066A000E04111438160704721B1826842F40042A9
:1066B000826003E0826822F400428260704721B168
:1066C000826842F40212826003E0826822F40212BD
:1066D00082607047014600208A6802F400120AB105
:1066E000012000E000207047F0B504461546002068
:1066F00000220026092911DDE068A1F10A0707EB55
:10670000470C072707FA0CF29043A1F10A0707EBA1
:10671000470703FA07F21043E0600CE0206901EB41
:10672000410C072707FA0CF2904301EB410703FAEB
:1067300007F210432061A06BC0F30156EF1C06F175
:10674000010CA7EB0C0707EB870C1F2707FA0CF2CD
:106750009043EF1C06F1010CA7EB0C0707EB870732
:1067600001FA07F21043A063F0BD10B50A460021FC
:106770000023816B21F44011531E41EA03518163D0
:1067800010BD08B5002300930090009B0B440093BC
:10679000009B1A6008BD08B50246002000900092D8
:1067A00001F12800009B184400900098006880B216
:1067B00008BD0A4600214168164B1940114341604B
:1067C00070474162826270470A460021416821F0A9
:1067D0001F0111434160704740B109490831096800
:1067E00041F40001064A0832116007E0044908310B
:1067F000096821F40001024A083211607047000064
:106800000024014000280140003C0140FFFEF0FF51
:10681000FDF7F1FFFFFD3FFF0246002013680B402C
:106820000BB1012000E000207047CA4302607047AE
:1068300070B502460020002300240B125568CEB22A
:1068400005EA060415681D4015B10CB1012000E0F1
:10685000002070BD00220A12D3430360704700007D
:1068600010B5012001F0C2FD002001F0BFFD10BDF8
:106870002A49086070472949091F0860704727495D
:1068800084310860704701460020254A10884FF681
:106890007F4210400843224A108070470146002082
:1068A0001F4A10884FF68072104008431C4A10801F
:1068B000704708B500220092194A2C3A0092009ABB
:1068C00002440092009A116008BD08B501460020FC
:1068D000009013482C3800900098084400900098CD
:1068E000008808BD0D489C300068C0B270470C4855
:1068F0000830008840F001000949083108807047DD
:106900000648A0300068C0B27047054808300088CB
:1069100040F00200024908310880704704860D42A9
:106920002C6C004010B50446FE48844209D1012178
:10693000480601F04EFD00214FF0007001F049FDC6
:1069400008E00121880601F044FD00214FF080603D
:1069500001F03FFD10BD30B5024600200023146851
:1069600024F002041460146844F00104146000E090
:106970005B1C546804F001041CB94FF6FF74A34279
:10698000F6D1546804F001040CB900206CE08C7955
:10699000012C04D1146844F08004146003E01468EE
:1069A00024F080041460CC79012C04D1146844F0E4
:1069B0004004146003E0146824F0400414600C7A6E
:1069C000012C04D1146844F02004146003E014681E
:1069D00024F0200414604C7A012C04D1146844F093
:1069E0001004146003E0146824F0100414608C7A1E
:1069F000012C04D1146844F00804146003E0146806
:106A000024F008041460CC7A012C04D1146844F0FA
:106A10000404146003E0146824F0040414608C7807
:106A2000A407CD7844EA05640D7944EA05444D791C
:106A300044EA05540D886D1E2C43D461146824F07B
:106A400001041460002300E05B1C546804F001049E
:106A50001CB14FF6FF74A342F6D1546804F0010450
:106A60000CB1002000E0012030BD10B50021837A78
:106A7000012202FA03F1AC4A126842F00102AA4B69
:106A80001A60A94A1C3212688A43A74B1C331A6049
:106A9000027BCAB9A44A0C3212688A43A24B0C3357
:106AA0001A604288C38842EA03439F4A4032847A8C
:106AB00042F834300288838842EA03439A4A4032DB
:106AC000847A02EBC4025360027B012A19D1964AF0
:106AD0000C3212680A43944B0C331A6042880388C4
:106AE00042EA0343904A4032847A42F83430C28802
:106AF000838842EA03438C4A4032847A02EBC40220
:106B00005360C27A3AB9884A121D12688A43864B8A
:106B10001B1D1A6006E0844A121D12680A43824B4C
:106B20001B1D1A60028932B97F4A143212688A43E7
:106B30007D4B14331A600289012A06D17A4A143235
:106B400012680A43784B14331A60427B012A06D13B
:106B5000754A1C3212680A43734B1C331A60724A1E
:106B6000126822F00102704B1A6010BD0021817181
:106B7000C171017241728172C1728170C170032151
:106B80000171022141710121018070476649096844
:106B900041F00101644A11601146096843F60E7222
:106BA0009143614A11601146096841EA0021116070
:106BB0001146096821F001011160704721B1026896
:106BC00042F48032026003E0026822F48032026004
:106BD0007047E1B1026842F0800202604FF4C27275
:106BE000125842F480734FF4C27213504FF4CA72B9
:106BF000125842F480734FF4CA7213504FF4D27299
:106C0000125842F480734FF4D27213501BE00268A2
:106C100022F0800202604FF4C272125822F4807394
:106C20004FF4C27213504FF4CA72125822F4807398
:106C30004FF4CA7213504FF4D272125822F4807378
:106C40004FF4D2721350704710B50246002093687B
:106C500003F08063B3F1806F00D110E0936803F01C
:106C60000063B3F1006F01D1012008E0936803F0E5
:106C70008053B3F1805F01D1022000E0042004289A
:106C800079D002F5C07303EB00131B6803F0010415
:106C900002F5C07303EB00131C600B7A7BB94B7ACF
:106CA0000C8843EA445302F5C07404EB00142468D2
:106CB000234302F5C07404EB0014236010E00B7A48
:106CC0004C6843EAC4034C7A234302F5C07404EBD6
:106CD00000142468234302F5C07404EB00142360FD
:106CE0008B7A03F00F038B7202F5C07303EB001372
:106CF0005B6823F00F0402F5C07303EB00135C60C4
:106D000002F5C07303EB00135B688C7A234302F532
:106D1000C07404EB001463608B7B1C064B7B44EA5D
:106D2000034403E000640040006600400B7B44EA3B
:106D30000323CC7A234302F5C07404EB0014A36050
:106D40008B7C1C064B7C44EA03440B7C44EA032303
:106D5000CC7B234302F5C07404EB0014E36002F51E
:106D6000C07303EB00131B6843F0010402F5C0730A
:106D700003EB00131C6010BD10B50246002321B1C7
:106D8000012907D002290FD109E09068F94C00EAE7
:106D900004030BE09068F84C00EA040306E09068F6
:106DA000F64C00EA040301E0002300BF00BFF44CEE
:106DB000181BA34216D007DC83B16FF08060184423
:106DC00070B1022818D111E0B0F5007F10D0ED4C61
:106DD000204448B1B0F5003F0ED10BE002230DE096
:106DE00000230BE0002309E0002307E0012305E076
:106DF000012303E0012301E0002300BF00BFD8B25C
:106E000010BD21B1012907D002290FD109E0826804
:106E100042F0800282600AE0826842F400428260AE
:106E200005E0826842F40002826000E000BF00BF1B
:106E3000704710B500F5D87303EB01131B6803F01E
:106E400004031372137A53B900F5D87303EB0113DB
:106E50001B6840F2FF7404EA5353136009E000F525
:106E6000D87303EB01131B686FF0604404EAD3038B
:106E7000536000F5D87303EB01131B6803F00203A2
:106E8000537200F5D87303EB01135B6803F00F0333
:106E9000937200F5D87303EB01135B681B0AD3747C
:106EA00000F5D87303EB01139B68D37200F5D87318
:106EB00003EB01139B681C0A147300F5D87303EBF2
:106EC00001139B681C0C547300F5D87303EB01137A
:106ED0009B681B0E937300F5D87303EB0113DB68FB
:106EE000D37300F5D87303EB0113DB681C0A147429
:106EF00000F5D87303EB0113DB681C0C547400F528
:106F0000D87303EB0113DB681B0E937421B9C368BC
:106F100043F02003C36003E0036943F020030361EF
:106F200010BD21B9C26842F02002C26003E00269CC
:106F300042F02002026170470246002019B9D3686E
:106F400003F0030006E0012903D1136903F00300F5
:106F500000E00020704710B502460B4600204FF6B7
:106F6000FF71BBB9146824F0020444F001041460FA
:106F700000E0491E546804F00304012C01D00029EC
:106F8000F7D1546804F00304012C01D0002032E052
:106F9000012030E0012B13D1146824F003041460A5
:106FA00000E0491E546804F003040CB10029F8D134
:106FB000546804F003040CB100201CE001201AE026
:106FC000022B17D1146824F0010444F00204146069
:106FD00000E0491E546804F00304022C01D000298B
:106FE000F7D1546804F00304022C01D0002002E021
:106FF000012000E0002010BD014600200A6822F0B8
:10700000010242F002020A604A6802F00302022A08
:1070100000D10120704701464FF6FF7200200B6837
:1070200023F002030B6000E0521E4B6803F00203E2
:10703000022B01D1002AF7D14B6803F00203022B87
:1070400000D001207047014600208A6902F07000DC
:107050007047014600208A69100E704701460020E3
:107060008A69C2F3074070471AB143690B43436111
:1070700002E043698B434361704710B5024600202C
:1070800001F4700343B19369C1F3130423400BB1BE
:1070900001202DE000202BE001F0807343B1536804
:1070A000C1F3130423400BB1012021E000201FE0B5
:1070B00001F0006343B19368C1F3130423400BB1A3
:1070C000012015E0002013E001F0007343B1D36804
:1070D000C1F3130423400BB1012009E0002007E0B5
:1070E0001369C1F3130423400BB1012000E0002019
:1070F00010BD0022244B994202D10023836111E08C
:10710000C1F3130201F000730BB1C2600AE001F099
:1071100080630BB1026105E001F000630BB1826096
:1071200000E0426070470246002002EA01030BB112
:10713000012000E00020704770B504460D4600268F
:1071400060692840002872D0B5F5807F69D01DDCC9
:10715000082D42D006DC012D2DD0022D31D0042D7A
:107160007FD134E0102D3ED0202D42D0402D78D15B
:1071700045E00000030000040003000800000310C5
:10718000000100080001FFF77000F030B5F5004F76
:1071900061D009DCB5F5007F4AD0B5F5806F4DD0E0
:1071A000B5F5006F5DD150E0B5F5803F2DD0B5F558
:1071B000003F56D12FE0A0685549FFF7B4FF0646BF
:1071C00051E0E0680321FFF7AEFF06464BE0E068C0
:1071D0000821FFF7A8FF064645E0E0681021FFF709
:1071E000A2FF06463FE020690321FFF79CFF064609
:1071F00039E020690821FFF796FF064633E0206951
:107200001021FFF790FF06462DE060680821FFF788
:107210008AFF064627E060681021FFF784FF0646D4
:1072200021E0A0690121FFF77EFF06461BE01BE07D
:10723000A0690221FFF777FF064614E0A069042148
:10724000FFF771FF06460EE00BE0A0697021FFF723
:107250006AFF064607E060680421FFF764FF064600
:1072600001E0002600BF00E00026304670BDB1F509
:10727000007F3AD00FDC202928D006DC01291CD061
:1072800004291DD0082940D11DE0402921D0B1F5A5
:10729000807F3AD126E0B1F5004F31D006DCB1F560
:1072A000806F25D0B1F5006F2FD124E0B1F5803F7C
:1072B00012D0B1F5003F28D111E0154A826025E0D7
:1072C0000822C26022E01022C2601FE00822026190
:1072D0001CE01022026119E00822426016E0102230
:1072E000426013E00422426010E0042242600DE09C
:1072F000042242600AE0002282610422426005E02A
:10730000002282610422426000E000BF00BF70479B
:107310000101010001684FF6FE7211400160002179
:10732000016041608160C1608D49884208D18C490B
:107330000839496841F00F01894A083A51608AE0EA
:1073400087491431884208D185490839496841F094
:10735000F001834A083A51607DE081492831884232
:1073600008D17F490839496841F470617C4A083A7C
:10737000516070E07A493C31884208D17849083937
:10738000496841F47041764A083A516063E07449B3
:107390005031884208D172490839496841F4702156
:1073A0006F4A083A516056E06D496431884208D10D
:1073B0006B490839496841F47001694A083A5160DB
:1073C00049E067497831884208D1654908394968F8
:1073D00041F07061624A083A51603CE0614988427C
:1073E00006D1011F096841F00F01021F116032E050
:1073F0005C491431884208D15A49091F096841F093
:10740000F001584A121F116025E056492831884280
:1074100008D15449091F096841F47061514A121F8B
:10742000116018E04F493C31884208D14D49091F8D
:10743000096841F470414B4A121F11600BE0494941
:107440005031884207D14749091F096841F470212A
:10745000444A121F1160704710B50022026847F6B7
:10746000F0739A430C6A8B6823430C6923434C697D
:1074700023438C692343CC6923434C6A23438C6A9E
:1074800023431A430260CB6843600B6883604B68F8
:10749000C36010BD0021016041608160C160016175
:1074A00041618161C161016241628162704721B1C4
:1074B000026842F00102026004E002684FF6FE73C7
:1074C0001A40026070471AB103680B43036002E080
:1074D00003688B430360704741607047014648680A
:1074E00080B2704701460020002201F080531BB19A
:1074F0001C4B083B1A6802E0194B083B1A6802EA69
:1075000001030BB1012000E00020704700F0805122
:1075100019B11449091F086002E01149083948608F
:10752000704701460020002201F080531BB10D4B33
:10753000083B1A6802E00A4B083B1A6802EA01039A
:107540000BB1012000E00020704700F0805119B11C
:107550000449091F086002E0014908394860704782
:107560000800024008040240002044490860091D48
:107570000860091D0860091D086041483F49143131
:107580000860704700213D498279002A3AD00A46B6
:10759000126803689A430B461A600A1D1268036852
:1075A0009A430B1D1A60027911440A6803681A4352
:1075B0000A60324A0832126803689A432F4B083334
:1075C0001A601A1D126803689A432C4B0C331A6018
:1075D0004279102A0ED11A1F126803681A43274BEA
:1075E00008331A601A1D126803681A43234B0C33C0
:1075F0001A600DE02149427911440A6803681A4370
:107600000A6005E0027911440A6803689A430A6037
:1076100070470021016001710C21417100218171CD
:1076200070471649103109680143144A103211603D
:10763000704701460020114A143212680A400AB10C
:10764000012000E0002070470C49143108607047A9
:10765000014600200022094B1B6803EA0102074B88
:1076600014331B680B4013B10AB1012000E0002065
:10767000704702491431086070470000000401405F
:10768000FFFF0F0001460020FE4A106800F038009E
:10769000084310607047FB49096821F00801F94A66
:1076A000116011460968014311607047F549096886
:1076B00021F01001F34A116011460968014311607D
:1076C0007047F148EF494860F04848607047EE481D
:1076D000EC494860ED4848607047EA48006940F06E
:1076E0008000E84908617047E648006940F0800082
:1076F000E449086170470420E249C96801F00101CA
:1077000009B101200EE0DF49C96801F0040109B1A7
:10771000022007E0DB49C96801F0100109B103202C
:1077200000E00420704700B502460423FFF7E3FFA2
:10773000034603E0FFF7DFFF0346521E012B01D192
:10774000002AF7D102B90523184600BD30B504461A
:1077500004254FF43020FFF7E6FF0546042D17D12E
:10776000C848006940F00200C64908610846446103
:10777000006940F0400008614FF43020FFF7D3FF6C
:107780000546C048006941F6FD710840BD490861E1
:10779000284630BD10B504244FF43020FFF7C3FF56
:1077A0000446042C16D1B748006940F00400B549DE
:1077B00008610846006940F0400008614FF430203D
:1077C000FFF7B1FF0446AF48006941F6FB7108407E
:1077D000AC490861204610BD00B502460423FFF7FE
:1077E0008AFF034603E0FFF786FF0346521E012B84
:1077F00001D1002AF7D102B90523184600BD10B502
:1078000004244FF43020FFF7E7FF0446042C16D180
:107810009C48006940F004009A49086108460069E4
:1078200040F0400008614FF43020FFF7D5FF0446D8
:107830009448006941F6FB7108409249086120466E
:1078400010BD00208F49C96901F0020109B1012072
:1078500000E00020704730B5A5250424FFF7F1FFB4
:1078600000B100254FF43020FFF75DFF0446042CE3
:107870003AD1854883498860844888600846006911
:1078800040F0200008610846006940F040000861AF
:107890004FF43020FFF747FF0446042C1BD17948F2
:1078A000006941F6DF7108407649086108460069C1
:1078B00040F01000086176480580E002FFF733FFD2
:1078C0000446052C10D06F48006941F6EF7108405E
:1078D0006C49086108E0052C06D06A48006941F649
:1078E000EF71084067490861204630BD78B506460B
:1078F0000C46042500200090E802FFF714FF05461F
:10790000042D24D15F48006940F001005D49086101
:107910003480E802FFF707FF0546042D10D1B01CA4
:107920000090200C00990880E802FFF7FCFE054655
:107930005448006941F6FE7108405249086106E06A
:107940005048006941F6FE7108404E4908612846DA
:1079500078BD70B504460D460426F002FFF7E3FE3D
:107960000646042E11D14748006940F00100454900
:1079700008612580F002FFF7D6FE064641480069FF
:1079800041F6FE7108403F490861304670BD70B550
:1079900005460E460424E002FFF7C5FE0446042C0B
:1079A00017D13948374988603848886008460069E7
:1079B00040F0100008612E80E002FFF7B4FE04469C
:1079C000052C06D02F48006941F6EF7108402D497B
:1079D0000861204670BD2DE9F04304464FF6FF765E
:1079E0003746B046B1460425E443E6B2C4F3072760
:1079F000C4F307484FEA1469E802FFF794FE05460E
:107A0000042D49D120481F498860204888600846D5
:107A1000006940F010000861FF2E06D01C480830B5
:107A20000680E802FFF77FFE0546042D08D1FF2FF0
:107A300006D017480A300780E802FFF774FE0546B3
:107A4000042D0AD1B8F1FF0F07D011480C30A0F86F
:107A50000080E802FFF767FE0546042D0AD1B9F160
:107A6000FF0F07D00A480E30A0F80090E802FFF799
:107A70005AFE0546052D0FD00248006941F6EF7108
:107A8000084007E00020024023016745AB89EFCDA5
:107A900000F8FF1F664908612846BDE8F08330B54D
:107AA000054604244FF43020FFF73DFE0446042C25
:107AB00041D160485E4988605F4888600846006937
:107AC00040F0200008610846006940F0400008616D
:107AD0004FF43020FFF727FE0446042C22D15448EF
:107AE000006941F6DF7108405149086108460069A4
:107AF00040F0100008611DB100205049088002E0EC
:107B0000A5204E4908804FF43020FFF70CFE0446B4
:107B1000052C10D04648006941F6EF7108404449F1
:107B2000086108E0052C06D04148006941F6DF7184
:107B300008403F490861204630BDF0B505460E4675
:107B4000174604243B483A4988603B488860E00275
:107B5000FFF7E9FD0446042C19D13548006940F0CF
:107B600010003349086147F0F80030432843334997
:107B7000891C0880E002FFF7D6FD0446052C06D0DC
:107B80002B48006941F6EF710840294908612046F9
:107B9000F0BD2748C069800870472548006A7047D3
:107BA00000202349096801F0200109B1012000E00B
:107BB0000020704729B11E4A126902431C4B1A610A
:107BC00004E01B4A12698243194B1A61704701464F
:107BD0000020012908D1164AD26902F001020AB137
:107BE000012008E0002006E0114AD2680A400AB1EC
:107BF000012000E0002070470D49C8607047042054
:107C00000B49C96801F0010109B101200EE00849E2
:107C1000C96801F0040109B1022007E00449C968FC
:107C200001F0100109B1032000E0042070470000BA
:107C30000020024023016745AB89EFCD00F8FF1F0C
:107C400010B50446CC48844208D10121042000F03C
:107C5000B3FB0021042000F0AFFB46E0C74884429C
:107C600008D10121082000F0A7FB0021082000F026
:107C7000A3FB3AE0C248844208D10121102000F061
:107C80009BFB0021102000F097FB2EE0BD488442B2
:107C900008D10121202000F08FFB0021202000F0DE
:107CA0008BFB22E0B848844208D10121402000F03B
:107CB00083FB0021402000F07FFB16E0B3488442A4
:107CC00008D10121802000F077FB0021802000F006
:107CD00073FB0AE0AE48844207D10121801500F011
:107CE0006BFB0021A01500F067FB10BD10B5012152
:107CF000084600F061FB0021012000F05DFB10BD93
:107D00002DE9F04102460025002600200023002432
:107D1000002791F803C00CF00F0591F803C00CF098
:107D2000100CBCF1000F03D091F802C04CEA05051D
:107D300091F800C0BCF1000F31D0146800202BE096
:107D40004FF0010C0CFA00F3B1F800C00CEA030686
:107D50009E4220D183004FF00F0C0CFA03F7BC4376
:107D600005FA03FC4CEA040491F803C0BCF1280FA7
:107D700006D14FF0010C0CFA00FCC2F814C00AE066
:107D800091F803C0BCF1480F05D14FF0010C0CFA7B
:107D900000FCC2F810C0401C0828D1D31460B1F810
:107DA00000C0BCF1FF0F34DD546800202EE000F16C
:107DB000080C4FF0010808FA0CF3B1F800C00CEA07
:107DC00003069E4221D183004FF00F0C0CFA03F7FB
:107DD000BC4305FA03FC4CEA040491F803C0BCF16F
:107DE000280F05D100F1080C08FA0CF8C2F814802D
:107DF00091F803C0BCF1480F07D100F1080C4FF017
:107E0000010808FA0CF8C2F81080401C0828CED3EC
:107E10005460BDE8F0814FF6FF710180022181704E
:107E20000421C17070470246002093680B400BB1DB
:107E3000012000E0002070470146886880B270474A
:107E400002460020D3680B400BB1012000E0002067
:107E500070470146C86880B2704701617047416150
:107E600070470AB1016100E041617047C16070472D
:107E70004FF480320A438261816182618269826942
:107E8000704702460020434B18684FF68073184035
:107E900040EA021008433F4B186070473E49C861F2
:107EA0007047F0B50A46002300240021002500F0A9
:107EB0000046B6F1004F02D1364EF16901E0354E71
:107EC0007168C0F3034583B200F44016B6F5401F55
:107ED00008D121F070612F4E766826F070662D4F24
:107EE0007E6012E000F48016B6F5801F06D10326EE
:107EF00006FA05F4A14341F0706106E0460D360133
:107F000003FA06F6B14341F0706122B1460D360125
:107F100003FA06F6314300F00046B6F1004F02D1F5
:107F20001C4EF16101E01B4E7160F0BD30B50022C6
:107F30008B071C0F0F2303FA04F2164B08338C1027
:107F400053F824309343134C08348D1044F82530F3
:107F500023468C1053F824308C07240F00FA04F4C5
:107F600023430C4C08348D1044F8253030BD0A49A9
:107F7000DC3108607047000000080140000C01403F
:107F8000001001400014014000180140001C014095
:107F90000020014000000140000020420E4908601E
:107FA00070470D49486070470B49886070474AF632
:107FB000AA200949086070474CF6CC400649086081
:107FC000704701460020044AD2680A400AB10120E5
:107FD00000E00020704700000030004010B5012193
:107FE000080700F0F6F900214FF0805000F0F1F999
:107FF00010BD2A4908627047284908617047014648
:108000000020274A106820F0E00008431060704705
:108010002249A0310860704710B502460020204B6D
:10802000186820F00300104318601E4B1B6843F0D3
:1080300004031C4C2360012901D130BF00E020BFA4
:10804000184B1B6823F00403164C236010BD144822
:10805000006840F00400124908600846006840F0DB
:10806000020008600F48006840F004000D490860F5
:1080700000BF00BF30BF704701460020084A526869
:108080000A400AB1012000E0002070470449096855
:1080900041EA8001024A11607047000000000E4270
:1080A0000070004010ED00E0DF48006840F0010083
:1080B000DD49086008464068DC490840DA49486004
:1080C00008460068DA490840D74908600846006851
:1080D00020F4802008600846406820F4FE004860D4
:1080E0004FF41F0088607047CF49096821F4803140
:1080F000CD4A11601146096821F480211160B0F564
:10810000803F03D0B0F5802F0ED106E0C649096844
:1081100041F48031C44A116007E0C349096841F461
:10812000A021C14A116000E000BF00BF704710B538
:1081300001460022002300204A11012A02D1BA4C34
:10814000236806E0022A02D1B74C236A01E0B64C4C
:10815000636A01F01F02012494401C400CB101200D
:1081600000E0002010BD38B500200090002400255C
:1081700000BF3120FFF7DBFF05460098401C009050
:108180000098B0F5A06F01D0002DF2D03120FFF79C
:10819000CEFF08B1012400E00024204638BD01468E
:1081A0000020A14A106820F0F80040EAC1001060E9
:1081B0007047A04908607047024600209A4B5868F3
:1081C00020F47C1042EA01031843974B5860704733
:1081D00098490866704701460020934A506820F08D
:1081E00003000843506070478F48406800F00C005F
:1081F0007047014600208C4A506820F0F000084388
:108200005060704701460020874A506820F4E060C3
:1082100008435060704701460020834A506820F4AC
:10822000605040EAC1005060704729B17E4A527ADE
:1082300002437D4B5A7204E07B4A527A82437A4B66
:108240005A7270477B49D831086070470146002058
:10825000754A506820F44040084350607047002140
:10826000714A20321170704A82F82010012802D021
:1082700004280AD104E001216B4A2032117005E084
:108280000521694A2032117000E000BF00BF70472D
:108290006949086070476449096A0143624A11628A
:1082A0007047654944390860704730B500210022A5
:1082B000002400235C4D6D6805F00C0121B10429F8
:1082C00005D0082923D105E05C4D056022E05B4D17
:1082D00005601FE0544D6D6805F47012524D6D68D5
:1082E00005F48034022505EB92421CB9544D5543E8
:1082F00005600BE04C4D6D6805F400351DB1504D27
:108300005543056002E04D4D5543056002E04B4D7D
:10831000056000BF00BF444D6D6805F0F00109091C
:10832000484D6B5C0568DD4045603F4D6D6805F468
:10833000E061090A434D6B5C4568DD4085603A4D5C
:108340006D6805F46051C90A3E4D6B5C4568DD40BF
:10835000C560354D6D6805F44041890B3A4D6B5C45
:10836000C568B5FBF3F5056130BD29B12E4A5269E8
:1083700002432D4B5A6104E02B4A526982432A4B37
:108380005A61704729B1284A92690243264B9A6183
:1083900004E0254A92698243234B9A61704729B1D0
:1083A000214AD2690243204BDA6104E01E4AD269B5
:1083B00082431D4BDA61704729B11B4AD2680243E0
:1083C000194BDA6004E0184AD2688243164BDA602F
:1083D000704729B1144A12690243134B1A6104E031
:1083E000114A12698243104B1A6170471249403991
:1083F000086070470F49C86470470B49C8717047DF
:108400000948406A40F08070074948627047014659
:108410000020054A92680A400AB1012000E00020CD
:108420007047014988727047001002400000FFF851
:10843000FFFFF6FE000042428004424200127A0032
:1084400000093D00040200201402002010B504467B
:10845000FE48844208D10121C014FFF7ADFF00217E
:10846000E014FFF7A9FFC4E0B4F1804F08D1012167
:108470000846FFF7AEFF00210120FFF7AAFFB8E092
:10848000F348844208D101210220FFF7A2FF002116
:108490000220FFF79EFFACE0EE48844208D10121A4
:1084A0000420FFF796FF00210420FFF792FFA0E0D1
:1084B000E948844208D101210820FFF78AFF002102
:1084C0000820FFF786FF94E0E448844208D10121A8
:1084D0001020FFF77EFF00211020FFF77AFF88E0D1
:1084E000DF48844208D101212020FFF772FF0021DC
:1084F0002020FFF76EFF7CE0DA48844208D101219A
:108500004014FFF759FF00216014FFF755FF70E09A
:10851000D548844209D10121C804FFF74DFF00214D
:108520004FF40020FFF748FF63E0D048844209D1B0
:1085300001210805FFF740FF00214FF48010FFF7ED
:108540003BFF56E0CA48844209D101214805FFF7A4
:1085500033FF00214FF40010FFF72EFF49E0C5481C
:10856000844208D101214020FFF733FF0021402041
:10857000FFF72FFF3DE0C048844208D10121802051
:10858000FFF727FF00218020FFF723FF31E0BB48E2
:10859000844208D101218015FFF71BFF0021A0159F
:1085A000FFF717FF25E0B648844209D101210804EE
:1085B000FFF702FF00214FF48030FFF7FDFE18E0C7
:1085C000B048844209D101214804FFF7F5FE00219B
:1085D0004FF40030FFF7F0FE0BE0AB48844208D1C7
:1085E00001218804FFF7E8FE00214FF48020FFF707
:1085F000E3FE10BD00220288944B98420ED0994BA6
:1086000098420BD0B0F1804F08D0914B984205D0E2
:10861000904B984202D0904B984204D14FF68F7302
:108620001A404B881A438D4B984207D08C4B984286
:1086300004D04FF6FF431A40CB881A4302808B8840
:1086400083850B880385814B98420BD0854B9842DC
:1086500008D08B4B984205D08A4B984202D08A4B67
:10866000984201D10B7A038601238382704770B54B
:10867000002400220023058C4FF6FE763540058449
:10868000028C8388048B4FF68F752C40B51E2C40CE
:108690000D882C43751E2A400D892A434D882A4394
:1086A0006A4DA8420BD06F4DA84208D0744DA84225
:1086B00005D0744DA84202D0734DA84213D14FF695
:1086C000F7752A404D892A434FF6FB752A408D885D
:1086D0002A434FF6FF652B404FF6FF552B408D89FF
:1086E0002B43CD892B4383800483CD8885860284E8
:1086F00070BD70B5002400220023058C4FF6EF7684
:1087000035400584028C8388048B48F6FF752C4025
:108710004FF6FF452C400D884FF6FF7606EA0525FB
:108720002C434FF6DF752A400D8906EA05152A43CA
:108730004D8806EA05152A43444DA84202D0494D0A
:10874000A8421DD14FF67F752A404D894FF6FF761E
:1087500006EA05152A434FF6BF752A408D8806EABA
:1087600005152A434FF6FF352B404FF2FF752B407E
:108770008D8906EA85052B43CD8906EA85052B43BD
:1087800083800483CD880587028470BD70B5002482
:1087900000220023058C4FF6FF6635400584028CCD
:1087A0008388848B4FF68F752C404FF6FC752C40D8
:1087B0000D882C434FF6FF552A400D894FF6FF7662
:1087C00006EA05252A434D8806EA05252A431F4D5A
:1087D000A84202D0234DA8421DD14FF2FF752A4076
:1087E0004D894FF6FF7606EA05252A434FF6FF35F9
:1087F0002A408D8806EA05252A434EF6FF752B4050
:108800004DF6FF752B408D8906EA05152B43CD8962
:1088100006EA05152B4383808483CD8885870284EF
:1088200070BD70B5002200230024058C4EF6FF7643
:1088300035400584038C8488828B48F6FF752A4076
:108840004FF6FF452A400D8820E00000002C014033
:108850000004004000080040000C004000100040F0
:108860000014004000340140004C01400050014021
:108870000054014000180040001C0040002000404F
:108880000040014000440140004801404FF6FF769F
:1088900006EA05252A434DF6FF752B400D8906EAA9
:1088A00005352B434D8806EA05352B43FA4DA84282
:1088B00002D0FA4DA84208D14BF6FF752C408D89A5
:1088C0004FF6FF7606EA85152C4384808283CD8897
:1088D000A0F84050038470BD828B4FF2FF331A40E2
:1088E0008283828B4FF6FF7303EA01231A4382834C
:1088F0007047F0B50C461546002200210026078C73
:108900004EF6FF7C07EA0C070784828B018C4FF63A
:10891000FF7707EA043640F6FF473A404FF6FF7705
:1089200007EA05273A434FF6FF7707EA03373A434A
:10893000D94FB8420ED0D94FB8420BD0B0F1804FCA
:1089400008D0D74FB84205D0D64FB84202D0D64F44
:10895000B84206D14DF6FF77394046F48057394387
:1089600005E047F6FF57394044F480573943828386
:108970000184F0BD828B4FF6F3731A408283828BA1
:108980000A4382837047F0B50C4615460022002149
:108990000026078C4FF6FF6C07EA0C070784828BD2
:1089A000018C4FF6FF7707EA04264FF60C773A4022
:1089B0004FF6FF7707EA03172F433A43B64FB84203
:1089C0000ED0B64FB8420BD0B0F1804F08D0B44FA4
:1089D000B84205D0B34FB84202D0B34FB84206D127
:1089E0004FF6FF57394046F48077394305E04FF2A0
:1089F000FF57394044F48077394382830184F0BDC6
:108A0000028B4FF2FF331A400283028B4FF6FF7343
:108A100003EA01231A4302837047F0B50C4615465A
:108A2000002200210026078C4FF6EF7C07EA0C0796
:108A30000784028B018C4FF6FF7707EA041640F695
:108A4000FF473A404FF6FF7707EA03373A434FF6BE
:108A5000FF7707EA05273A438F4FB8420ED08F4F72
:108A6000B8420BD0B0F1804F08D08D4FB84205D03E
:108A70008C4FB84202D08C4FB84206D14FF6DF7708
:108A8000394046F01007394305E04FF65F7739402B
:108A900044F01007394302830184F0BD028B4FF686
:108AA000F3731A400283028B0A4302837047F0B5C6
:108AB0000C46154600220021068C4FF6FE773E40FC
:108AC0000684028B018C4FF60C7632407E1C06EA3F
:108AD00003162E433243704EB0420ED06F4EB0425A
:108AE0000BD0B0F1804F08D06D4EB04205D06D4E26
:108AF000B04202D06C4EB04206D14FF6FD76314006
:108B000044F00106314305E04FF6F576314044F07C
:108B10000106314302830184F0BD70B505460C4661
:108B20005D4885420ED05D4885420BD0B5F1804F3F
:108B300008D05B48854205D05A48854202D05A4841
:108B4000854200D100E000BF208850B92389A28867
:108B500061882846FFF7ABFFE1882846FFF79EFFB4
:108B600025E0208804280AD12389A2886188284624
:108B7000FFF753FFE1882846FFF742FF17E0208800
:108B800008280AD12389A28861882846FFF7FBFEBE
:108B9000E1882846FFF7EEFE09E02389A288618874
:108BA0002846FFF7A6FEE1882846FFF795FE70BD30
:108BB0002DE9F04105460C4600260127608808B9DA
:108BC000022600E00026A088012801D1022700E04B
:108BD00001272088A0B92389A28861882846FFF749
:108BE00066FFE1882846FFF759FF23893A46314658
:108BF0002846FFF712FFE1882846FFF701FF13E040
:108C00002389A28861882846FFF707FFE188284664
:108C1000FFF7F6FE23893A4631462846FFF747FF1D
:108C2000E1882846FFF73AFFBDE8F0810A884B88C3
:108C30001A438B881A43CB881A430B891A434B89F2
:108C40001A438B891A43A0F8442070474FF6FF71EE
:108C5000818000210180C180418001727047002124
:108C6000018041808180C180018141818181C181F8
:108C70007047002101804180012181800021C18055
:108C8000018170470021018041808180C180018184
:108C90004181818170470000002C01400034014077
:108CA0000004004000080040000C004021B1028890
:108CB00042F00102028004E002884FF6FE731A407F
:108CC0000280704731B1B0F8442042F40042A0F86D
:108CD000442005E0B0F84420C2F30E02A0F844207E
:108CE00070471AB183890B43838102E083898B43E8
:108CF000838170478182704741EA0203A0F84830BF
:108D000070471AB183890B43838102E083898B43C7
:108D10008381704701894FF6F872114001817047D5
:108D20000A46002101894FF68F73194011430181D2
:108D3000704730B504460D4629462046FFF7F0FF40
:108D4000208940F00700208130BD2DE9F041044624
:108D50000D4616461F46602D06D13B460122314680
:108D60002046FFF75AFE05E03B46012231462046E9
:108D7000FFF79DFE29462046FFF7D2FF208940F0ED
:108D800007002081BDE8F08130B50C460021018943
:108D9000C9B24FF6FF7505EA03251543254329435C
:108DA000018130BD2DE9F04105460E461746984633
:108DB000002443463A4631462846FFF7E5FF2C8912
:108DC0004FF6F870044044F007044FF68F700440EB
:108DD00044F070042C81BDE8F081F0B504460D46E6
:108DE00016461F463B46324629462046FFF7CCFF33
:108DF000208940F480402081F0BD01858282704747
:108E00000A46002101884FF68F73194011430180F3
:108E10007047F0B50C4615461E460021002200237F
:108E20000189028B038C4FF6F877394021434FF6C6
:108E3000FC473A4040F201173A434FF6DD773B409A
:108E40004FF6FF7707EA06172F433B430181028362
:108E50000384F0BD0A460021018B4FF68F73194041
:108E60001143018370470A460021018B48F6FF73C6
:108E700019404FF6FF7303EA022319430183704739
:108E80000A460021818B4FF68F731940114381836D
:108E900070470A460021818B48F6FF7319404FF650
:108EA000FF7303EA022319438183704721B10288CB
:108EB00042F08002028004E002884FF67F731A407D
:108EC0000280704721B1828842F00402828004E06F
:108ED00082884FF6FB731A408280704721B18288E6
:108EE00042F00802828004E082884FF6F7731A404D
:108EF0008280704721B1828842F00102828004E0C2
:108F000082884FF6FE731A40828070470A4600211D
:108F1000018B4FF6F77319401143018370470A46DE
:108F20000021018B4FF2FF7319404FF6FF7303EAE4
:108F300002231943018370470A460021818B4FF6B3
:108F4000F77319401143818370470A460021818BD2
:108F50004FF2FF7319404FF6FF7303EA02231943E0
:108F6000818370470A460021018B4FF6FB7319403D
:108F70001143018370470A460021018B4FF6FF33EE
:108F800019404FF6FF7303EA022319430183704728
:108F90000A460021818B4FF6FB73194011438183F0
:108FA00070470A460021818B4FF6FF3319404FF678
:108FB000FF7303EA02231943818370470A460021A5
:108FC000018B4FF67F7319401143018370470A46A6
:108FD0000021018BC1F30E014FF6FF7303EA022358
:108FE0001943018370470A460021818B4FF67F7336
:108FF00019401143818370470A460021818BC1F3D8
:109000000E014FF6FF7303EA022319438183704771
:109010000A460021018C4FF6FD731940114301846B
:1090200070470A460021018C4FF6F773194011432F
:10903000018470470A460021018C4FF6DF73194006
:109040004FF6FF7303EA02131943018470470A467F
:109050000021018C4FF67F7319404FF6FF7303EA2E
:1090600002131943018470470A460021018C4FF610
:10907000FF5319404FF6FF7303EA0223194301849B
:1090800070470A460021018C4FF2FF7319404FF6DA
:10909000FF7303EA02231943018470470A46002143
:1090A000018C4DF6FF7319404FF6FF7303EA02334C
:1090B00019430184704730B5002301248C40A3B2CA
:1090C000048C9C430484048C02FA01F5ADB22C4359
:1090D000048430BD30B5002304248C40A3B2048C3A
:1090E0009C430484048C02FA01F5ADB22C43048441
:1090F00030BD70B503460020002418461830012505
:109100008D40ACB21D8CA5431D8409B1082909D13D
:1091100000EB6100056825F07005056005681543E2
:1091200005600EE00D1FC5F34E052844056825F4C3
:10913000E045056005684FF6FF7606EA02263543EE
:10914000056070BD21B1028842F00202028004E095
:1091500002884FF6FD731A400280704721B10288E1
:1091600042F00402028004E002884FF6FB731A40CA
:109170000280704721B1828842F08002828004E040
:1091800082884FF67F731A408280704702884FF6BC
:10919000F7731A40028002880A430280704782886F
:1091A0004FF68F731A40828082880A43828070470C
:1091B00002894FF6F8731A40028102890A4302813C
:1091C000704702894FF67F731A40028102890A4371
:1091D000028170478184704781857047818670471E
:1091E0000187704781877047A0F840107047028858
:1091F0004FF6FF431A40028002880A4302807047FC
:109200000146888E70470146088F70470146888F57
:1092100070470146B1F8400070470146888C70479E
:109220000146088D704702460020138A0B400BB19F
:10923000012000E000207047CA430282704730B529
:109240000246002000230024158A05EA01039589BF
:1092500005EA010413B10CB1012000E0002030BD8B
:10926000CA4302827047000010B50446FB4884429E
:1092700009D101218803FFF79FF800214FF48040B6
:10928000FFF79AF832E0F648844209D101214804F8
:10929000FFF79FF800214FF40030FFF79AF825E020
:1092A000F048844209D101218804FFF792F8002197
:1092B0004FF48020FFF78DF818E0EB48844209D185
:1092C0000121C804FFF785F800214FF40020FFF7C3
:1092D00080F80BE0E548844208D101210805FFF73A
:1092E00078F800214FF48010FFF773F810BD2DE9D6
:1092F000F04786B005460E460024A24600BFA146B0
:109300000027B08900B100BF2F462C8A4CF6FF70B1
:109310000440F08804432C82AC894EF6F3100440DC
:10932000B08831890843718908430443AC81AC8A11
:109330004FF6FF400440B0890443AC8201A8FEF719
:10934000B4FFC648874202D1DDF810A001E0DDF885
:109350000CA0A88900F4004040B10AEBCA0000EB61
:109360000A1031684900B0FBF1F807E00AEBCA00C7
:1093700000EB0A1031688900B0FBF1F86420B8FBFB
:10938000F0F004012009642101FB1089A88900F490
:10939000004040B1322000EBC900B0FBF1F000F01A
:1093A0000700044308E0322000EB09106421B0FB01
:1093B000F1F000F00F0004432C8106B0BDE8F08707
:1093C0004FF41651016000218180C18001810C2180
:1093D000418100218181704710B502460020108A2A
:1093E0004FF2FF0318400B884C8823438C8823439B
:1093F000CC8823431843108210BD00210180418096
:109400008180C180704721B1828942F400528281FB
:1094100004E082894DF6FF731A4082817047F0B5EF
:109420000346002400260025002040F66A17B942B2
:1094300000D100BF1846C1F3421401F01F060127F6
:1094400007FA06F5012C01D10C3004E0022C01D101
:10945000103000E014301AB107682F43076002E0B3
:109460000768AF430760F0BD1AB1838A0B4383825C
:1094700002E0838A8B4383827047028A4FF6F0733F
:109480001A400282028A0A430282704782894FF29E
:10949000FF731A40828182890A438281704721B119
:1094A000828942F00202828104E082894FF6FD73D4
:1094B0001A4082817047028A4FF6DF731A40028297
:1094C000028A0A430282704721B1028A42F4804232
:1094D000028204E0028A4BF6FF731A400282704750
:1094E000C1F308028280704701468888C0F30800F3
:1094F0007047818941F0010181817047028BD2B2AE
:109500000283028B42EA012202837047028B02F43B
:109510007F420283028B0A430283704721B1828A11
:1095200042F02002828204E0828A4FF6DF731A4002
:109530008282704721B1828A42F01002828204E066
:10954000828A4FF6EF731A408282704721B1828A75
:1095500042F00802828204E0828A4FF6F7731A40D2
:109560008282704721B1828942F40042828103E005
:109570008289C2F30E028281704721B1828A42F44D
:109580000062828204E0828A4FF2FF731A40828274
:109590007047828A4FF6FB731A408282828A0A439E
:1095A0008282704721B1828A42F00202828204E004
:1095B000828A4FF6FD731A4082827047024600206D
:1095C000B1F5007F00D100BF13880B400BB1012023
:1095D00000E00020704701F40072B2F5007F00D176
:1095E00000BFCA430280704770B5024600240023C2
:1095F0000025002040F66A16B14200D100BFC1F339
:10960000421501F01F03012606FA03F3012D02D1D2
:109610009689334006E0022D02D1168A334001E0DC
:10962000968A33400C12012606FA04F41688344058
:1096300013B10CB1012000E0002070BD10B5002274
:10964000002340F66A14A14200D100BF0A1201248F
:109650009440A3B2DC43048010BD000000380140F8
:109660000044004000480040004C004000500040D2
:1096700010B50446BE48844208D101218014FEF78B
:109680009BFE0021A014FEF797FE16E0B948844225
:1096900008D101210014FEF79CFE00212014FEF7E2
:1096A00098FE0AE0B448844207D10121C013FEF7B6
:1096B00090FE0021E013FEF78CFE10BD10B50022D5
:1096C000028802F441520B884C8823438C88234340
:1096D000CC8823430C8923434C8923438C8923431F
:1096E000CC8923431A430280838B4FF2FF742340BB
:1096F00083830B8A038210BD2DE9F04F85B00546A8
:109700000C464FF0000902274FF000084FF0010B04
:109710000026B246A88B4FF240010840A8830220E1
:109720002884B5F81C90A068022801D100BF38E059
:10973000A08810B94FF0010B01E04FF0020B8D48EB
:10974000854200D100E000BF6846FEF7AEFDDDF8BF
:1097500000A0E088B0F5007F0AD14FEA1A2000EBA4
:1097600080004000A168B0FBF1F0401D86B20BE024
:109770004FEA4B10BAFBF0F000EB80004000A1680C
:10978000B0FBF1F0401D86B20A20B6FBF0F606F001
:109790000108A6EB0800C0F34F074FF6FF7000EA80
:1097A0000828022F01DBFF2F02DD02274FF00008FF
:1097B000E08840EA080038432884A088A18908434B
:1097C000618808432188084340F4006040EA0909A1
:1097D000A5F81C9005B0BDE8F08F00210180418004
:1097E0008180C180018141818181C1810721018204
:1097F00070470021018041808180C1800221816009
:1098000000218181704721B1028842F0400202802C
:1098100004E002884FF6BF731A400280704721B1FE
:10982000828B42F48062828304E0828B4FF6FF33A6
:109830001A408283704730B5002400230C110125A3
:10984000A540ABB21AB185881D43858002E08588AA
:109850009D43858030BD1AB183880B43838002E02D
:1098600083888B4383807047818170470146888954
:1098700070474FF6FF62914204D0028842F4807232
:10988000028004E002884FF6FF631A4002807047AE
:1098900021B1828842F00402828004E082884FF67F
:1098A000FB731A408280704702884FF2FF731A40A0
:1098B000028002880A4302807047018841F4805187
:1098C0000180704721B1028842F40052028004E016
:1098D00002884DF6FF731A4002807047024600204E
:1098E000012901D0108B00E0908A70470146088A58
:1098F0007047B1F5804F04D1028842F48042028063
:1099000004E002884BF6FF731A400280704702465B
:10991000002013890B400BB1012000E000207047AC
:10992000CA4302817047F0B502460020002400239C
:10993000002501F00F070126BE40B4B20B1101262D
:109940009E40B3B2968806EA03051689264016B1F2
:109950000DB1012000E00020F0BD10B5002201F0A3
:109960000F040123A3409AB2D343038110BD00002A
:109970000030014000380040003C004040EA010354
:109980009B0703D009E008C9121F08C0042AFAD2B5
:1099900003E011F8013B00F8013B521EF9D2704779
:1099A000D2B201E000F8012B491EFBD27047002221
:1099B000F6E710B513460A4604461946FFF7F0FFCE
:1099C000204610BD30B504460020034600E05B1C75
:1099D000934203D2E05CCD5C401BF8D030BD2DE952
:1099E000FE4F804681EA0300C00F0C46009021F034
:1099F000004123F00045B8EB0200A94105D24046E2
:109A0000214690461C460B46024623F00040104378
:109A100047D0270DC7F30A00C3F30A510290401A3A
:109A2000019040286BDAC3F3130040F4801B0098C8
:109A3000924620B10023D2EB030A63EB0B0B019893
:109A40005946C0F14002504600F074F906460D46F2
:109A500050465946019A00F08CF910EB080061411C
:109A6000002487EA115284EAE7731A4340D0009A2F
:109A700062B3019A012A4FEA075215DC001B61EB21
:109A800002014FF0004202EA0752CDE90042001CF9
:109A900041F5801132462B4600F0C3F903B0BDE812
:109AA000F08F40462146F9E7001B61EB0201001CE4
:109AB00041F5801300185B412018A2F5001747EB11
:109AC000030140EAD570B6196D4111E06D084FEA07
:109AD000360645EAC0754FEA0752001B61EB0201EA
:109AE000001C41F5801149084FEA3000001951412E
:109AF00032462B4603B0BDE8F04F00F083B9009822
:109B0000012240000023D0EB020263EBE0730098D7
:109B100021464FEAE074B8EB000061EB0401E9E78D
:109B200083F000435BE781F0004158E72DE9FE4FE9
:109B300081EA030404F0004421F0004100944FF056
:109B4000000B23F0004350EA01045ED052EA030404
:109B50005BD0C3F30A54C1F30A552C44A4F2F33486
:109B60000194A0FB0254C1F3130141F48011C3F32B
:109B7000130343F4801301FB024400FB034E840AE9
:109B8000970A44EA815447EA8357A4FB0768029581
:109B90008D0A05FB07854FEA932C04FB0C5427051F
:109BA000029D4FEA065847EA1637B5EB08056EEBFB
:109BB000070C870E920E47EA811742EA8312A7FB31
:109BC0000201B6EB0B0164EB00042B0D43EA0C33EE
:109BD0005E1844EB1C50DA465146E7FB0201C5F320
:109BE00013044FEA0B3343EA14534FEA0432019C47
:109BF00043EA0603A4F10C040294009CCDE900B4EE
:109C000000F00FF903B0BDE8F08F00200146F9E73E
:109C100096230022114600F0C7B820F00040C10D85
:109C2000C0F3160040F400007F2901DA00207047DD
:109C3000962903DCC1F19601C840704796398840E7
:109C40007047C1F30A5210B5C1F3130140F2FF335C
:109C500041F480119A4201DA002010BD40F23343F2
:109C60009A42A2F2334203DC524200F072F810BD75
:109C7000904010BD00F0004230F000400AD0C10D0D
:109C800001F56071C0F3160042EA0151C2084007B5
:109C90001143704700200146704701F0004330B483
:109CA00021F0004150EA010206D00A0DA2F56072CF
:109CB000C1F31301002A02DC30BC00207047440FBE
:109CC00044EAC104C100E01830BC00EBC25000F00F
:109CD00062B82DE9F05F0546002092469B46884613
:109CE0000646814640241BE0284641464746224618
:109CF00000F02FF853465A46C01A914110D311462E
:109D00001846224600F016F82D1A67EB01084F4658
:109D100022460120002100F00DF817EB00094E410A
:109D2000201EA4F10104DFDC484631462A464346A2
:109D3000BDE8F09F202A04DB203A00FA02F100205F
:109D400070479140C2F1200320FA03F31943904079
:109D50007047202A04DB203A21FA02F000217047E4
:109D600021FA02F3D040C2F1200291400843194683
:109D70007047202A06DBCB17203A41FA02F043EA6B
:109D8000E07306E041FA02F3D040C2F120029140B4
:109D90000843194670470029A8BF7047401C490076
:109DA00008BF20F00100704710B4B0FA80FC00FA40
:109DB0000CF050EA010404BF10BC704749B1CCF16B
:109DC000200421FA04F411FA0CF118BF01212143F7
:109DD0000843A3EB0C01CB1D4FEA00614FEA1020B2
:109DE00042BF002010BC704700EBC3501044002954
:109DF000A4BF10BC7047401C490008BF20F0010000
:109E000010BC704710B5141E73F1000408DA401C32
:109E100041F1000192185B411A4301D120F0010089
:109E200010BD2DE9F04D92469B4611B1B1FA81F279
:109E300002E0B0FA80F220329046FFF77BFF044642
:109E40000F4640EA0A0041EA0B0153465A460843CE
:109E500013D0114653EA010019D0C8F14002504610
:109E6000FFF777FF05460E46504659464246FFF734
:109E700061FF084305D0012004E020463946BDE8D3
:109E8000F08D0020054346EAE0762C4337430A98DC
:109E90006305E40AA0EB08000022FD0A44EA4754E7
:109EA0000A3002D500200146E9E701051019694191
:109EB000DDE9084500196941BDE8F04DA2E7000061
:109EC000064C074D06E0E06840F0010394E8070007
:109ED00098471034AC42F6D3F6F738F93CA20008A4
:109EE0005CA2000870B58C1810F8015B15F0070330
:109EF00001D110F8013B2A1106D110F8012B03E023
:109F000010F8016B01F8016B5B1EF9D12B0705D42A
:109F10000023521E0DD401F8013BFAE710F8013B73
:109F2000CB1A921C03E013F8015B01F8015B521E8F
:109F3000F9D5A142D8D3002070BD00000FB4054B65
:109F400010B503A9044A029800F018F810BC5DF897
:109F500014FB0000894A0008A801002002E008C89C
:109F6000121F08C1002AFAD170477047002001E093
:109F700001C1121F002AFBD1704700002DE9FF4FDD
:109F80008DB09B460F460446002606E025280BD0E0
:109F90005A460F999047641C761C20780028F5D10A
:109FA00011B03046BDE8F08F0025A846012298493F
:109FB00000E0054314F8013F203B02FA03F0084299
:109FC000F7D120782E2817D114F8010F45F0040599
:109FD0002A280ED06FF02F022078A0F13001092935
:109FE0000AD808EB880102EB410100EB0108641C70
:109FF000F2E757F8048B641C20786C280DD004DC41
:10A000004C2812D06A2811D104E074280DD07A2887
:10A010000CD10AE045F4001507E0617845F480159D
:10A02000814202D1641C05F58015641C2278692ADE
:10A0300045D008DC002AB3D0582A69D0632A10D052
:10A04000642A08D13BE0702A67D0732A13D0752A9E
:10A050005CD0782A5CD010465A460F999047761CFF
:10A06000D3E017F8040B8DF8000000208DF80100F4
:10A07000E946012003E057F8049B4FF0FF306907E1
:10A080004FF0000501D40AE06D1C45450DDA85420C
:10A09000FADB19F805100029F6D106E06D1C85429F
:10A0A000FCDB19F805100029F8D12E4404E019F85A
:10A0B000010B5A460F9990476D1EF8D2A5E00A2071
:10A0C0000021CDE90801C5F3025002280DD001CFCF
:10A0D000C117031E71F100030DDA4FF0000CD0EB35
:10A0E0000C006CEB01012D2308E0FF1D27F0070792
:10A0F000F7E80201EDE72B0504D52B238DF8283076
:10A1000001233BE0EB0739D02023F7E70A2000E0EA
:10A1100010200021CDE9080107E01020002145F0C2
:10A120000405CDE908014FF00808C5F302500228E4
:10A130000FD001CF00214FF0000A2B071FD5702A46
:10A140000DD0DDE908C38CF0100C5CEA030C0CD0D8
:10A1500015E0FF1D27F00707F7E80201EBE74022B3
:10A160008DF828204FF0010A0BE050EA010306D0D9
:10A1700030238DF828308DF8292002239A46582A5A
:10A1800004D024A20DF120090B9209E026A2F9E7E0
:10A19000DDE90823FFF79DFD0B9B9B5C09F8013D62
:10A1A00050EA0102F4D1ADEB0900203008906807B5
:10A1B00001D44FF001080899884502DDA8EB0100A1
:10A1C00000E000208046002506E00AA85A46405DCF
:10A1D0000F9990476D1C761C5545F6DB04E0302046
:10A1E0005A460F999047761CB8F10001A8F1010872
:10A1F000F5DC05E019F8010B5A460F999047761CDB
:10A200000899481E08900029F4DC641CC5E600008B
:10A21000092801003031323334353637383961623C
:10A220006364656600000000303132333435363700
:10A230003839414243444546000000005CA2000812
:10A240000000002018020000E49E0008C4A20008DC
:10A2500018020020A01800006C9F0008C10217011E
:10A2600069181A90090227641301030753010205B4
:10A27000070604599014020101024D057BA24AAF62
:10A28000080930010203040607080999599E913A0A
:10A29000AA0201100A15FF0C0132C97012CB141565
:10A2A00014CB1A16041A17041A19041A1A041A1BC2
:10A2B00004EB1C143012CB5A181449F069F4050051
:04A2C0000204060886
:0400000508000145A9
:00000001FF
