:020000040800F2
:10000000880F0020D5000008010100080301000846
:1000100000000000000000000000000000000000E0
:1000200000000000000000000000000005010008C2
:10003000000000000000000007010008612F000818
:100040000B0100080B0100080B0100080B01000860
:100050000B0100080B0100080B0100080B01000850
:100060000B0100080B0100080B0100080B01000840
:100070000B0100080B0100080B01000829300008E3
:100080000B01000800000000000000000B01000848
:10009000000000000B0100080B0100080B01000824
:1000A000000000000B0100080B010008A535000846
:1000B0000B010008000000000B0100080B01000804
:1000C0000348854600F070F8004800474D49000895
:1000D000880F00200D4880F308880D480D49016005
:1000E0000D480168090E0D4A914205D10C48094995
:1000F00001600C480C4901600C4880470C480047DF
:10010000FEE7FEE7FEE7FEE7FEE7FEE7880F0020DA
:100110006020024001000000040000001F000000F9
:10012000181002400000014000000000D52F000818
:10013000C100000830B50B460146002020220124F2
:1001400009E00D46D5409D4205D31D469540491B0B
:100150002546954040191546521E002DF1DC30BD54
:1001600003460B439B0703D009E008C9121F08C0D0
:10017000042AFAD203E00B780370401C491C521E7B
:10018000F9D27047D2B201E00270401C491EFBD286
:1001900070470022F6E710B513460A460446194692
:1001A000FFF7F0FF204610BD064C0125064E05E086
:1001B000E36807CC2B430C3C98471034B442F7D388
:1001C000FFF782FFB07E0008D07E00080749E122D9
:1001D000088DD200401C80B20885904204D90020CE
:1001E00008707D20000108857047000094060020FB
:1001F000FFB5002083B00F460E4605460190E8B2D9
:10020000002400900398611C4843691CFFF792FF8B
:10021000B84201D9C01B00E0381A864205D906460B
:1002200005980470069900980870002E08D0641C88
:10023000402CE7D30198002802D16D1C042DDED399
:10024000304607B0F0BD417802780802104340BA4A
:100250007047000038B50121880402F047FC0B4CC0
:10026000042060610502656101216A4691701021D8
:10027000D17010806946204601F0C8FC6A4615809E
:100280006946204601F0C2FC38BD00000004004869
:10029000F0B5059E002A0ED0074F0501EC19E1606C
:1002A0006280A380E680002121816181617001214B
:1002B000795503F043FEF0BD8001002000B5034BEB
:1002C00000210201995403F02DFE00BD80010020A1
:1002D00030B51C480122808A920204231A49012861
:1002E00001D04B612CE019480068040701D50B616F
:1002F00000E04B61154BC50400241B1F002D05DBDE
:10030000850403D4450401D405040AD55878401C5B
:10031000C0B258701E2803D35C70C8685040C860D3
:1003200030BD450605D4050603D4C50501D48005B6
:1003300006D55878401CC0B258701428ECD230BD95
:100340004A6130BD600600200004004840000020E3
:1003500010B50020054902464300401CC0B2CA52F5
:100360008028F9D301F098FF10BD00004408002058
:1003700070B50A4DFF22EE1D1346F93605E00478EC
:1003800054402A5D5A40335D401C0C46491E89B2D8
:10039000002CF4D11002184370BD0000AE7C0008A0
:1003A00000210A464254491C0829FBDB7047000023
:1003B00010B534210348FFF7ECFE034800F022F8A3
:1003C00010BD00002C0600204400002010B5034B97
:1003D00003A22A213C2002F03BF910BD2A00002094
:1003E0002020202020202020000000000020044A9F
:1003F00001461154401CC0B20328FAD391717047D2
:100400004400002000210170417081708180817161
:1004100070470000002801D0002070470048704756
:10042000A001002089888088814201D00120704786
:100430000020704710B5342202490348FFF790FEB0
:1004400010BD0000600600202C06002002780A7013
:1004500042784A7082788A70808888800420887107
:10046000704701B5009801E0401E00900028FBD1C4
:1004700008BD000008B5074AD368074A002B928BD5
:1004800006A3009303D0012300F008FB08BD00235E
:10049000FAE70000E00600202C06002073000000B0
:1004A00010B5054A054B1278002A03D004A202F0C9
:1004B000CFF810BD04A2FAE7940600202A0000201D
:1004C00020CADAC8A8200000CEDEC8A8CFDE2020CF
:1004D0000000000070B50F4AD3680F4A012B128C40
:1004E00004D00E4B002A11D00DA210E00B4C0025B9
:1004F00001266580A680002A234601D008A200E0DC
:100500000AA202F0A5F86680A58070BD07A202F0DD
:100510009FF870BDE00600202C0600202A00002075
:10052000B3A3BFAAD3D0D0A700000000B3A3B1D516
:10053000D3D0D0A70000000010B5054A054B1278B3
:10054000D20701D004A200E006A202F081F810BD9B
:10055000400000202A000020CAD6B6AFBFD8D6C6B9
:1005600000000000D7D4B6AFBFD8D6C60000000048
:10057000F8B5314A05461046002320380C46137062
:10058000014686690831002E17D02C4EB78A002FFD
:1005900013D090785778B8424CD2415C401C891FE8
:1005A00090700B0003F0A6FB1013161E2124272ABF
:1005B0002D3033363945453C3F4593705370836148
:1005C000C3610846FFF7ECFE1D4B1EA22DE01C4B3D
:1005D0001FA22AE030881A4B002801D01FA224E075
:1005E00021A222E0164B23A21FE0154B24A21CE0FF
:1005F000134B26A219E0124B27A216E0104B29A29A
:1006000013E00F4B2AA210E00D4B2CA20DE00C4B77
:100610002DA20AE00A4B2FA207E0094B30A204E00A
:10062000074B32A201E0064B33A22146284602F0D6
:100630000FF8F8BD9370F8BDB406002060060020E6
:100640002A000020CEDEB9CAD5CF2020202000000D
:10065000C6D5CDA8B9FDD4D820000000CFFBB7C0C7
:10066000B9FDD4D820200000CAE4B3F6B9FDD4D82F
:1006700020200000C6D5CDA8B6CCC2B720200000EF
:10068000CFFBB7C0B6CCC2B720200000B7C0BBF0CC
:10069000B7A7B9D8B1D50000BCECD0DED7B4CCAC8C
:1006A00020200000D6F7B5E7B9FDD1B92020000021
:1006B000D6F7B5E7C7B7D1B920200000D6F7B5E720
:1006C000C8B1CFE020200000CFE0CEBBB9CAD5CF63
:1006D000202000004B4D31B9CAD5CF20202000008A
:1006E0004B4D32B9CAD5CF2020200000D3E0D1B97C
:1006F000BFD8D6C620202000CDA8D0C5B9CAD5CF36
:100700002020000010B50446002001F087FF02F011
:10071000B9F8002C04D0012C17D0022C2AD041E0CB
:10072000224B23A202210D2001F092FF1F4B23A296
:1007300012210D2001F08CFF1C4B23A222210D2041
:1007400001F086FF194B23A228E0184B24A20221B6
:100750000D2001F07DFF154B26A212210D2001F086
:1007600077FF124B26A222210D2001F071FF0F4BC3
:1007700026A213E00D4B28A202210D2001F068FFF4
:100780000A4B28A212210D2001F062FF074B28A27C
:1007900022210D2001F05CFF044B28A232210D2004
:1007A00001F056FF01F0E8FF10BD00002A00002014
:1007B000C9E8B1B8C0E0D0CD3A000000CFFBB7C067
:1007C000B9A6C2CA3A000000C6D5CDA8B9A6C2CA09
:1007D0003A000000B9A6C2CAD2F2CAFD3A0000002F
:1007E000B9CAD5CFBFAAB9D83A2020B1B3B9E23A35
:1007F00020000000D6F7BBFAB0E6B1BE3A00000018
:10080000D2BABEA7B0E6B1BE3A000000B9A4B3A701
:10081000C3DCC2EB3A000000B7F8C9E4BFAAB9D8FC
:100820003A000000B9FDD4D8CAB1BCE43A000000D7
:10083000BCECD0DEBFD8D6C63A000000D3C3BBA7FD
:10084000C3DCC2EB3A00000010B5002001F0E6FE68
:10085000012000F0BDF910BD10B5074AD368074A62
:10086000012B928A04D0D2B2002300F027FA10BDE7
:10087000D2B20123F9E70000E00600202C06002098
:10088000FFB587B01C4610460A21109DFFF752FCA9
:10089000002C15D0114C002666800127A7800B463E
:1008A00002460FA101A8009503F010FA234601AA01
:1008B0000899079801F0CCFE6780A6800BB0F0BDC8
:1008C0000B46024606A101A8009503F0FFF9034B71
:1008D00001AA0899079801F0BBFEEFE72A00002063
:1008E00025642E256425732000000000FFB587B025
:1008F00014461E4610460A21FFF71CFC00912046B4
:100900006421FFF717FC0A460546002E18D0164C46
:10091000002666800127A78010460A21FFF70AFCFF
:1009200003462A4611A101A803F0D0F9234601AAE3
:100930000899079801F08CFE6780A6800BB0F0BD87
:1009400010460A21009CFFF7F5FB03462A4607A143
:1009500001A8009403F0BAF9034B01AA089907987B
:1009600001F076FEEAE700002A00002025642E252B
:100970006425640010B51A46130003F0BBF90D346A
:10098000080B14171A1D202326292C2F3400174B6F
:1009900017A225E0194A154B1288002A01D018A287
:1009A0001EE01AA21CE0114B1BA219E00F4B1DA266
:1009B00016E00E4B1EA213E00C4B20A210E00B4BD6
:1009C00021A20DE0094B23A20AE0084B24A207E074
:1009D000064B26A204E0054B27A201E0034B29A207
:1009E00001F036FE10BD014B29A2F9E72A000020D4
:1009F000C6D5CDA8B9FDD4D82020000060060020BF
:100A0000CFFBB7C0B9FDD4D820200000CAE4B3F6AC
:100A1000B9FDD4D820200000C6D5CDA8B6CCC2B729
:100A200020200000CFFBB7C0B6CCC2B7202000000A
:100A3000B7C0BBF0B7A7B9D8B1D50000BCECD0DEC9
:100A4000D7B4CCAC20200000D6F7B5E7B9FDD1B9BA
:100A500020200000D6F7B5E7C7B7D1B920200000A5
:100A6000D6F7B5E7C8B1CFE020200000CFE0CEBB7D
:100A7000B9CAD5CF20200000CDA8D0C5B9CAD5CFDE
:100A800020200000D3E0D1B9BFD8D6C62020000076
:100A9000202020202020202000000000FFB585B06D
:100AA0001C000E9B0F4612D00E4C002565800126BF
:100AB000A6800DA1684603F009F923466A46394627
:100AC000059801F0C5FD6680A58009B0F0BD06A1BE
:100AD000684603F0FBF8034B6A463946059801F077
:100AE000B7FDF2E72A0000202564257320200000CE
:100AF00070B50F4AD3680F4A022BD28A06D00E4B2C
:100B0000012A13D00DA201F0A3FD70BD0A4C0025EF
:100B100001266580A680012A234605D007A201F0A0
:100B200097FD6680A58070BD05A2F8E704A2EAE7FC
:100B3000E00600202C0600202A000020B9D8000082
:100B4000BFAA000010B5034A927D002300F076F89A
:100B500010BD0000E006002070B50F4AD3680F4AB0
:100B6000002B12880DD00E4C002501266580A68032
:100B7000012A23460ED00BA201F06AFD6680A580F3
:100B800070BD074B012A03D006A201F061FD70BDC4
:100B900007A2FAE706A2EFE7E00600202C060020F5
:100BA0002A000020B5A5CBD9B7E7BBFA00000000AA
:100BB000CBABCBD9B7E7BBFA0000000010B5034AB6
:100BC000D27D002300F03AF810BD0000E0060020BE
:100BD00010B5044601F056FE002C02D0012C03D0C3
:100BE00008E00B4B0BA201E0094B0DA202212820CB
:100BF00001F02EFD064B0DA21A21002001F028FD68
:100C00000D4A1A21462000F099F901F0B5FD10BDFA
:100C10002A000020D3C3BBA7C3DCC2EB0000000046
:100C2000B9A4B3A7C3DCC2EB00000000C3DCC2EB75
:100C3000CAE4C8EB3A00000044000020FFB585B0CC
:100C400014461D4610460A21FFF774FA0E46204648
:100C50006421FFF76FFA0846002D17D0144C0025C9
:100C600065800127A7800A21FFF764FA0246334610
:100C700010A1684603F02AF823466A4606990598AB
:100C800001F0E6FC6780A58009B0F0BD34460A217A
:100C9000FFF750FA0246234606A1684603F016F80D
:100CA000034B6A460699059801F0D2FCECE7000078
:100CB0002A0000205625642E25640000FFB50F464B
:100CC00085B01C4610460A21FFF734FA002C13D0D9
:100CD0000F4C0025658001260A46A6800DA16846B6
:100CE00002F0F4FF23466A463946059801F0B0FC4D
:100CF0006680A58009B0F0BD0A4606A1684602F0EC
:100D0000E5FF034B6A463946059801F0A1FCF1E77F
:100D10002A00002025640000F7B584B000260546AF
:100D200001960296039690794D4F1446002812D0F2
:100D300001282DD0022856D0032875D0A078009025
:100D40006378127847A101A802F0C0FF3B4601AAD0
:100D50002846059943E0002078800126BE8022784D
:100D600043A101A802F0B2FF3D4B01AA2846059914
:100D700001F06EFC7E800020B880A37862783DA1EF
:100D800001A802F0A3FF364B01AAA81D059926E091
:100D9000227837A101A802F099FF314B01AA284619
:100DA000059901F055FC002078800126BE8062780C
:100DB0002FA101A802F08AFF294B01AAA81D0599BD
:100DC00001F046FC7E800020B880A27826A101A810
:100DD00002F07CFF2846224B01AA0C30059901F055
:100DE00037FC07B0F0BD6378227824A101A802F097
:100DF0006DFF1B4B01AA2846059901F029FC002034
:100E000078800126BE80A27819A101A802F05EFFB9
:100E10002846134B01AA1230059901F019FC7E8077
:100E20000020B880DDE7FFE7002078800126BE8043
:100E3000A07800906378127813A101A802F046FF11
:100E4000074B01AA2846059901F002FC7E8000208C
:100E5000B8802846024B0EA218300599BFE7000063
:100E60002A000020256425642E25644B57000000CD
:100E70002564000025642E25644B570025642564F5
:100E80002E204B5700000000256425642E256400A9
:100E90004B57000010B5054AD368054A002B528B0A
:100EA00000D00123FFF722FD10BD0000E006002066
:100EB0002C06002010B5034B03A22A213C2001F090
:100EC000C7FB10BD2A000020C3DCC2EBB4EDCEF39B
:100ED0000000000010B5002001F0A0FB01F0D2FCE2
:100EE0000A4B0BA202210D2001F0B2FB074B0DA211
:100EF0001221282001F0ACFB044B0DA22221282056
:100F000001F0A6FB01F038FC10BD00002A00002013
:100F1000CAC7B7F1B1A3B4E6B2CECAFDD0DEB8C439
:100F200000000000B1A3B4E63E456E746572210076
:100F3000C8A1CFFB3E45736500000000F7B584B043
:100F40000025064601950295039590793D4F14467C
:100F5000002813D031460C31009101282BD00228F3
:100F600053D0A07800906378127837A101A802F0DE
:100F7000ADFE3B4601AA3046059942E0002078804C
:100F80000125BD80227831A101A802F09FFE2D4BE2
:100F900001AA3046059901F05BFB7D800020B880F6
:100FA000A37862782AA101A802F090FE254B01AA3D
:100FB000B01D059925E0227824A101A802F086FE43
:100FC000204B01AA3046059901F042FB00207880B1
:100FD0000125BD8062781DA101A802F077FE194BA2
:100FE00001AAB01D059901F033FB7D800020B88077
:100FF000A27816A101A802F069FE124B01AA059978
:10100000009801F025FB07B0F0BD6378227810A1AD
:1010100001A802F05BFE0B4B01AA3046059901F0D6
:1010200017FB7D800126BE80A27808A101A802F0EE
:101030004DFE044B01AA0599009801F009FB7E8042
:10104000BD80E0E72A0000202564256425640000B7
:10105000256425640000000010B5144A9378002B25
:101060000CD0134A012B12680BD0022B05D11307A9
:101070000CD5104B10A201F0EBFA10BD0D4B11A2D4
:10108000F9E7D2060BD40B4B11A2F4E7134B1B88E4
:10109000002B02D0074B12A2EDE7D20602D5054B7A
:1010A00012A2E8E7034B14A2E5E700009406002033
:1010B000400000202A000020CFFBB7C0C1AAB6AF75
:1010C00000000000CAE4B3F6CDA3D6B900000000CA
:1010D000C6D5CDA8CAE4B3F6200000006006002003
:1010E000CFFBB7C0CAE4B3F600000000424153CAC8
:1010F000E4B3F62000000000CAE4B3F6D4CBD0D0AD
:101100000000000010B586B0002001F087FA01F061
:10111000B9FB0024621C0CA1684602F0D7FDE00771
:1011200002D0E000801F01E0E000801C81B2074B8C
:101130006A46002001F08CFA641C082CEAD301F006
:101140001BFB06B010BD0000256400002A00002033
:1011500010B5002001F062FA01F094FB134B14A2C9
:1011600002210A2001F074FA104B14A212210A2065
:1011700001F06EFA14480D4B008801280DD013A21F
:1011800022210A2001F064FA084B13A232210A201E
:1011900001F05EFA01F0F0FA10BD13A222210A203C
:1011A00001F056FA014B13A2F0E700002A000020DC
:1011B000CAE4B3F6D7B4CCAC3A000000CAE4B3F644
:1011C000B5E7D1B93A00000060060020CAE4B3F6E2
:1011D000B5E7C1F73A000000202020202020202081
:1011E0002020202020000000B8DFCBD9B5E7C1F7D0
:1011F0003A000000B5CDCBD9B5E7C1F73A00000001
:1012000010B5002001F00AFA01F03CFB0D4B0EA2D4
:1012100002210A2001F01CFA0A4B0EA212210A2018
:1012200001F016FA074B0EA222210A2001F010FA53
:10123000044B0EA232210A2001F00AFA01F09CFAB6
:1012400010BD00002A000020C8A8CFDED7B4CCAC67
:101250003A000000B9CAD5CFC0E0D0CD3A000000B6
:10126000CAE4B3F6D7B4CCAC3A000000BFD8D6C6B7
:10127000D7B4CCAC3A00000010B5002001F0CEF994
:101280000020FFF7A5FC10BD10B5002001F0C6F945
:1012900001F0F8FA074B08A20F21142001F0D8F949
:1012A000044B08A22121082001F0D2F901F064FAD0
:1012B00010BD000032000020B8D020D0BB20CAB939
:1012C00020D3C300D6C7C4DCB7E7BBFABFD8D6C6A5
:1012D000C6F7000070B504460D46054800F082F9D7
:1012E00001462A462046FEF73BFF284670BD000017
:1012F00000FC000810B50C460A46024900F048F907
:10130000204610BD00FC0008F8B5664A664E104045
:10131000664AB0611368012200215205002B01DAF0
:10132000104300E09043604CB061203400287DD031
:10133000F26990427BD042060127002A02DA062198
:1013400031720121000603D5072072181072491C62
:10135000308BC00503D5082072181072491C308BE1
:10136000800503D5092072181072491C308B400586
:1013700003D50A2072181072491C308B000503D562
:101380000B2072181072491C308BC00403D50C203E
:1013900072181072491C308B800403D50D2072180E
:1013A0001072491C308B400404D50E207218491C61
:1013B0001072C9B2308B000404D50F207218491C7A
:1013C0001072C9B2B069C00304D510207218491C4C
:1013D0001072C9B2B069800304D511207218491C7B
:1013E0001072C9B2B069C00204D514207218491C29
:1013F0001072C9B2B069800204D515207218491C58
:101400001072C9B26078884245D2B269F069504022
:10141000002200903846009B9040184237D0706AF6
:10142000000100090001951F706201E00CE013E06B
:101430002B0002F05FFC10121416191B1D1F212334
:1014400025343434342927340020A0706070F061D2
:1014500015480830FEF7A4FFF8BD384316E0022314
:1014600000E00323184311E00423FBE70523F9E719
:101470000623F7E70723F5E70823F3E70923F1E756
:101480000A23EFE70B23EDE70C23EBE77062521C16
:10149000D2B2202ABED3B069F0616170F8BD0009F4
:1014A000F4E70000C0FF1300940600204000002075
:1014B00000B507490A6902231A430A6148610869AD
:1014C000402210430861034800F0AAF800BD000064
:1014D00000200240FF0F00000848C168C90701D082
:1014E00001207047C168490701D502207047C068D4
:1014F000C00601D503207047042070470020024039
:1015000002480169802211430161704700200240B6
:1015100010B5054A136901242343136101800F208C
:1015200000F07EF810BD00000020024010B5034816
:1015300000F008F8024800F005F810BD00FC0008B3
:101540000000010810B5044600F05EF82046FFF7E1
:10155000AFFFFFF7D5FF10BDF8B5054617460E469D
:10156000012080F3108800F04FF800247F0807E086
:1015700029883046FFF7CCFF641CAD1CA4B2B61C12
:10158000A742F5D8FFF7BCFF002080F31088F8BD14
:10159000F7B50E4617461146304600F023F80121F4
:1015A000890275180446002805D0F01B4118A14295
:1015B0000DD1284611E03046FFF7C4FF2846FFF75B
:1015C000C1FF3A4631460098FFF7C6FFFEBD012134
:1015D000C9024018A04202D13046FFF7B3FF3A4695
:1015E0002146F0E710B50446C00700D0FEE7012011
:1015F000C002FEF79FFD002900D0FEE7A84200D1FF
:101600000024204610BD0000034802494160034900
:10161000416070472301674500200240AB89EFCD50
:1016200000B50246FFF758FFFF21521E491EFDD1AB
:10163000012801D1002AF5D1044900230B6134238C
:10164000CB60002A00D1052000BD00000020024030
:10165000F0B589B00D2834DA00210122012832D0FA
:10166000EA4C23460A33009323885B1C9BB2089301
:10167000E74B1B880793668B238B0693A38B0593FD
:10168000238C5B1C9DB2A37C0493E37C039304280E
:101690002DD023461F4624372C3302970193072869
:1016A00074D00A280DD1DB4DE86800286FD0686837
:1016B000012802D06868022803D1E868012800DB0D
:1016C000E96009B0F0BDD34B5868012806D05868CE
:1016D000022803D0D868002807D004E0D868401C4E
:1016E000D8600328EDDBD960EBE7DA60E9E7C948A9
:1016F000C368002B0BD047683B0002F0FBFA0C1CC0
:10170000223B55574545705E636B7007D9E74268C9
:10171000521C426042680B2A02DD4160082108E049
:101720004168072901DD0A2103E041680329C8DD7A
:1017300009210170C5E7089820800128C1D92180BE
:10174000BFE7C268012A18D1B048079B807C401CC3
:10175000C2B2012BA27408D00E2A00D3A174A07CBF
:101760004100AD48405AE0809BE0102A00D3A174AC
:10177000A07C83E0C268012A0AD0C168491CC1600C
:10178000C16804299DDD0221C1609AE72FE0F6E0DF
:101790000398401CC0B2E074102800D3E174E07CD0
:1017A0009EE001F06DF98CE7761CA0E0C168491C51
:1017B000C160C168022918DC83E70698401CC0E0BC
:1017C00021837EE70598401C80B2A08314288BD328
:1017D0001420C3E02584012D86D9218471E7C168D6
:1017E000491CC160C168032990DDC26069E7894F67
:1017F000F868002878680CD0030002F07BFA0C0926
:101800001E54777A8F8F91A0A808B10759E7E1E7B6
:1018100091E7401E78607868002803DA0B20786032
:101820000A2008E07868042801DA082003E07868D4
:10183000082885DA0920387043E7F86801280CD0B9
:10184000F86802191078401C1070F868205C0928AC
:1018500001D9F8682154A01C36E00798012804D06B
:1018600004992046002912D013E00498002801D1E1
:101870001020A074A07C401EC0B2A0744100674834
:10188000405AE080A01C01F0FBF8A07C27E00E216C
:101890008174817C491EC9B281744A005E49895AAB
:1018A000C180A01C7DE7F868012810D0FA6857486D
:1018B0000830121813785B1C1370FA68125C092A3E
:1018C00001D9FA681154009801F0F8F8F9E6039884
:1018D000002801D11020E074E07C401EC0B2E0740A
:1018E00041004F48405AE08100985AE7761E6683CF
:1018F000E7E6F868012807D0F868022886D1E08A70
:10190000002809D0E182DCE6A08A401C80B2A082D7
:10191000022891D9A182D4E6E282D2E6F960D0E62B
:10192000FA683A482330121813785B1C1370FA686F
:10193000125C092A01D9FA6811540298C4E7069882
:10194000401E80B22083012800D939E7B9E6059806
:10195000401E80B2A0830628B8D80620A083B0E637
:10196000FA682A482B30121813785B1C1370FA6837
:10197000125C092A01D9FA6811540198A4E7287861
:101980006870A9606960224839462430FEF74AFD34
:10199000002834D11E4EA11CB01CFEF743FD0028C8
:1019A0002DD130460A300099FEF73CFD002826D1A3
:1019B00030462C300199FEF735FD00281FD1B08A42
:1019C000A18A88421BD1F08AE18A884217D13088E7
:1019D0002188884213D1308B218B88420FD1708BA4
:1019E000618B88420BD1B08BA18B884207D1F08BE1
:1019F000E18B884203D1308C218C884201D00B20AE
:101A000002E0FEF7D5FC032028705AE62C060020E1
:101A100060060020E0060020D8490008F4490008CC
:101A2000144A000870B52F4E0D2859D00EDC002541
:101A30002D4C042832D004DC012812D003284FD1C9
:101A400021E0072834D00A284AD140E0132847D0A3
:101A500002DC0F2844D13EE0162841D019283FD19E
:101A60003CE021492148FEF7DDFC002804D0FFF7C7
:101A700021FAFEF7BBFC19E008203070FEF7B6FC37
:101A8000A571012070BD1A480068410601D4000606
:101A900026D50121082000F059FD21E0FEF796FC33
:101AA000A079401CC0B2A071022819D9A57117E015
:101AB000FEF78CFCA079215C491CC9B2215409298C
:101AC00001D9A0792554084800F0F8FF08E0FEF796
:101AD0008DFC032003E001F0B7F801E0072030702F
:101AE000002070BDE0060020440000208406002095
:101AF00040000020F0B585B00024009401940294C9
:101B0000102168460394FFF7E5FB68461F4E0088E6
:101B1000308030881E4D08280AD0082030800A20E6
:101B200002F046FF0120A882FF20EC82993026E0D7
:101B30006846408802F03CFF68468088A882684674
:101B4000C088E8826846008902F03CFFA98A1148F3
:101B500081420BD0E98A814208D002F05DFE0E4F2F
:101B6000B84203D802F05EFEB8420CD9082030809B
:101B70000A2002F01DFF0120A882EC820A2002F058
:101B800021FF00F00BF805B0F0BD00004C00002074
:101B900060060020FFFF0000E70300007FB5002083
:101BA0000090019002900390FFF7C0FC154D28882B
:101BB0006946088002F030FE6946134C4880A08ACE
:101BC0008880E08AC88002F02DFE694608811021D5
:101BD0006846FFF78FFBFF20F53002F0D7F90821A8
:101BE0006846FFF777FB694608882880488802F036
:101BF000DFFE69468888A082C888E082088902F0F2
:101C0000E1FE7FBD4C00002060060020F0B5CA78E0
:101C100013071B0FD20601D58A78134300229406BE
:101C2000240E0E88012595402E4207D005680F2608
:101C3000A640B5431E46A64035430560521CD2B2AD
:101C4000082AECD30A88071D120A9446002294063B
:101C5000240E012595406646354207D03D680F2683
:101C6000A640B5431E46A64035433D60521CD2B245
:101C7000082AECD3CA78282A06D0482A03D1026958
:101C800009880A430261F0BD426909880A4342613A
:101C9000F0BD4B0710B5DB0E082901D2203000E063
:101CA00024300F249C4001689A40A14311430160F5
:101CB00010BD41617047016170470000012080F351
:101CC000108803480021007881F3108870470000D5
:101CD00028000020F8B5002400223221204600F020
:101CE0002DFA641CE4B2072CF6D3002003463222FE
:101CF0000C490090FEF7CCFA7D20C00002F030F9CC
:101D00000020FEF7DBFA0024074D0126B602E86842
:101D10007040E860642002F023F9641CE4B20A2CED
:101D2000F5D3F8BDDC0500000004004810B52949D2
:101D3000294A274B097812880D2830D019DC274A08
:101D40000428126822D00ADC01281DD003281AD1E9
:101D5000500601D4100616D5012108201CE00728E2
:101D600016D00A280FD101290DD1D00712D0002199
:101D700011E010281AD013281FD0162822D01928B5
:101D800001D10720187010BD0520FBE70320F9E7FB
:101D90000220F7E70121002000F0D8FB10BD012947
:101DA000FCD1012A00D106E001210EE00129F5D184
:101DB000012AF3D100210220EEE70129EED1012A08
:101DC000F2D010BD0129FCD100210120E4E7000080
:101DD000E00600209406002060060020400000205D
:101DE0000249014808607047CCCC00000030004038
:101DF00010B500F00BF810BD0349C968014201D0CD
:101E0000012070470020704700300040024901481F
:101E100008607047AAAA00000030004000B50249DF
:101E2000486000F09BFD00BD0030004000B5024955
:101E3000886000F002FF00BD0030004001490860EA
:101E4000704700000030004030B5012185B04804E3
:101E500000F04CFE0121880300F060FE0921CD0650
:101E600001222846FFF715FF01220A212846FFF725
:101E700010FF01204002694608821824CC7401201A
:101E8000887404A92846FFF7C1FE01208002694634
:101E900008820420C87404A92846FFF7B7FE4B2027
:101EA000C00100903020694688800020C8800881E9
:101EB00088814C81074C204601F096FB01220221CB
:101EC000204601F089FB0121204601F075FB05B099
:101ED00030BD00000038014010B5FFF7EFFE0023D1
:101EE000074A0849002805D08878012801D11370D5
:101EF0008B7010BD012010701385887010BD00001C
:101F0000940600203C00002003488068400601D46D
:101F10000120704700207047000400480348806893
:101F2000000601D4012070470020704700040048DB
:101F300003488068C00501D4012070470020704725
:101F40000004004803488068800501D401207047E0
:101F5000002070470004004803488068800601D4D0
:101F60000120704700207047000400480348806843
:101F7000C00601D4012070470020704700040048CB
:101F800003488068000701D4012070470020704793
:101F9000000400480920C0068068000401D4012024
:101FA000704700207047000005488168490604D446
:101FB0008068000601D401207047002070470000AF
:101FC000000400487047000070B5134C1922A08A25
:101FD0005201401C81B2A18200251048914213D3C6
:101FE00021780B290ED0217808290BD021780929D6
:101FF00008D00221FFF75DFE0C202070192080011F
:10200000A08270BDA58270BD0221FFF754FE20782A
:102010000C28F8D1257070BDE006002000040048AF
:1020200010B50748C08A002807D002210548FFF7ED
:1020300042FE05490020888210BDFFF7C5FF10BD94
:102040006006002000040048E006002070B5394C0E
:102050002068C10405D4810403D4410401D40004E0
:1020600003D5002002F026FC02E0002002F048FC2C
:102070002078000703D5012002F042FC02E0012095
:1020800002F018FC2078800703D5032002F038FC0A
:1020900002E0032002F00EFC2078400703D5042064
:1020A00002F02EFC02E0042002F004FC20788006FE
:1020B00003D5022002F024FC02E0022002F0FAFB29
:1020C0001D48808A01280BD0022809D0052002F083
:1020D000F1FB2078C00728D0062002F0EBFB70BD92
:1020E0002068144D410600262D1F00290DDB010636
:1020F0000BD4C10509D4810507D4C10405D48104DA
:1021000003D4410401D400040AD52878401CC0B28D
:1021100028701428DDD32E70052002F0A9F9D8E725
:10212000052002F0C7FB2E70D3E7062002F0E8FB83
:1021300070BD0000400000206006002030B500297E
:102140000BD0064DC400631959809A800021D980B4
:1021500059700121295502F0D3FB30BD78000020D1
:10216000FEB5384E40213346CA5C1C4670789978DB
:102170000127C034344D1B7804284CD00FDC0128D3
:1021800017D0022819D0032812D10293002A0FD0A9
:102190000020054601904808F61C009032E0052812
:1021A00048D006284AD0102802D1002A00D06775EE
:1021B000FEBD184600F002F9FEBD002AFCD02089C1
:1021C000FF38FF380328F7D10629F5D1F61C304631
:1021D000FEF739F82880B61C3046FEF734F86880E0
:1021E000B01CFEF730F8A8802774FEBD3046FEF71D
:1021F0002AF8019949194A0014496D1C885200981F
:10220000EDB2B61CA842F1D80298012801D100F025
:1022100043F86774FEBD002AFCD0A289FF3AFF3A5A
:10222000032AF7D10229F5D1F01CFEF70CF8E8805B
:10223000A774FEBD002AFCD0E774FEBD002AFCD0C6
:102240002775FEBD440700204409002044080020F3
:1022500000B50E4908604103CA0F0D490A80020308
:10226000D20F0A838202D20F0A840A49820703D45A
:10227000420705D4002204E0420703D4012200E013
:1022800002228A70FFF740F800BD000040000020E5
:10229000600600209406002070B5324C2088010AA8
:1022A0000902C0B2084301026088000A0843FFF730
:1022B000CFFFA0782C490202A088030A1A430A80A3
:1022C0000202E088030A1A43CA8002022089030A34
:1022D0001A438A81020260891231030A1A430A8072
:1022E0000202A089030A1A43CA802049C8751E4DFC
:1022F000E189603DE980208AE881628A130A6B8364
:10230000D2B2AA83A28A0024120AEA83184A91420E
:1023100000D1EC80904200D1EC81A81C00F0B0FB11
:102320001148563800F0ACFB28880128E8880FD007
:102330000E22104900F024FD0E49A874E8891022ED
:102340003C3100F01DFDE874A97CFF2904D004E0B5
:10235000084910221C31EDE7AC74FF2800D1EC7461
:1023600070BD000044080020C0060020E0060020E8
:10237000FFFF0000D849000870B50E480178002919
:1023800017D000250C4C05702178042907D320466E
:102390004038FDF7EDFF002801D1FFF7E1FE0648C8
:1023A0002278963001460270D639401CFDF7D8FEDF
:1023B000257070BD700000208407002070B51348A0
:1023C0000078002820D0114D403D2E46C036F188BF
:1023D000A878FF39022917D1082815D1ED1C284605
:1023E000FDF731FF0A4CAD1C20812846FDF72BFF7D
:1023F0006081AD1C2846FDF726FFA081A81CFDF7D3
:1024000022FFE0810120F07370BD000084070020EE
:102410004409002010B50446094900200870094904
:10242000094A032002F094F808490A78402A05D2A4
:102430000846403884540878401C087010BD0000DD
:10244000700000203D0E0000512400088407002089
:10245000014901200870704770000020F8B50F4C4A
:1024600007460D462046002144300F540121032623
:102470000E5402212B0A0B5435540421130A0B5419
:1024800005210A540620C0341646207100F038F8A1
:1024900000206074A67365816771F8BD4407002051
:1024A000F8B5164C002625464435705501261027F0
:1024B000775502260F0A7755032671550421160A0F
:1024C0004E5505214A55560006214E550721C03468
:1024D0002171002109E022793D2A0DD85F5C575512
:1024E0002279521C491C227189B28E42F3D80021F4
:1024F0006175607100F004F8F8BD00004407002029
:1025000070B50F4C20467C3821790546FDF730FF29
:102510002279010A51552179491CC9B221714855C6
:102520002079401CC1B22171284600F00BF82046EA
:1025300022791630427529461630FDF711FE70BD1E
:102540000408002010B500F070FB10BD08B5002293
:1025500000920A0A6B461A70597001220146104611
:1025600001F0C2FF08BD000030B582780124017877
:10257000002A15D08B080E4A9B009A181368890709
:10258000C90EFF258D40AB434578AD072D0E8D401C
:102590002B4313600078C006C00E8440054804E059
:1025A000C806C00E844003488030046030BD00007F
:1025B00000E400E000E100E0BFF34F8F044903486E
:1025C000C860BFF34F8F00BFFDE700000400FA05AD
:1025D00000ED00E0F8B50F4F00252846B030C0B23E
:1025E00001F0F4FA0C48C0780007000F01F0EEFA91
:1025F000102001F0EBFA0024E801C619305D01F06B
:1026000013FB641CE4B2802CF8D36D1CEDB2082DD2
:10261000E3D3F8BD2C0200202300002010B50A4CA3
:1026200000220021D3011B195854491CC9B280292A
:10263000FAD3521CD2B2082AF3D3044800780128F6
:1026400001D1FFF7C7FF10BD2C020020220000209F
:10265000FFB5A7B02A980088002808D01020059060
:102660000390202000904048404E049075E00C20DC
:1026700005900390182000903D483E4E04906CE079
:10268000802B0BD2009804994208104658434118F9
:1026900006A8FDF765FD0398470824E0401C299033
:1026A0000478002C5DD0009D0021AD1C08466843D5
:1026B000491C325CC9B29A420AD137187F78A742C6
:1026C00006D1801C311806A8009AFDF749FD09E0E3
:1026D000FF2AEBD130184078FF28E7D106A80099EF
:1026E000FDF750FD039F28980025019028E02798CA
:1026F000002402901CE078000399FDF71BFDE1081F
:1027000006AA89186843405C6207520F8021D140B5
:1027100008422A9801D0807800E000790199C2B27D
:10272000029800F03FF80298401C80B2641C0290AE
:10273000BC42E0D30198401C80B26D1CEDB2019008
:1027400005988542D3D32A98C1882798C0190818BC
:1027500080B227902998401C299029980378002B53
:102760008ED12BB0F0BD0000285000087272000816
:10277000344A00082860000810B503490120087099
:10278000FFF728FF10BD00002200002000B504491B
:102790003020487000200870887000F045F800BDB7
:1027A000230000207FB51AA318CB009301941AA32D
:1027B00018CB02934B0503941B0E194CDD01C0B2DC
:1027C0002E194907355C490F002A1CD06A46545C13
:1027D0002C43144934540978012913D11149B033D9
:1027E000491CC9780818C5B2D8B201F0EFF928071A
:1027F000000F01F0EBF92809103001F0E7F920464D
:1028000001F012FA7FBD02AA545C2C40E1E70000FF
:102810000102040810204080FEFDFBF7EFDFBF7FC0
:102820002C0200202200002000230849002809D0A3
:102830000422012808D0022804D0032804D0012053
:10284000C8707047CB707047CA7070472300002073
:1028500010B5002805D0012805D0022805D003288E
:1028600008D0A02007E0A12000E0A02001F0AEF9F0
:10287000C02003E0A12001F0A9F9C82001F0A6F9C9
:1028800010BD0000014900200870704722000020A0
:1028900070B52F4C2078002804D1642001F060FB33
:1028A000012020700925ED0610212846FFF701FAC6
:1028B000022001F055FB20212846FFF7FAF90220FB
:1028C00001F04EFB20212846FFF7F5F902212148AF
:1028D000FFF7F1F9AE2001F079F9A22001F076F9C5
:1028E0002F2001F073F9242001F070F9102001F07D
:1028F0006DF9002001F06AF9B02001F067F940207D
:1029000001F064F9812001F061F9302001F05EF9F5
:10291000114D2878FFF79CFF2878FFF785FFA62048
:1029200001F054F9D52001F051F9802001F04EF961
:10293000AF2001F04BF90A2001F012FB20780128AA
:1029400004D1642001F00CFB0220207070BD000057
:1029500021000020000400482300002000B50120D1
:10296000FFF74AFA0128FAD000BD000070B52E49E1
:102970002C4A0C882D492A4B0325127809680D280A
:102980002CD017DC042822D00ADC01281DD0032813
:102990001AD1480601D4080616D5012108201AE0EC
:1029A000072814D00A280FD1012A0DD1C80710D04A
:1029B00000210FE010281BD0132822D0162827D082
:1029C000192801D10720187070BD0520FBE71D7084
:1029D00070BD01210020FFF7B9FD70BD0029F6DBB5
:1029E000012AFAD1012C01D1012108E0012114E0D2
:1029F0000029ECDB012AF0D1012CEED100210220CC
:102A0000E9E70029E3DB012AE7D1012CEED070BD14
:102A10000029DCDB012AFAD100210120DBE70000DC
:102A2000E006002094060020600600204000002000
:102A300070B50C4605460F4B0FA202210020FFF790
:102A400007FE0C4B0CA212210020FFF701FE094BE0
:102A500009A222210020FFF7FBFD064B06A232212E
:102A60000020FFF7F5FD034B04A221462846FFF79F
:102A7000EFFD70BD2A00002020200000A1B700005B
:102A800070B5858804467D21C9002846FDF752FBB4
:102A900008466421FDF74EFB207064212846FDF7AF
:102AA00049FB08460A21FDF745FB60700A212846CC
:102AB000FDF740FBA1700020A07170BD70B5044609
:102AC00000780A21FDF736FB0D4664204543607807
:102AD0000A21FDF72FFB0A2041436D18A0780A2137
:102AE000FDF728FB6818A08070BD0000044A00298B
:102AF000516901D0014300E08143516170470000FA
:102B000000100240044A0029D16901D0014300E0CD
:102B10008143D1617047000000100240044A00293F
:102B2000916901D0014300E0814391617047000049
:102B30000010024041090A4A01290AD002290AD09C
:102B4000516AC206D20E01209040014205D00120F8
:102B500070471168F5E7116AF3E70020704700003D
:102B60000010024010B500F02DF804494968044AED
:102B70000906090F515CC84010BD0000001002405A
:102B80004E00002010B5FFF7EDFF04494968044AE4
:102B90004905490F515CC84010BD000000100240BB
:102BA0004E00002010B5FFF7DDFF04494968044AD4
:102BB0008904490F515CC84010BD0000001002405C
:102BC0004E00002010B50E4A51680C2001400D48FF
:102BD000042914D0082912D15168C90304D55168B9
:102BE000890302D5401000E0074811688B0E116878
:102BF0005B1C4902490F5843491CFDF79BFA10BD65
:102C00000010024000127A00001BB70003494A6A14
:102C10005208520002434A6270470000001002400E
:102C200010B5FFF7F7FB10BD70470A4610B5014617
:102C3000002001F0D5FC10BD704700B50220FFF761
:102C4000DBF80128FAD000BD03490888401C088041
:102C5000FEF7A4FFFFF7B0FC4C00002070B50D2874
:102C60000CDA0325434E012809D0042806D0072892
:102C700004D00A2802D1FDF79BFB357070BD0024FB
:102C800035703D493D480D460646FDF7CBFB002813
:102C900004D031462846FDF7D9FB01243649374890
:102CA000083108300D460646FDF7BCFB002804D06D
:102CB00031462846FDF7CAFB01242F4D2F4E243DF7
:102CC000243EA91CB01CFDF7ADFB002807D0E98805
:102CD000FF207D30814202D80320FFF737FC2649D0
:102CE00026481A391A38FDF79DFB002805D0E989D6
:102CF000DC2902D80420FFF729FC698B708B814204
:102D000002D00720FFF722FC29883088814202D0B8
:102D10000520FFF71BFC298B308B814202D0062057
:102D2000FFF714FCA98BB08B814202D00920FFF77A
:102D30000DFCE98BF08B814202D00A20FFF706FCE4
:102D4000298C308C814202D00B20FFF7FFFBA88A30
:102D5000B18A884201D0B0820124E88AF18A88428F
:102D600001D0F08201E0002C01D0FEF717FFFDF743
:102D70001FFB70BDE00600205006002084060020E6
:102D800010B50346002005E044000C5B9C4203D2D2
:102D9000401CC0B29042F7D3904200D3FF2010BD38
:102DA0007FB50023384C0093019320680122120460
:102DB00010432060510005252D0220680840019035
:102DC0000098401C00900198002802D10098A84269
:102DD000F3D12068800354D5012001907D200001AB
:102DE000401EFDD2019801284AD129482749294B84
:102DF000016018681025284318601868C008C000D2
:102E000018601D68022005431D606068606060688E
:102E1000606060681B1518436060606803231B04D2
:102E20009843606020680003000B206060681043D6
:102E3000606003AB02AA1848FDF7DAF920680003C6
:102E4000000B20606946087A097B80060905084363
:102E5000216808432060206801210906084320609A
:102E600020688001FCD56068800880006060606830
:102E700002210843606060680007800F0228FAD1D1
:102E80007FBD01937FBD00000010024000A24A04F4
:102E9000000000200020024000127A0070B52E4988
:102EA0002C4A0B882D492A4C0225127809680D28D6
:102EB0002CD017DC042822D00ADC01281DD00328DE
:102EC0001AD1480601D4080616D5012108201AE0B7
:102ED000072814D00A280FD1012A0DD1C80710D015
:102EE00000210FE010281BD0132822D0162827D04D
:102EF000192801D10720207070BD0520FBE725703F
:102F000070BD01210020FFF721FB70BD0029F6DB19
:102F1000012AFAD1012B01D1012108E0012114E09D
:102F20000029ECDB012AF0D1012BEED10021022097
:102F3000E9E70029E3DB012AE7D1012BEED070BDE0
:102F40000029DCDB012AFAD100210120DBE70000A7
:102F5000E0060020940600206006002040000020CB
:102F600010B500F001F810BD70B5174B586801247A
:102F7000002804D05868401E586000D11C70134DC2
:102F800000210C20484340194268002A09D04268B9
:102F9000521E426005D144700278012A01D1826834
:102FA0004260491CC9B20429EBD39868401C986060
:102FB00098680749884201D10020986000F0D8F94C
:102FC00000F0A0FF70BD00000400002050010020B0
:102FD000FFFFFF7F10B51048016801221143016017
:102FE00041680E4A1140416001680D4A114001607C
:102FF000016801229204914301604168C3221204D6
:10300000914341600168074A114001609F21090412
:103010008160FFF7C5FE10BD001002400CC0FFF834
:10302000FFFFF6FEFFFF8F0070B502214D07284617
:1030300000F054F8204C00280AD00221284600F065
:103040003DF800220221284600F052F8E06880474F
:103050000421284600F042F800280AD0042128461E
:1030600000F02CF800220421284600F041F82069E5
:1030700080470821284600F031F800280AD00821AE
:10308000284600F01BF800220821284600F030F8FE
:10309000606980471021284600F020F800280AD0F7
:1030A0001021284600F00AF800221021284600F0DE
:1030B0001FF8A069804770BD0400002002698A43A0
:1030C000026170470029016802D00122114301E02A
:1030D0004908490001607047406A704702690A4226
:1030E00004D0C068084201D001207047002070471A
:1030F000002AC26801D00A4300E08A43C2607047D8
:1031000001229207904200D089B2416370470122A8
:103110009207904200D089B28163704701229207E2
:10312000904200D089B2C163704701229207904259
:1031300000D089B20164704710B5026803231B02F6
:103140009A430B891A430260124A904206D0012327
:103150009B07984202D0104B984205D10368702417
:10316000A3438C7823430360904205D00B4A9042DE
:1031700002D00B4A904205D1026B8B7A120A1202DE
:103180001A4302634A68C26209888162012141616F
:1031900010BD0000002C014000040040004401402C
:1031A0000048014010B5214CA078C00703D0A0789A
:1031B00040084000A070A078800705D501F024F9F0
:1031C000A078FD210840A070A078400703D5A07822
:1031D000FB210840A070A078000703D5A078F72154
:1031E0000840A070A078C00603D5A078EF21084061
:1031F000A070A078800603D5A078DF210840A070D9
:10320000A078400603D5A078BF210840A070A07820
:10321000C00903D0A0784006400EA070E078C00737
:1032200003D0E07840084000E07010BDF8060020B0
:1032300003484178012901D1002141707047000005
:10324000F806002003480178012901D1002101700E
:1032500070470000F806002010B52D4CA0792D49CC
:10326000C0070BD00878FF22504008702A48037826
:1032700053400370A07940084000A071A0798007F6
:1032800003D5A079FD221040A071A079400703D595
:10329000A079FB221040A071A079000703D5A07986
:1032A000F7221040A071A079C00603D5A079EF22C3
:1032B0001040A071A079800603D5A079DF221040CC
:1032C000A071A079400603D5A079BF221040A0715B
:1032D000A079C00903D0A0794006400EA071E07922
:1032E000C00714D04888401C4880C0070BD0E08934
:1032F0000A49884203D2E089401CE081E089FCF75A
:1033000065FFFEF7E9FDE07940084000E07110BD7F
:10331000F806002064000020B4060020FFFF000033
:1033200010B5124C2079C00705D0FEF779FE207940
:103330004008400020712079800705D5FEF786FE01
:103340002079FD21084020712079400705D5FCF740
:10335000BFFF2079FB21084020712079000703D5A9
:103360002079F7210840207110BD0000F8060020E8
:10337000F0B5464E01203070317A491C3172327AF4
:1033800000210A2A00D33172377A02220424082548
:103390003B0000F0AFFC0A065C5E6164676A6D7218
:1033A000772E737A5B1C7372737A052B00D371725C
:1033B000777A3B0000F09EFC05043D4144481D0027
:1033C000B37A5B1CB372B37A0A2B00D3B172B77AAB
:1033D0003B0000F08FFC0A060F1316191C1F222554
:1033E0002A0E327B521C3273327B782A01D331731E
:1033F0007070F0BDB1790143B171F0BDB079104387
:1034000011E0B07920430EE0B07928430BE0B079A9
:10341000102107E0B079202104E0B079402101E0DB
:10342000B07980210843B071F0BDF1790143F171A9
:10343000F0BD317901433171F0BD3079104301E0C5
:10344000307920433071F0BD30792843FAE7B17804
:1034500015E0B07810430EE0B07820430BE0B07870
:10346000284308E0B178102009E0B078202101E07D
:10347000B07840210843B070F0BDB178802001439E
:10348000B170F0BDF1780143F170F0BDF806002095
:10349000F8B53E4C002560783D4E0727030000F04C
:1034A00029FC06041B44561A1A723A48C17D112998
:1034B00001D3152206E0C17D102901D3142201E0B9
:1034C000C07D132200210120FEF7C8FF00F018FE86
:1034D000606001206070F8BD00F012FE6168411A62
:1034E000FF2091308142F6D3707C2B4A2B49002873
:1034F00007D002206070157008684000400808601E
:1035000011E065702078002802D0401E2070F8BDC0
:103510000120107001220868D20710430860FCF7F0
:1035200017FF022060702770F8BD1D4800F0BAFD3B
:10353000002828D01A4B1A79598818785B1DFEF795
:10354000AFFF0320607000F0DBFD6060F8BD00F0AD
:10355000D7FD6168411AFF2091308142F6D3707D1A
:1035600000280ED1022060702078002809D0401E6B
:103570000B4B20701A79598818785B1D00F0B4FF46
:10358000F8BD6570CFE76570F8BD000068000020E9
:1035900004080020E0060020710000204000002008
:1035A0000C07002010B5024800F05EF810BD0000C6
:1035B000A0010020416170478269520852000A430D
:1035C000826170478068084000D001207047C06861
:1035D000084000D001207047002A026901D00A4348
:1035E00000E08A430261704770B50446C0690D4629
:1035F0003021884329790843E061E0694421884308
:10360000A9790843E061E069297A800880000843CD
:10361000E061A0691821884369890843A061A06915
:1036200004218843297B0843A0610B48844202D1CE
:10363000FFF7B8FA01E0FFF7A5FA06462968FCF79C
:1036400079FD0009206230462968FCF773FD000708
:10365000000F606270BD0000003801404068C0B2D9
:103660007047C9B20160704770B504460068022116
:10367000FFF7ADFF002500281CD002212068FFF7CE
:1036800099FF2068FFF7EAFFE28AA168C0B2885478
:10369000E18A491C8AB2E282E1898A4200D3E5824A
:1036A000628B8A4202D2618B491C6183616A002964
:1036B00000D0884701212068FFF789FF002817D034
:1036C00001212068FFF776FFA08A002811D0618AC7
:1036D0006068415C2068FFF7C4FF608A401C80B2CC
:1036E0006082A189884200D36582A08A401EA082A0
:1036F00070BD002201212068FFF76EFF01212068C4
:10370000FFF760FF0028F9D0206A0028F0D080473A
:1037100070BDF8B515460E4604460068002201212A
:10372000FFF75AFF002D2DD0002024E0A2890121AF
:1037300081F31088A18A6B461980002181F31088DB
:1037400019888A42F3D9315C238A6268D1540121F5
:1037500081F31088218A491C89B22182A289914271
:1037600001D300212182A18A491CA182002181F379
:103770001088401C80B2A842D8D30122114620688C
:10378000FFF72AFFF8BD00000D480C490160014613
:10379000283141603231816032218181C181002133
:1037A00001824182C1820183418381820549C161D5
:1037B0000549016205494162704700000038014037
:1037C000A0010020292C0008392C0008212C000819
:1037D000FEB50746FFF756F86D48C2686D4D0426E2
:1037E00029460A3100911A31029108312C462034C1
:1037F0000191002A19D007464068C117890F09189E
:1038000089088900401A0001801CC1B20020FFF71E
:103810000FF9796803200B0000F06CFA0C575C7DFF
:103820002D8AB6B6939DA3A8ADB6A672A6742E72C5
:103830002E744068C117890F091889088900401A39
:103840000001801CC1B20020FFF7F2F8002F04D065
:10385000012F15D0022F12D124E002214220FDF7C2
:103860007BF9AA1C12214220FDF756FA22214220A0
:10387000009AFDF751FA32214220FDF70BFB83E05D
:1038800002214220FCF7E8FF02217020FDF730F909
:1038900012214220FDF792F922214220FDF752F930
:1038A000029A0DE02A7E0221422000F0FBF812214C
:1038B0004220FCF7DFFD22214220FCF70BFE019A9B
:1038C00032214220FDF73AFB5EE002214220FDF763
:1038D00043F959E0F96801290FD0F868AA1C801E45
:1038E000287212214220FDF717FA2E722E7422211F
:1038F0004220009AFDF710FA46E004462872AA1CFE
:1039000012214220FDF708FA23482E720088012870
:103910003AD12C7405E0F968012901D0F868801EBD
:10392000287422214220009AFDF7F6F92E742BE02C
:1039300002214220FCF790FF02217020FDF7D8F809
:1039400022E0F8683221401EA0724220029AFDF760
:10395000F5FAA67218E02A7E0221422000F0A2F8B1
:1039600012E012214220FCF785FD0DE022214220C9
:10397000FCF7B0FD08E0F8683221401EA074422038
:10398000019AFDF7DBFAA674FEF7F6FEFEBD000015
:10399000E00600202C0600206006002070B5002400
:1039A000FEF770FF0F48456AE00708D0601C2B0740
:1039B000C2B21B0FE000801FC1B2492007E0601CAB
:1039C000C2B2E000801C2B07C1B21B0F0620FCF71F
:1039D000D1FF641C2D09E4B2082CE5D3FEF7CCFE20
:1039E00070BD00009406002038B5FEF74BFF0221A1
:1039F0004220FDF731FB12A00090134800230288FB
:103A000012214220FDF74AF81048114C0088012885
:103A100010A00090228807D0002322214220FCF72A
:103A20002FFFFEF7A9FE38BD002322214220FCF71C
:103A300027FF08A000900023E2883221EEE7000073
:103A40005620202020200000C00600206006002014
:103A5000D2060020412020200000000010B5FEF713
:103A600011FF02214220FCF71BFD12214220FCF72E
:103A70007FFD22214220FDF7EFFA32214220FCF7A0
:103A80005BFDFEF779FE10BD10B5FEF7FBFE044AA4
:103A90001A214620FDF752FAFEF76EFE10BD000017
:103AA0004400002070B50E4BDB68012B04D00D4B99
:103AB000002A11D00CA210E00A4C002501266580D6
:103AC000A680002A234601D007A200E007A2FEF745
:103AD000BFFD6680A58070BD04A2FEF7B9FD70BD74
:103AE000E00600202A000020BFAA0000B9D800008C
:103AF000F8B5324E0D285ED00EDC0024304D04287F
:103B000037D004DC012812D0032854D126E007283E
:103B100039D00A284FD145E013284CD002DC0F28B9
:103B200049D143E0162846D0192844D141E000F09D
:103B300079FEA988234F884209D1012038703C853D
:103B400003203070FCF752FCAC710120F8BDFDF78A
:103B5000B1F9FCF74BFCAC713C702CE01A480068E2
:103B6000410601D4000626D501210820FEF7EEFC0F
:103B700021E0FCF72BFCA879401CC0B2A8710228F8
:103B800019D9AC7117E0FCF721FCA879295C491C14
:103B9000C9B22954092901D9A8792C540848FEF73B
:103BA0008DFF08E0FCF722FC032003E0FFF74CF850
:103BB00001E0072030700020F8BD0000E006002082
:103BC000440000209406002040000020F8B509269B
:103BD0000546F60610213046FEF76BF840213046C8
:103BE000FEF767F80F4F0024280604D50121384658
:103BF000FEF761F803E001213846FEF75AF880210C
:103C00003046FEF756F83C20FCF72BFC802130466E
:103C1000FEF751F86804641C050CE4B2082CE3D3E9
:103C2000F8BD000000040048F8B509260546F60670
:103C300010213046FEF73DF840213046FEF73BF8B4
:103C40000F4F0024280604D501213846FEF733F82B
:103C500003E001213846FEF72CF880213046FEF7BC
:103C600028F83C20FCF7FDFB80213046FEF723F8C6
:103C70006804641C050CE4B2082CE3D3F8BD000012
:103C80000004004870B504460D460120FEF7BEFF53
:103C90006120FEF74FFF0028FAD0FEF75FFE0A4EC4
:103CA0003046FEF7CBF8E0B2FEF7B8F8FEF7C5FFF6
:103CB0003046FEF7C3F82805000DFEF7B7F8FEF70B
:103CC000A5F8FEF78DF870BD555500000FB410B57E
:103CD00004A9074B02AA039800F028F8044602A999
:103CE000002000F009F9204610BC08BC04B01847B9
:103CF000F93E000830B47446641E2578641CAB425B
:103D000000D21D46635D5B00E31830BC184702E03B
:103D100008C8121F08C1002AFAD170477047002056
:103D200001E001C1121F002AFBD17047FFB58DB021
:103D30000F460546002606E025280AD0109A0F995E
:103D400090476D1C761C28780028F5D1304611B0BC
:103D5000F0BD00240121674A009400E004436D1C7B
:103D60002B780846203B98401042F7D128782E281F
:103D700015D10420044368786D1C2A280AD101CF8C
:103D80006D1C00900BE000990A2251433039401815
:103D90006D1C00902878014630390929F3D928781C
:103DA000692843D006DC0028D0D063280BD06428D3
:103DB00004D13BE073280FD075284CD0109A0F998E
:103DC0009047761C94E03878694608720020487263
:103DD00002A80190012003E0386801900020C04350
:103DE0003F1D61070CD5002400E0641C00998C4243
:103DF0000FDA8442F9DB0199095D0029F5D108E069
:103E0000002400E0641C8442FCDB0199095D002968
:103E1000F8D1361907E0019801990078491C019101
:103E2000109A0F999047641EF5D261E00A20019024
:103E300001CF002802DA40422D2102E0210504D5FD
:103E40002B216A461172012103E0E10701D02021F4
:103E5000F7E70C9104E00A20019001CF00210C91BA
:103E60000BA90B9108E00199FCF764F90A460B993C
:103E70003032491E0B910A700028F4D10B9803A927
:103E8000081A20300190600701D5009801E0012058
:103E900000900199884203DD01460198081A00E06C
:103EA00000200024009006E002A8109A005D0F99FF
:103EB0009047641C761C0C988442F5DB04E0109A51
:103EC00030200F999047761C0099481E00900029D9
:103ED000F5DC08E00B980B990078491C0B91109ABF
:103EE0000F999047761C0199481E01900029F1DC3A
:103EF0006D1C28E7092801000A68531C0B6010702C
:103F00007047000010B506490878401CC0B2087020
:103F10000A2803D30020087000F0A0FA10BD0000AA
:103F2000200000200449002804D0012801D180028B
:103F3000486170470420FBE700040048044900285A
:103F400004D0012801D18002086170470420FBE7FA
:103F5000000400480148417C01747047740B002044
:103F600010B500280ED0012800D10220064C606058
:103F70000020207000F0D0F82078012802D060687E
:103F80000028F7D110BD000004000020F8B50D4E48
:103F90000746756900240D480B490068FCF7CAF80C
:103FA0007843B1690246B0698842FCD0884201D2A8
:103FB000091A01E02B1A59180C1901469442F2D340
:103FC000F8BD000000E000E040420F0000000020CB
:103FD00070B50546294900014418206880476900EA
:103FE00005226B180026002832D02179052901D23C
:103FF000227170BD0A2902D2491C217170BD69006D
:10400000A07A6D186D1C002804D10120A072E8B2BE
:1040100000F05CFA21890029F0D0E088884208D2BB
:10402000401C80B2E08021898842E7D1DB1CD8B2F5
:104030000BE0E07A0028E1D0207B401CC0B2207366
:10404000E17A8842DAD32673E8B200F03FFA70BD15
:104050002079052801D922710CE0002802D0401EE9
:10406000207107E0A07A012804D19B1CA672D8B267
:1040700000F02CFAE680267370BD0000B00000202E
:10408000074A917AD07A814201D100207047505C72
:10409000491CC9B291720A29F8D300219172704764
:1040A0004001002030B5144B00211C7C5A7C944206
:1040B00001D1002030BD38226243104D641CE4B2AF
:1040C00052191C740A2C01D300241C741378037039
:1040D00053784370538843801379037105E0531874
:1040E00044185B79491C6371C9B213795B008B4238
:1040F000F5D8012030BD0000740B002054090020C9
:10410000012080F3108803488068002181F3108823
:10411000704700000400002010B5FDF769FE10BDD7
:1041200010B500F015F900F041F8FCF793F800F035
:1041300027F900F0D1F800F057F900F07FF900F00E
:104140001BF903490320FFF79DFDFEF7A1FB10BDFE
:10415000FF0700007FB501210846FEF7D3FC114898
:10416000114900684008FBF7E5FF0021C9430191B0
:104170006946088000240C8101258C70AD078C7283
:104180002846FEF7D9FF01212846FEF79BFF0F20A6
:10419000694608734C730120887303A8FEF7E4F99D
:1041A0007FBD00000000002040420F0010B500F06D
:1041B0004DF800F001F810BD38B50320012140048E
:1041C000FEF794FC01206A4690704820D070402091
:1041D0001D4C108069462046FDF718FD80216A4677
:1041E000118069462046FDF711FDFF2101316A4625
:1041F000118069462046FDF709FD012149026A4602
:10420000118069462046FDF701FD20206A46108096
:1042100069462046FDF7FAFC10206A461080694680
:104220002046FDF7F3FC08206A46108069462046C8
:10423000FDF7ECFC60016A46108009206946C00663
:10424000FDF7E4FC38BD00000004004830B5184814
:10425000002383720246C3726424903A03731946A2
:10426000022508018018048105718372491CC372FC
:10427000C9B203730929F4D3C82010810C48FF2167
:104280002D31503801810B4810600B4810610B48EC
:1042900010620B4810630B4810640B4810650B4804
:1042A00010660B48106702480A491038016030BD9B
:1042B00040010020091F00081D1F0008311F0008D1
:1042C000451F0008591F00086D1F0008811F0008C6
:1042D000951F0008A91F000838B5032001214004DC
:1042E000FEF704FC01206A4690701024D470174D2C
:1042F000108069462846FDF789FC6A461480092427
:10430000E40669462046FDF781FC40216A4611809B
:1043100069462046FDF77AFC80206A46108069468F
:104320002046FDF773FC20206A461080694620462F
:10433000FDF76CFC02206A46108069462846FDF7AE
:1043400065FC02212846FDF7B6FC38BD0004004894
:1043500010B500F06DFA0020064B0246C1005A5419
:10436000C9184A704A80401C8A80C0B2CA80072897
:10437000F4D310BD7800002000B5FFF7EBFD00BDC1
:1043800070B50020134B04460C2141430A46C9185E
:104390004C608C604C709C54401CC0B20428F3D319
:1043A0000D487D21C9000068FBF7C4FE0B49401E83
:1043B00088420BD80A4948610A480723C269120299
:1043C000120A4D042A43C2618C610B61FFF7C2FEE1
:1043D00070BD00005001002000000020FFFFFF0022
:1043E00000E000E004ED00E008B5FFF7CDF9FDF7CF
:1043F0002BFD1B206946087003204870012088703F
:104400006846FEF7B1F808BD10B50020094B0A490F
:104410000122002808D19C68A4040C8802D46408F6
:10442000640000E014430C80401C0006000EF0D035
:1044300010BD0000000800482800002008B5012138
:10444000C804FEF753FB04206946C870C002088008
:104450000148FDF7DBFB08BD0008004810B500244B
:104460002046FFF7B5FD641CE4B2092CF8D310BD5B
:1044700010B509220124D206240313490300FFF7D3
:1044800039FC0705080C12161B1F1100D06860408C
:1044900007E0D0680121C90202E0D068FF210131A4
:1044A0004840D06010BDC8680122D20302E0C8684D
:1044B00001229203504005E0C86801225203F9E747
:1044C000C8686040C86010BD000400480549CA7A49
:1044D0008854C87A401CC0B2C8720A2801D3002090
:1044E000C872704740010020F0B5174D8C466F7CB4
:1044F0003821164E4F43F055687C102748438019E9
:104500004770687C38277843614680194180687C11
:10451000002478438019027150000AE02F2812D835
:10452000697C3827794389191A5D0919641C4A7115
:10453000E4B2A042F2D8687C401CC0B268740A2879
:1045400001D300206874F0BD740B002054090020D2
:10455000F8B5144605460F46052900D34F1F01261E
:10456000B6073046FEF7B8FDC1191C48012D10D022
:10457000022D19D0032D25D0042D22D1846130467F
:10458000FEF7D3FD10213046FEF798FD01221021E1
:1045900014E0C4603046FEF7B3FD02213046FEF75A
:1045A0008DFD0122022109E004613046FEF7AFFDD6
:1045B00004213046FEF782FD012204213046FEF739
:1045C00097FDF8BD44613046FEF7A8FD082130464E
:1045D000FEF774FD01220821F0E70000040000202E
:1045E00070B515460E46FBF715FF040008D0E069CC
:1045F000002800D080472A4631462046FFF789F838
:1046000070BD0000F8B5FFF73BFD0024754D064670
:10461000002805D074480485AC823046FDF7D2FCF2
:10462000297828460327714D0B00FFF763FB0D081F
:10463000212F425569167C8BA1B3C5D11600817814
:1046400005460C2901D1FEF723F9A878297888427C
:1046500004D0FCF719FE2878A870F8BD64480168FA
:10466000491C01600168634A0DE004602F70F8BDC9
:104670000546807829788842EBD15D480168491C5D
:10468000016001685C4A9142EFD0F8BD074680782E
:10469000022804D0FCF75CFD0220B87005E0287801
:1046A000FF2802D1FFF7A0F92C703046FEF75EF923
:1046B000F8BD4C488078032804D0FCF7A1FD494898
:1046C000877005E02878FF2802D1FFF7C7F92C7022
:1046D0003046FEF7E3FBF8BD07468078397888421C
:1046E00004D0FCF70FFD3878B87005E02878FF2873
:1046F00002D1FFF753F92C703046FDF717FBF8BDD8
:1047000007468078052803D0FCF7B6FD052011E0A8
:104710003046FFF7EDF912E02878FF28EFD1FFF7D8
:10472000B3F92C70F8BD07468078072804D0FCF751
:104730008BF80720B870F8BD3046FDF773F90028F4
:10474000EAD0F8BD07468078092807D0B8780A284B
:1047500004D0B878082806D0FBF76CFE0020FBF7E1
:10476000D1FF08200CE02878FF281FD100200DE0A1
:1047700007468078092805D00120FBF7C3FF0920F0
:10478000B87013E02878FF2810D10120FFF720F837
:104790002C700BE0074680780A2804D00220FBF733
:1047A000B1FF0A20ECE72878FF2803D03046FCF759
:1047B0004FFFF8BD0220E9E7817804460B2903D0BA
:1047C000FCF788FB0B210AE03046FEF747FAF8BDFC
:1047D000817804460C29FAD0FCF756FD0C21A17013
:1047E000F8BD0000E00600209406002064000020D0
:1047F00060000020204E0000102700000548002126
:104800000170FF228270C16001614160816081821C
:1048100070470000E00600200148008D704700004E
:10482000600600200148008E7047000060060020EE
:10483000F8B50320002401214004FEF757F90120B8
:10484000694688701020C87005020926F6060D809A
:104850003046FDF7DBF96810694608803046FDF701
:10486000D5F92811694608803046FDF7CFF9E800F0
:1048700069460F4E08803046FDF7C8F9A800694622
:1048800008803046FDF7C2F9680069460880304666
:10489000FDF7BCF969460D803046FDF7B7F92046B3
:1048A00000F008F8641CE4B2072CF8D3F8BD00004F
:1048B0000004004810B5012409222403D2060F4940
:1048C0000300FFF717FA0705070A0E111418060070
:1048D000546110BD0120C00201E0FF200130506191
:1048E00010BD0120C00304E00120800301E001208D
:1048F0004003486110BD4C6110BD00000004004839
:1049000010B5012409222403D2060F490300FFF742
:10491000F1F90705070A0E1114180600146110BDFD
:104920000120C00201E0FF200130106110BD012014
:10493000C00304E00120800301E00120400308617E
:1049400010BD0C6110BD0000000400481649012292
:104950000A804A8000208880C880083908804A8000
:104960008880C880FDF712FF104912208875FFF774
:10497000D7FBFFF743FFFDF7BDF8FCF785FCFDF71C
:10498000A9F9FFF7C9FBFDF7F7FCFEF75BFCFEF7A3
:1049900009FCFEF7C5FCFEF75FFCFEF749FCFFF7DC
:1049A00031FEFEF775FDECE732000020E006002046
:1049B00010B50349088508462430FEF761F810BD9C
:1049C0006006002010B50349088608462C30FEF723
:1049D00057F810BD600600200B000F0016001E00E7
:1049E0002500280037004B006E009600B900DC005F
:1049F0002C0172011E0025002F00280037004B00FB
:104A000050006E0078009B00B900DC00F000FA0056
:104A10002C017C0116001E000F0014001600370048
:104A20001C002500280033003E00960055006E0053
:104A30006E00820000000000000000000000000086
:104A40000000000000000000000000000000000066
:104A50000000000000000000000000000000000056
:104A60000000000000000000000000000000000046
:104A70000000000000000000000000000000000036
:104A80000000000000000000000000000000000026
:104A90000000000000000000000000000000000016
:104AA0000000000000000000000000000000000006
:104AB00000000000000000000000000000000000F6
:104AC00000000000000000000000000000000000E6
:104AD00000000000000000000000000000000000D6
:104AE00000000000000000000000000000000000C6
:104AF00000000000000000000000000000000000B6
:104B000000000000000000000000000000000000A5
:104B10000000000000000000000000000000000095
:104B20000000000000000000000000000000000085
:104B30000000000000000000000000000000000075
:104B40000000000000000000000000000000000065
:104B50000000000000000000000000000000000055
:104B60000000000000000000000000000000000045
:104B70000000000000000000000000000000000035
:104B80000000000000000000000000000000000025
:104B90000000000000000000000000000000000015
:104BA0000000000000000000000000000000000005
:104BB00000000000000000000000000000000000F5
:104BC000001010101010000010000000006C484889
:104BD0000000000000000000001414287C287C283D
:104BE000505000000010384040384870101000004D
:104BF000002050200C70081408000000000000186D
:104C00002020544834000000001010101000000054
:104C10000000000000080810101010101008080014
:104C200000202010101010101020200000107C1008
:104C300028280000000000000000101010FC1010D8
:104C400010000000000000000000001810302000DC
:104C500000000000007C00000000000000000000D8
:104C6000000000303000000000040408081010208C
:104C700020400000003844444444444438000000CC
:104C800000301010101010107C0000000038440498
:104C9000081020447C000000003844041804044438
:104CA00038000000000C141424447C040C000000A4
:104CB000003C20203804044438000000001C204040
:104CC0007844444438000000007C4404080808107C
:104CD00010000000003844443844444438000000C8
:104CE00000384444443C04087000000000000030D8
:104CF00030000030300000000000001818000018DC
:104D00003020000000000C10608060100C000000DB
:104D1000000000007C007C00000000000000C020BB
:104D200018041820C0000000000018240408100017
:104D3000300000003844444C54544C404438000087
:104D40000030102828287C44EC00000000F844447F
:104D500078444444F8000000003C44404040404453
:104D60003800000000F0484444444448F00000008B
:104D700000FC445070504044FC000000007C20289F
:104D80003828202070000000003C4440404C44443F
:104D90003800000000EC44447C444444EC00000033
:104DA000007C1010101010107C000000003C08085F
:104DB000084848483000000000EC4448507048441F
:104DC000E400000000702020202024247C0000004B
:104DD00000EC6C6C54544444EC00000000EC64643F
:104DE0005454544CEC0000000038444444444444BF
:104DF00038000000007824242438202070000000AF
:104E00000038444444444444381C000000F84444FE
:104E100044784844E000000000344C403804046406
:104E20005800000000FC9010101010103800000016
:104E300000EC4444444444443800000000EC444442
:104E4000282828101000000000EC44445454545406
:104E50002800000000C4442810102844C4000000AA
:104E600000EC44282810101038000000007C440892
:104E7000101020447C00000000382020202020203A
:104E800020203800004020202010100808080000D2
:104E9000003808080808080808083800001010281A
:104EA00044000000000000000000000000000000BE
:104EB000000000FC001008000000000000000000DE
:104EC00000000038443C44443C00000000C040580E
:104ED00064444444F80000000000003C4440404466
:104EE00038000000000C04344C4444443C000000F2
:104EF00000000038447C40403C000000001C207C46
:104F0000202020207C000000000000344C44444459
:104F10003C04380000C0405864444444EC000000A5
:104F200000100070101010107C00000000100078BD
:104F3000080808080808700000C0405C4870504825
:104F4000DC00000000301010101010107C00000079
:104F5000000000E854545454FC000000000000D845
:104F600064444444EC0000000000003844444444DD
:104F700038000000000000D8644444447840E00059
:104F8000000000344C4444443C040C000000006C1D
:104F9000302020207C0000000000003C4438044405
:104FA000780000000000207C202020201C00000051
:104FB000000000CC4444444C34000000000000ECED
:104FC0004444282810000000000000EC44545454CD
:104FD00028000000000000CC48303048CC00000021
:104FE000000000EC44242818101078000000007C19
:104FF000481020447C000000000810101010201001
:1050000010100800001010101010101010100000E8
:1050100000201010101008101010200000000000D8
:105020000024580000000000000000000000000004
:10503000000000000000000000007E81A58181BD0D
:105040009981817E0000000000007EFFDBFFFFC32E
:10505000E7FFFF7E00000000000000006CFEFEFE87
:10506000FE7C3810000000000000000010387CFEBC
:105070007C38100000000000000000183C3CE7E70E
:10508000E718183C00000000000000183C7EFFFFFD
:105090007E18183C00000000000000000000183CD2
:1050A0003C18000000000000FFFFFFFFFFFFE7C308
:1050B000C3E7FFFFFFFFFFFF00000000003C664268
:1050C00042663C0000000000FFFFFFFFFFC399BDE8
:1050D000BD99C3FFFFFFFFFF00001E0E1A3278CC00
:1050E000CCCCCC780000000000003C666666663CD4
:1050F000187E18180000000000003F333F303030A9
:105100003070F0E00000000000007F637F636363A5
:105110006367E7E6C00000000000001818DB3CE70A
:105120003CDB1818000000000080C0E0F0F8FEF83A
:10513000F0E0C080000000000002060E1E3EFE3EB1
:105140001E0E0602000000000000183C7E18181811
:105150007E3C180000000000000066666666666619
:10516000660066660000000000007FDBDBDB7B1B67
:105170001B1B1B1B00000000007CC660386CC6C6F1
:105180006C380CC67C00000000000000000000002D
:10519000FEFEFEFE000000000000183C7E181818FD
:1051A0007E3C187E000000000000183C7E18181895
:1051B00018181818000000000000181818181818FF
:1051C000187E3C18000000000000000000180CFED3
:1051D0000C1800000000000000000000003060FE1D
:1051E0006030000000000000000000000000C0C0AF
:1051F000C0FE0000000000000000000000286CFE5F
:105200006C28000000000000000000001038387C0E
:105210007CFEFE000000000000000000FEFE7C7C22
:1052200038381000000000000000000000000000FE
:1052300000000000000000000000183C3C3C181872
:1052400018001818000000000066666624000000C0
:1052500000000000000000000000006C6CFE6C6CA0
:105260006CFE6C6C0000000018187CC6C2C07C0686
:105270000686C67C1818000000000000C2C60C1884
:105280003060C686000000000000386C6C3876DCA8
:10529000CCCCCC7600000000003030306000000044
:1052A000000000000000000000000C18303030301A
:1052B0003030180C00000000000030180C0C0C0CF2
:1052C0000C0C1830000000000000000000663CFFDD
:1052D0003C66000000000000000000000018187E7E
:1052E000181800000000000000000000000000008E
:1052F000001818183000000000000000000000FE38
:10530000000000000000000000000000000000009D
:1053100000001818000000000000000002060C1831
:105320003060C080000000000000386CC6C6D6D6D1
:10533000C6C66C380000000000001838781818182D
:105340001818187E0000000000007CC6060C1830FB
:1053500060C0C6FE0000000000007CC606063C06D9
:105360000606C67C0000000000000C1C3C6CCCFE55
:105370000C0C0C1E000000000000FEC0C0C0FC06AB
:105380000606C67C0000000000003860C0C0FCC6F5
:10539000C6C6C67C000000000000FEC606060C184B
:1053A000303030300000000000007CC6C6C67CC62D
:1053B000C6C6C67C0000000000007CC6C6C67E06CD
:1053C00006060C780000000000000000181800001D
:1053D000001818000000000000000000181800006D
:1053E0000018183000000000000000060C183060A3
:1053F00030180C060000000000000000007E0000D5
:105400007E000000000000000000006030180C0664
:105410000C1830600000000000007CC6C60C181894
:1054200018001818000000000000007CC6C6DEDE70
:10543000DEDCC07C00000000000010386CC6C6FE38
:10544000C6C6C6C6000000000000FC6666667C6634
:10545000666666FC0000000000003C66C2C0C0C07A
:10546000C0C2663C000000000000F86C666666661C
:1054700066666CF8000000000000FE6662687868EE
:10548000606266FE000000000000FE6662687868E8
:10549000606060F00000000000003C66C2C0C0DE3A
:1054A000C6C6663A000000000000C6C6C6C6FEC6F4
:1054B000C6C6C6C60000000000003C181818181820
:1054C0001818183C0000000000001E0C0C0C0C0CFE
:1054D000CCCCCC78000000000000E666666C7878E2
:1054E0006C6666E6000000000000F06060606060CE
:1054F000606266FE000000000000C6EEFEFED6C63A
:10550000C6C6C6C6000000000000C6E6F6FEDECE37
:10551000C6C6C6C60000000000007CC6C6C6C6C619
:10552000C6C6C67C000000000000FC6666667C60A3
:10553000606060F00000000000007CC6C6C6C6C601
:10554000C6D6DE7C0C0E00000000FC6666667C6C35
:10555000666666E60000000000007CC6C660380C87
:1055600006C6C67C0000000000007E7E5A1818188F
:105570001818183C000000000000C6C6C6C6C6C603
:10558000C6C6C67C000000000000C6C6C6C6C6C6A9
:10559000C66C3810000000000000C6C6C6C6D6D6CD
:1055A000D6FEEE6C000000000000C6C66C7C3838E9
:1055B0007C6CC6C6000000000000666666663C188B
:1055C0001818183C000000000000FEC6860C1830B9
:1055D00060C2C6FE0000000000003C3030303030B9
:1055E0003030303C0000000000000080C0E0703827
:1055F0001C0E06020000000000003C0C0C0C0C0C01
:105600000C0C0C3C0000000010386CC600000000C0
:10561000000000000000000000000000000000008A
:105620000000000000FF0000303018000000000003
:1056300000000000000000000000000000780C7C6A
:10564000CCCCCC76000000000000E06060786C6696
:105650006666667C0000000000000000007CC6C09A
:10566000C0C0C67C0000000000001C0C0C3C6CCCD0
:10567000CCCCCC760000000000000000007CC6FE10
:10568000C0C0C67C000000000000386C6460F060A0
:10569000606060F000000000000000000076CCCCEC
:1056A000CCCCCC7C0CCC78000000E060606C7666E2
:1056B000666666E60000000000001818003818183A
:1056C0001818183C0000000000000606000E060630
:1056D0000606060666663C000000E06060666C78C0
:1056E000786C66E6000000000000381818181818DA
:1056F0001818183C000000000000000000ECFED666
:10570000D6D6D6C6000000000000000000DC6666A9
:10571000666666660000000000000000007CC6C6E9
:10572000C6C6C67C000000000000000000DC666603
:105730006666667C6060F000000000000076CCCCFD
:10574000CCCCCC7C0C0C1E000000000000DC76668B
:10575000606060F00000000000000000007CC66097
:10576000380CC67C000000000000103030FC3030E7
:105770003030361C000000000000000000CCCCCC13
:10578000CCCCCC760000000000000000006666660D
:1057900066663C18000000000000000000C6C6D687
:1057A000D6D6FE6C000000000000000000C66C3879
:1057B00038386CC6000000000000000000C6C6C6F5
:1057C000C6C6C67E060CF8000000000000FECC181D
:1057D0003060C6FE0000000000000E181818701897
:1057E0001818180E000000000000181818180018EB
:1057F00018181818000000000000701818180E186B
:105800001818187000000000000076DC000000008E
:1058100000000000000000000000000010386CC60E
:10582000C6C6FE000000000000003C66C2C0C0C04A
:10583000C2663C0C067C00000000CC0000CCCCCC46
:10584000CCCCCC7600000000000C1830007CC6FEEA
:10585000C0C0C67C000000000010386C00780C7CD2
:10586000CCCCCC76000000000000CC0000780C7C92
:10587000CCCCCC76000000000060301800780C7CA6
:10588000CCCCCC760000000000386C3800780C7C62
:10589000CCCCCC7600000000000000003C666060CC
:1058A000663C0C063C0000000010386C007CC6FE14
:1058B000C0C0C67C000000000000C600007CC6FE20
:1058C000C0C0C67C0000000000603018007CC6FE2E
:1058D000C0C0C67C00000000000066000038181838
:1058E0001818183C0000000000183C660038181812
:1058F0001818183C00000000006030180038181814
:105900001818183C0000000000C60010386CC6C60D
:10591000FEC6C6C600000000386C3800386CC6C62B
:10592000FEC6C6C60000000018306000FE66607C3F
:10593000606066FE000000000000000000CC7636CB
:105940007ED8D86E0000000000003E6CCCCCFECCAF
:10595000CCCCCCCE000000000010386C007CC6C659
:10596000C6C6C67C000000000000C600007CC6C69B
:10597000C6C6C67C0000000000603018007CC6C6A9
:10598000C6C6C67C00000000003078CC00CCCCCC71
:10599000CCCCCC76000000000060301800CCCCCC21
:1059A000CCCCCC76000000000000C60000C6C6C605
:1059B000C6C6C67E060C780000C6007CC6C6C6C633
:1059C000C6C6C67C0000000000C600C6C6C6C6C665
:1059D000C6C6C67C000000000018183C6660606007
:1059E000663C18180000000000386C6460F06060CD
:1059F0006060E6FC00000000000066663C187E184F
:105A00007E1818180000000000F8CCCCF8C4CCDEDA
:105A1000CCCCCCC600000000000E1B1818187E1855
:105A200018181818D87000000018306000780C7C26
:105A3000CCCCCC7600000000000C183000381818D0
:105A40001818183C0000000000183060007CC6C622
:105A5000C6C6C67C000000000018306000CCCCCC6C
:105A6000CCCCCC7600000000000076DC00DC666662
:105A7000666666660000000076DC00C6E6F6FEDEBE
:105A8000CEC6C6C600000000003C6C6C3E007E0026
:105A9000000000000000000000386C6C38007C0042
:105AA00000000000000000000000303000303060D6
:105AB000C0C6C67C00000000000000000000FEC060
:105AC000C0C0C00000000000000000000000FE0692
:105AD000060606000000000000C0C0C2C6CC183098
:105AE00060DC860C183E000000C0C0C2C6CC183076
:105AF00066CE9E3E06060000000018180018181812
:105B00003C3C3C18000000000000000000366CD84F
:105B10006C360000000000000000000000D86C3669
:105B20006CD80000000000001144114411441144DD
:105B3000114411441144114455AA55AA55AA55AA15
:105B400055AA55AA55AA55AADD77DD77DD77DD7709
:105B5000DD77DD77DD77DD77181818181818181835
:105B6000181818181818181818181818181818F8D5
:105B700018181818181818181818181818F818F8E5
:105B8000181818181818181836363636363636F6E5
:105B9000363636363636363600000000000000FE57
:105BA00036363636363636360000000000F818F83D
:105BB00018181818181818183636363636F606F625
:105BC0003636363636363636363636363636363675
:105BD00036363636363636360000000000FE06F61B
:105BE00036363636363636363636363636F606FEFD
:105BF000000000000000000036363636363636FE2D
:105C000000000000000000001818181818F818F814
:105C1000000000000000000000000000000000F88C
:105C20001818181818181818181818181818181FED
:105C3000000000000000000018181818181818FFBD
:105C4000000000000000000000000000000000FF55
:105C50001818181818181818181818181818181FBD
:105C6000181818181818181800000000000000FF75
:105C7000000000000000000018181818181818FF7D
:105C8000181818181818181818181818181F181F86
:105C90001818181818181818363636363636363793
:105CA0003636363636363636363636363637303F90
:105CB000000000000000000000000000003F30373E
:105CC00036363636363636363636363636F700FF20
:105CD00000000000000000000000000000FF00F7CE
:105CE0003636363636363636363636363637303758
:105CF00036363636363636360000000000FF00FFF6
:105D000000000000000000003636363636F700F797
:105D100036363636363636361818181818FF00FF5D
:105D2000000000000000000036363636363636FFFA
:105D300000000000000000000000000000FF00FF65
:105D4000181818181818181800000000000000FF94
:105D50003636363636363636363636363636363FDA
:105D6000000000000000000018181818181F181F65
:105D7000000000000000000000000000001F181FCD
:105D80001818181818181818000000000000003F14
:105D9000363636363636363636363636363636FFDA
:105DA00036363636363636361818181818FF18FFB5
:105DB000181818181818181818181818181818F883
:105DC0000000000000000000000000000000001FB4
:105DD0001818181818181818FFFFFFFFFFFFFFFF0B
:105DE000FFFFFFFFFFFFFFFF00000000000000FFBC
:105DF000FFFFFFFFFFFFFFFFF0F0F0F0F0F0F0F02B
:105E0000F0F0F0F0F0F0F0F00F0F0F0F0F0F0F0F9A
:105E10000F0F0F0F0F0F0F0FFFFFFFFFFFFFFF0011
:105E20000000000000000000000000000076DCD848
:105E3000D8D8DC7600000000000078CCCCCCD8CCE0
:105E4000C6C6C6CC000000000000FEC6C6C0C0C06A
:105E5000C0C0C0C00000000000000000FE6C6C6C00
:105E60006C6C6C6C00000000000000FEC660301816
:105E70003060C6FE0000000000000000007ED8D8A0
:105E8000D8D8D87000000000000000006666666682
:105E9000667C6060C00000000000000076DC18181E
:105EA00018181818000000000000007E183C6666F4
:105EB000663C187E00000000000000386CC6C6FE7C
:105EC000C6C66C38000000000000386CC6C6C66C40
:105ED0006C6C6CEE0000000000001E30180C3E667A
:105EE0006666663C0000000000000000007EDBDB10
:105EF000DB7E00000000000000000003067EDBDB0C
:105F0000F37E60C00000000000001C3060607C6018
:105F10006060301C000000000000007CC6C6C6C6E1
:105F2000C6C6C6C60000000000000000FE0000FE5D
:105F30000000FE00000000000000000018187E189D
:105F4000180000FF0000000000000030180C060CD4
:105F50001830007E000000000000000C1830603097
:105F6000180C007E0000000000000E1B1B18181803
:105F700018181818181818181818181818181818A1
:105F8000D8D8D87000000000000000001818007E6B
:105F90000018180000000000000000000076DC007F
:105FA00076DC00000000000000386C6C3800000057
:105FB00000000000000000000000000000000018C9
:105FC00018000000000000000000000000000000B9
:105FD0001800000000000000000F0C0C0C0C0CEC72
:105FE0006C6C3C1C0000000000D86C6C6C6C6C008D
:105FF00000000000000000000070D83060C8F80009
:106000000000000000000000000000007C7C7C7CA0
:106010007C7C7C000000000000000000000000000C
:106020000000000000000000A1A30000000000002C
:106030000000000000000000600090009000600080
:106040000000A1B600000090009001200120024055
:10605000024001200120009000900000A1B7000044
:1060600090009000480048002400240048004800A8
:10607000900090000000A3AC0000000000000000B1
:106080000000000000001800180018003000000098
:10609000A3BA000000003000300000000000000043
:1060A00030003000000000000000B0B204007FF0BB
:1060B000401084200400FFF00880108019000700C1
:1060C00018C0E020B0D7040008407FE040404040C6
:1060D00040407FC04040404040407FC04040B1CC45
:1060E0001080FBE02220FBE02220FBE00000FFF01C
:1060F00010003FC050409FC0B2D927C02440F7C015
:1061000020003EE06AA0AEE021003FF02540A9203B
:106110005110B3A410401080110016001820FFF099
:1061200014001200110010801C701000B3CC1BE092
:10613000E2202220FBE0200067F07080A880A3E02E
:10614000208020A02FF0B4C7188077F01120FD40E8
:10615000108017F0788048804FF078804880008069
:10616000B7AB204023E0FA40AA40AA40AB40AAC007
:10617000BA40AA50245024502830B8BB02007FF007
:106180004010BFC000001F8010803FC024403FC0AF
:1061900024403FC0B8CB204023E0F880208060A09E
:1061A00077F0A880A0802080208020802080B9C245
:1061B0000060F7801540254025403540E5402540EA
:1061C00029202960B1D04000B9CA2100210029202E
:1061D000FDF02240254079404880488079404220A7
:1061E0000C10B9E3040002203FF020002000200042
:1061F000200020002000400040008000BAC60100BE
:10620000450027E0890049203FF02000CFE04820EA
:1062100048204FE04820BAD7208021E0FD20A5A0EB
:106220005160FD0051F07C1051D07C1050507C200A
:10623000BBA8088008A0FFF0088011001160318021
:10624000530095101110111010F0BBC608807FE0AC
:106250000880FFF002003FC022403FC022403FC004
:1062600008807060BCCA1000FBF09000A020CFF046
:10627000A08092A0D2A0A490889082808100BCFBD4
:1062800000803FC0208024802480248024802480BB
:106290000A000A101210E1F0BDAD400020400FF0DE
:1062A00081005100110021002100C10041205FF058
:1062B0004000BEA13FC0204020403FC0220021003E
:1062C0002C8042404030980006000100BFD50400F9
:1062D00002007FF0801011802060C0203FC00400C9
:1062E00004000420FFF0C0B30880FFF00A807FE0C4
:1062F00022401280FFF00B0012802240C2300200C8
:10630000C0EE02207FF00B0012802270DFA001009F
:106310000220FFF002000A000400C0FD10101F90D0
:10632000245027506950A950355022502210241073
:1063300028503020C1EA0100F7E09100AFF0C280A0
:10634000A4409A2097C0EA80910086C09830C1F797
:1063500001004FF0210082404FE0202025402540E1
:10636000C550455049505130C2A521002920254033
:10637000FFE023407530A200AFE02480230026C058
:106380003820C3CF3FC001000200FFF0020006002A
:1063900000003FC029402940FFF00000C7EB01206A
:1063A0004FF0210007E0E1002FF0242027E02C200F
:1063B00037E024200460C8BB210021403D2047F085
:1063C0004900A98012402420D81002404920892089
:1063D000C8CB0400040004000400040006000A0006
:1063E00009001080204040308020C8FD00407FE040
:1063F0000000000000803FC00000000000000020FE
:10640000FFF00000CBCD0840448021000FE00100E8
:10641000EFE0210022802460282050008FF0CCEC97
:1064200000407FE004000400FFF0040004000600C8
:10643000090010802070C020CEA80280F24097F0A2
:1064400094809C8097F09480F7F0848004A007F0FB
:106450000400CEF70020FFF009007FE0492049202A
:10646000492051E0602040207FE04020CFC2002042
:10647000FFF0040004000600050004C0044004000E
:10648000040004000400D1CC200027F02490A49044
:10649000B7F0A490249025502630541097F00410A3
:1064A000D1EF200027C0F8802100222037F062A021
:1064B000A2A024A02920A2A06440D2A120C027002D
:1064C000F12024A0204037E0E5002FF02100292012
:1064D000AFE06820D3B07C2044407C804500FE20A3
:1064E00000407C8045107C20504094803100D4B620
:1064F00000404FE020001FF00480E48024802490BE
:106500002890207050008FF0D4C21FC0104010405F
:106510001FC0104010401FC010401040204042409B
:106520008180D5DF04203F4004800520FFF0040077
:106530001FC03040DFC010401FC01040D6AE040066
:10654000020002007FC00080010002000400080079
:106550003000580087F0D6DD1020122012201220C3
:106560005B2056A092A01220122022202220402040
:10657000D7F71200122027F025006900B1F02100A2
:10658000210021F0210021002100B3D801004100A9
:106590002520857047A04D2025202560C500451089
:1065A000441043F0B3E40200FFF004000880104000
:1065B0003FA009000900091011102110C0F0B3F626
:1065C00004002440244024403FC0244004004420D0
:1065D000442044207FE04020B5E7040004407FE0F1
:1065E000444044407FC0444044407FC004100410F5
:1065F00003F0C1F701004FF0210082404FE020205E
:1066000025402540C550455049505130C8EB040045
:10661000040002000200020005000500088010804E
:106620002040C0300000CAE421002180F24045B083
:10663000A800F710255037506550A7502510253079
:10664000D1B900203FF02000220022402FE022009C
:106650002280424042208200BFF0B9A400407FE087
:1066600004000400040004000400040004000420EA
:10667000FFF00000BFD82100208027F0FC1022404E
:1066800034206000A7E021002100A1004FF0C0E00D
:10669000248015000420FFF0158024604400FFF0E2
:1066A0000600090010C0E030CCAC04000420FFF06C
:1066B0000A000900148062700400522052109050A9
:1066C0000FC0D0CD0020FEA028A0FEA028A028A0AA
:1066D00048208A6002003FE00200FFF0D5CF0100B1
:1066E00077E052405FF0642057E0542057E06100AB
:1066F0005FF041004100D6C6102050207EA090A03F
:10670000FEA010A07EA052A052A0522056A0106061
:10671000D7B411001140912051005FF011003100F9
:1067200051809240124014201810B4CE040084000E
:1067300047E04820294021004100C2804280444077
:1067400048203010B5B910103F9024106A507F5087
:10675000A05024503F50245027103C502020B6AF6A
:1067600000807880008003F0FC9010902090491009
:10677000FD10421004501820B7C520801080012061
:10678000FDF022403D402940288048804940922029
:106790008410BCC640802080208000A0EFF02080C4
:1067A000208020802880308020800080CAB1004076
:1067B0000040F8408FF08840FA4089408940F84016
:1067C0008840014000C0D2D100007FC0004040405E
:1067D00040407FC0400040004020402040203FE03B
:1067E000D7D4020004403FE0204020403FC020407A
:1067F00020403FC020403FC02040D7E9200027E094
:1068000044209420E7E024204420F7E00420F420F2
:1068100004201FF0B3A700203FF02000200020003C
:106820002000200020002000400040008000BBA786
:10683000040002203FF0202020203FE02000200024
:106840002000200040008000C2EB0040FFE022401A
:106850002240724057F0D010501057D0701041A015
:106860000040C3DC02007FF044109120524054A04D
:106870002F80C200224022403FC02040D3C30020CE
:106880003FF0222022203FE0222022203FE0222051
:10689000422042A08260BCEC210021802240F430E2
:1068A0002BE06000B020A520A520254020402FF03F
:1068B000C4EA10401FF0220042009FE012001200C4
:1068C000FFF00200020002000200B0E6106053C0B8
:1068D000520052007BE042207AA052A0544054C0A3
:1068E00099209610B1BE04000420FFF006000D00B0
:1068F0001500148024405FB0840004000400B8B484
:1069000010203FF050409FC010401FC008001F8063
:1069100028804500870038F0BBBB220023C02480BC
:10692000F9002FE03520E5203FF021002280A4402F
:106930005830BBFA204023E0FA40224062407240C7
:10694000AA40A2402240225024502830BCB1080066
:106950001F0022407FE080403FC000403FC0040055
:10696000522090900F80BCC7402027F020200020AC
:10697000E02027E0240024002C103410241003F021
:10698000BEA71F8010801F8010801F80000079E04C
:10699000492079E0492079E04920C0FA00203FF001
:1069A000220022003FE022202220222044204420F6
:1069B0008940B080C2BC3F8000803F800080FFF0F3
:1069C000244016800D003480C47014200800C6F4E2
:1069D000040002003FE020203FE0200020002FE0E4
:1069E000482048208FE00820C7BFF7E0142014207B
:1069F000F7E0810087E0F52017E015001120AFF0E7
:106A00004010CAB7020002203FF0222022203FE0BF
:106A100022000A0004000A001180E070CAD601C0FA
:106A20007E00020002407FE002000220FFF0020030
:106A300002000A000400D2BA010041002FF0848055
:106A400054E029205AA0CD404940488049404E306A
:106A5000D3A6040002207FF040004440544052403E
:106A60004A80488041004020BFF0D6D803803C00D7
:106A70000420FFF024403FC024403FC004007FE0DA
:106A80000400FFF0D6F7080004407FE00400040093
:106A900004803FC00400040004000420FFF0D7AAD3
:106AA00020802080F7E0410057F0F90013E0182023
:106AB0007040D38010C01040BCE4202017F040206C
:106AC0004F2049204F20492049204F20482040A0F6
:106AD0004060CAA3061078500850FFD02A50EB50EF
:106AE0002A50EB5018502C504A108930CAFD94801F
:106AF0005880FDF031205A2090402140FD404880D0
:106B000030802940C630D3E004000A001100208004
:106B10005F4084307FE005001480244054208C10B6
:106B2000C4A322402FF02240F7E0242077E0AC20DD
:106B3000A7E021002FF022402C30C4E220202520A5
:106B4000FCA024A0242034206420A54026602490AA
:106B5000A3104C00D1A10100454027E0090001200D
:106B6000EFF0228022902490287050008FF0D4F112
:106B700027E02240FA80210026C03930E7C02100FA
:106B80002FF02100A1004100B1B3092079C0090014
:106B900039F0C0001FC010401FC010401FC010407F
:106BA00010C0B1B808800FC01880250046001980B9
:106BB0002070DFC012401FC012401FC0B9A60100E4
:106BC0001100F92027F02120212021203920C22086
:106BD000042008A03040B9D81080090002407FE0AE
:106BE00004000420FFF00400050008803040C0309D
:106BF000B9E202002240124012800220FFF0090098
:106C00000900091011102110C0F0BFAA00407FE058
:106C10000880088008A0FFF008800880108010809D
:106C20002080C080C2CA0200FFF0042049402E80AC
:106C300015406FA082100200FFF002000200C9E8B8
:106C400047C0244024400440E83027C0244022802C
:106C50002A80310026C01830B5D801002100252037
:106C60002570F5A02F2025202560350064108410A4
:106C700003F0B9AB0A000900110010802040443035
:106C800084200800110020803FC00040CABE0040A0
:106C90007FE000000020FFF002001280124022205E
:106CA00042108A100400CBBE7FE0002000207FA0AD
:106CB00000203E20222022203E20222000A0004052
:106CC000CDA80FE0428021000FE00920EFE029204D
:106CD0002FE02920296050008FF0CFD400403FE002
:106CE00020403FC020403FC0490029202940298042
:106CF0000920FFF0D0C5120011202FF0200067E01E
:106D0000A00027E0200027E0242027E02420D6B59B
:106D100011201FF0210027E06420A7E0242027E0B5
:106D2000242027E024202FF0D6B700802080208068
:106D30002480F48024F02480248024803480C4A023
:106D40001FF0D1B240002490249005200920EA4091
:106D50002920249024902000580087F0B1A31040EF
:106D600017E02440244067C0A1003FF023002580A5
:106D7000294031302100B2CE040008803FC00420F9
:106D8000FFF0110024C05930A60018C003007C0099
:106D9000B4E60420FFF0080017E0204020806120C6
:106DA000BFF02100210025002300B7F10020FFF0F3
:106DB00004000D801460643084403FC020402040B7
:106DC0003FC02040B8C401000900FD200BF00A407C
:106DD0007D40494041404880708043401C30C8A1FC
:106DE0000800FC004BE048207920494079404C8065
:106DF0007880C9400A200C10CAC71F8010801F80ED
:106E000010801F800020FFF0020013E012002E000F
:106E1000C3F0CFFB410025201340810047E0142040
:106E200027E02420C7E0442044A04460D0DE2200B4
:106E300023E042205540D08053605490534054800A
:106E4000532040C04700B4FD1100214047E011002D
:106E50002FF06040AFF020402440244021402080AB
:106E6000CEDE00407FE0040004000420FFF00500B7
:106E70000500091011102110C0F0B8A100E04F006A
:106E8000202085404FE0208021205FF0C10041009C
:106E900045004300BEF92100210023F0FA10241020
:106EA0002990201020D03B10C01000A00040CFE05F
:106EB000102013F01220FE2013E012205A2057E079
:106EC0009220922013E01220A1B7000090009000C1
:106ED000480048002400240048004800900090002A
:106EE0000000CDA321002FF0400047C0C44047C0A0
:106EF00040005FF050104FE041004300D6B902005F
:106F0000020002001200124013E0120012001200F0
:106F100012001220FFF0B4ED214021403BE041403F
:106F20007940A7F02000FBE022202BE0322023E074
:106F3000B5CD10E01F00288028A06FF0A880288021
:106F400028802A902C50295020B0B7A7202017F075
:106F500040A04A2053A0762052A05320556058E00C
:106F600040204060B7C002007900482057F062001E
:106F700053E04A204A207220442048A05040B7E7FE
:106F800000403FE0204032402A40244024402A4034
:106F90003150415040308010B7F8202027F0F800E1
:106FA00043E0A220FBE0200037F0E49027F024909B
:106FB00027F0B8DF0420FFF000001F8010801F8042
:106FC00000207FF040204F2049204F60B9FD404015
:106FD000204020400FF00040E4402240204021406B
:106FE000208050008FF0C6D510807FE00900294036
:106FF0001980FFF000003F8020803F8020803F808C
:10700000C8A8200027E0F8202220322069406940EB
:10701000A0802080214022202C10C9E410207C2058
:1070200044207FF044207C204520FCA014A0242094
:1070300044A08C40CADA20E02F0024A0F2A02FF058
:10704000301067C0A04022402180A2406C30CBD9D4
:1070500001204FF021002FE00920EFE029202380BC
:107060002540292051008FF0CEF3002047F0242046
:1070700007E0E00027F021002FF0210032802440BB
:107080001830CFDE0000F7E09420A7E0A42097E0BE
:107090009400D560A480854086208410D2F2002020
:1070A0007FF0442044205FA044204620492050A087
:1070B00060207FE04020D4D811007D401120FFF0F7
:1070C0002100FD2051207D401080FC901150163091
:1070D000B5A5108009003FC024403FC024403FC0F8
:1070E00024000420FFF004000400CBAB0000FBE010
:1070F0000A204A20294011401080288028804940D9
:1071000082200C10B1D5202057F0422042205FA0F1
:1071100046204A20522062204A2044204060B6CCBB
:10712000202027F0380053E09220FE2013E01000CA
:107130002A202A4041408FF0BBF0040004000400E4
:1071400004402440248045000A000900108020707B
:10715000C020C1AA0460FA40528077E051007FF05D
:1071600051005900F140114012201410C2B7010023
:1071700079E04A204D40788011405A3057E0522043
:107180005A20E3E00220C7B7080008001FE01020E3
:1071900022404200020005000500088010406030D7
:1071A000C8B1210021007D0093E01120FD2013F0E3
:1071B000550055807D4042200C10CEBB120011407E
:1071C0002FF020006440A4402240224022802280F0
:1071D00020802FF0D0D0104027E0D00010002FF0FA
:1071E0006040A04020402040204022402180D4CB5D
:1071F000004047E0200000000FF0E2002280244021
:107200002FE0200050008FF0B1B6110011202FF0B8
:107210006440A2802FF0200027E02420242027E0D3
:107220002420B3A3248015007FF040109FA010807D
:107230001F8004003FC0244024C00400D0A7208049
:107240001080FD0029F04620882029201140108060
:10725000288041608610D3D004000420FFF008008D
:107260001FC030405FC090401FC0104011401080D0
:10727000FFFFA1A3000000000000000000000000CC
:1072800000000000000000003C0066006600660090
:107290003C000000A3AC0000000000000000000063
:1072A0000000000000000C001E001E000C00040086
:1072B000080010000000B0B2020001007FFE400292
:1072C000820402000204FFFE042008201820064069
:1072D000018002400C303010B1CC0440FE8811FC1B
:1072E0007D0811F81F08F1F800087FFC0400081061
:1072F0001FF82810C8100FF00810B2D9101011F89C
:10730000111011F0FC0417BE14A41FBC3040D0446F
:107310001FFE10E01150124E54442040B3A4080048
:10732000081008300840088009000804FFFE090022
:107330000900088008400820091C0E080800B3CC8A
:1073400008041DFEF10411041104FF0411FC3800AF
:1073500037FE5420502891FC1020102417FE1000F6
:10736000B4C708401C20F02811FC10001488FE50FF
:10737000100415FE7E20442845FC442044207C2037
:107380004420B7AB100810FC14887E88548854C879
:1073900054A854A8548854885C885488110A110A47
:1073A00012061400B8BB020001007FFE40229FF4C9
:1073B00000001FF010101FF000083FFC21083FF8EC
:1073C00021083FF82008B8CB1000100811FC10204D
:1073D000FC20102030243BFE542050209020102010
:1073E0001020102010201020B9C200087C3C07C0DB
:1073F0000A101290129016901A903290D290129019
:10740000129014A815EE58242000B9CA104010405C
:1074100010401444FEFE1108128810887C884488AD
:107420004450442044207C50448E0304BAD70820A2
:1074300008487FFC528890A828887EA8A8903E849F
:1074400028FE3E04282429F43E0420142008BBA86A
:1074500008200824FFFE08200820088010881098C3
:1074600030A050C09080118012821482107E1000D3
:10747000BBC6044004503FF804400444FFFE011022
:107480001FF811101FF011101FF0100004601818E1
:107490006004BCCA00087DFC440048004800500459
:1074A0004BFE4820442044A844A469225222402094
:1074B00040A04040BCFB00101FF81010111011102C
:1074C000111011101110111012101290048004826A
:1074D0000882307EC000BDAD4000300817FC00407F
:1074E000804060402040084010402040E040204064
:1074F00020442FFE20002000BEA100081FFC100821
:1075000010081FF8110810801080104016202190DC
:10751000400E8604018000C00040BFD5020001007B
:107520007FFE400284440C301018200800003FF811
:107530000100010001000104FFFE0000C0B30820AB
:107540000824FFFE092001087FFC010009200544F2
:10755000FFFE038005400930310EC1040100C0FD6B
:10756000100410441FE42204221467D4A4542854A5
:107570003494229421142204240428042014200882
:10758000C1F70080404837FC10408090610827FC1C
:10759000080411502150E150215021522152224E15
:1075A0002440C2A51040124811501044FFFE115053
:1075B0003A4C344450805FFE9108120811B01040DC
:1075C00011B01608C7EB004847FC204023F80040E4
:1075D000EFFE200823FC220823F8220823F82A08BB
:1075E000320822280210C8CB01000100010001006E
:1075F000010001000100028002800280044004407A
:1076000008201010200E4004C8FD000000087FFC78
:1076100000000000000000103FF800000000000023
:1076200000000004FFFE00000000CCEC00087FFC1E
:107630000100010001000104FFFE01000280028040
:107640000440044008201010200EC004CEA8008082
:1076500008A07C9449FE49104B104DFC491049107C
:1076600049FC49107910491401FE01000100CEF7D0
:1076700000000004FFFE0440044004447FFE444434
:107680004444444444444834500440047FFC40048F
:10769000CFC20004FFFE020002000200028002408E
:1076A000023002100200020002000200020002008A
:1076B0000200D1CC200427FE240424442C44B444EA
:1076C000A7FCA444244424A42494250C560C4C0464
:1076D00087FC0404D1EF100013F810101020FC40B8
:1076E000108417FE18A430A4D0A41124114412440D
:1076F000148451282010D2A11008103C17C0124841
:10770000FD48115016001BFC3440D0441FFE1040B1
:107710001248124853F82208D3B000843FC420888E
:107720003F9020A03F840404FFE800103FA2208285
:107730003F841508249054A00840D4B6001043F8A4
:1077400030001000000807FCF12011201120112446
:107750001224121C1400280647FC0000D4C200109A
:107760000FF80810081008100FF008100810081083
:107770000FF0081008101010101020504020D6DD17
:10778000100410841084108454A452945294908451
:107790001084108410841084208420844004000409
:1077A000D7F709000900090411FE128032805490B5
:1077B00098F810801080108810FC108010801080C5
:1077C0001080B5CD1008103C17C024402440644000
:1077D000A44427FE24202420242024902512264A75
:1077E000242A2004B6AF004008407C40004405FE37
:1077F000FE4410441044204424444284FE84410446
:10780000010402280410B7A7200417FE1004454401
:107810004524490449F45F04692448C44884494420
:107820004A5448344804400CB7C000807C4044406F
:1078300048044FFE5080488848FC44884488448867
:1078400068885108410842504420B8DF0200010412
:10785000FFFE00001FF0101010101FF000047FFE4C
:1078600040044FE4482448244FE4400CBCEC104052
:10787000104010A010A0FD10120E35F4300058403A
:107880005648914C1148115010041FFE1000C1AA17
:107890000104FECC245024003DFC24202420242478
:1078A0003FFE2420242024503E50E488050E060488
:1078B000C8B12040204024403E4851FC9048144824
:1078C000FE4813FE5440544054A054A07D10460E70
:1078D0000404CFFB004042483150104883FC62084A
:1078E00022080BF812082208E3F8220822082208CE
:1078F00022282210D0D008080BFC100020004000E5
:10790000080417FE301050109010101010101010B6
:10791000101010501020D0DE1100110011F82110AD
:107920002AA06C40A9B02E2E28C02B1028602888D1
:107930002310206021802600D4CB001043F83000B3
:107940001000000807FCF0801080110011201210B8
:1079500017F81008280647FC0000B0E60808481C85
:1079600049E0490049007DFC4104414879484950BB
:1079700049304A204A504C8E89040800B1BE0100AB
:107980000100010001087FFC054005400540092079
:10799000092011102FEEC104010001000100BBA756
:1079A0000100008000843FFE2004200420043FFCEE
:1079B0002004200020002000200040004000800023
:1079C000BEA70FE0082008200FE0082008200FE0E5
:1079D00008247EFE428442847EFC428442847EFCF3
:1079E0004284D2BA0080404437FE10208120613C9E
:1079F00022440A6416982B48E25022202250228EFC
:107A000023042200D3C300083FFC210821082108D9
:107A10003FF82108210821083FF821082108210802
:107A2000410841288010B5E70200020002107FF8EB
:107A3000421042107FF0421042107FF042100200CC
:107A40000204020401FC0000B8D0005000487FFC92
:107A500040407FC040485F48515051225F52908E55
:107A60000200299028AC482407E0B8DF0200010496
:107A7000FFFE00001FF0101010101FF000047FFE2A
:107A800040044FE4482448244FE4400CBFBF112079
:107A90001FF02104FFFE00001FF010101FF00280F5
:107AA0007EFC02803EF802807EFC02800280BFC91C
:107AB0000004FFFE001000901FD010901090109056
:107AC000109010901F901090001000100050002097
:107AD000CAB9104010441FFE204027FC6444A4444F
:107AE000244427FC24442240218020C02130260E3B
:107AF0002804D0BB020844882FC828880F8808FEB5
:107B0000EF88288828C83FA821A82A883488288890
:107B100012A80110D0D410401040124012485BFC53
:107B2000544054409840105013F8104010401040FA
:107B300010441FFE1000D3C300083FFC2108210899
:107B400021083FF82108210821083FF821082108D1
:107B50002108410841288010D4B4000447FE342095
:107B60001420844465FE25040DFC150425FCE42046
:107B700024A829A62A2230A02040A1B70000000096
:107B800000000240024001200120009000900120EE
:107B9000012002400240000000000000B7E7001092
:107BA0003FF82010285024502290229021102110BC
:107BB00022902290245028503012400A8006BBFAAE
:107BC0001000101011F81110FD10111031103910A3
:107BD000551051109110111011121212140E18009C
:107BE000BFD81040102013FE1202FC541088150458
:107BF00018003008D3FC102010201020102457FE4D
:107C00002000C4DC10801088249844A0FEC00284A8
:107C10007C84447C7C00448844987CA044C044829A
:107C20005482487EC6F73EF82288228822883EF891
:107C300001200114FFFE02800C603018FEFE228835
:107C4000228822883EF8D6C60404240425043FA4D2
:107C5000242444A4FFE404243FA424A424A42484CE
:107C60002684250404140408D6C7200022043F7E7D
:107C700048440844FFC41044147C224442109FF836
:107C800010101FF010101FF01010B1B60880084837
:107C90000FFC10001218311051249FFE100813FC25
:107CA000120812081208120813F81208FFFF00C188
:107CB000814001C0804101C0804100C1814001C0BC
:107CC000804100C1814000C1814001C0804101C0AC
:107CD000804100C1814000C1814001C0804100C19C
:107CE000814001C0804101C0804100C1814001C08C
:107CF000804100C1814000C1814001C0804100C17C
:107D0000814001C0804101C0804100C1814000C16B
:107D1000814001C0804101C0804100C1814001C05B
:107D2000804100C1814000C1814001C0804101C04B
:107D3000804100C1814000C1814001C0804100C13B
:107D4000814001C0804101C0804100C1814000C12B
:107D5000814001C0804101C0804100C1814001C01B
:107D6000804100C1814000C1814001C0804100C10B
:107D7000814001C0804101C0804100C1814001C0FB
:107D8000804100C1814000C1814001C0804101C0EB
:107D9000804100C1814000C1814001C0804100C1DB
:107DA000814001C0804101C0804100C1814000C0CC
:107DB000C101C30302C2C60607C705C5C404CC0C73
:107DC0000DCD0FCFCE0E0ACACB0BC90908C8D818E3
:107DD00019D91BDBDA1A1EDEDF1FDD1D1CDC14D4F3
:107DE000D515D71716D6D21213D311D1D010F03023
:107DF00031F133F3F23236F6F737F53534F43CFC33
:107E0000FD3DFF3F3EFEFA3A3BFB39F9F83828E8E2
:107E1000E929EB2B2AEAEE2E2FEF2DEDEC2CE424B2
:107E200025E527E7E62622E2E323E12120E0A06022
:107E300061A163A3A26266A6A767A56564A46CACF2
:107E4000AD6DAF6F6EAEAA6A6BAB69A9A86878B862
:107E5000B979BB7B7ABABE7E7FBF7DBDBC7CB47472
:107E600075B577B7B67672B2B373B17170B0509022
:107E700091519353529296565797559594549C5CB2
:107E80005D9D5F9F9E5E5A9A9B5B99595898884862
:107E900049894B8B8A4A4E8E8F4F8D4D4C8C448432
:107EA0008545874746868242438341818040000062
:107EB000D07E000800000020780000000E3D000881
:107EC000487F000878000020100F00001E3D0008C9
:107ED00000A24A04000000000000000000000000B2
:107EE0000000000000000000000000000000000092
:107EF0000000010000000000000000000000000081
:107F00000000000000000000000000000000000071
:107F10000000000000000000000000000000000061
:107F2000000001020304010203040607080900001F
:107F3000000000000000000007000000000000003A
:087F4000000000000000000039
:04000005080000C12E
:00000001FF
