Component: ARM Compiler 5.06 update 7 (build 960) Tool: armlink [4d3601]

==============================================================================

Section Cross References

    startup_stm32f103xe.o(RESET) refers to startup_stm32f103xe.o(STACK) for __initial_sp
    startup_stm32f103xe.o(RESET) refers to startup_stm32f103xe.o(.text) for Reset_Handler
    startup_stm32f103xe.o(RESET) refers to stm32f1xx_it.o(i.NMI_Handler) for NMI_Handler
    startup_stm32f103xe.o(RESET) refers to stm32f1xx_it.o(i.HardFault_Handler) for HardFault_Handler
    startup_stm32f103xe.o(RESET) refers to stm32f1xx_it.o(i.MemManage_Handler) for MemManage_Handler
    startup_stm32f103xe.o(RESET) refers to stm32f1xx_it.o(i.BusFault_Handler) for BusFault_Handler
    startup_stm32f103xe.o(RESET) refers to stm32f1xx_it.o(i.UsageFault_Handler) for UsageFault_Handler
    startup_stm32f103xe.o(RESET) refers to stm32f1xx_it.o(i.SVC_Handler) for SVC_Handler
    startup_stm32f103xe.o(RESET) refers to stm32f1xx_it.o(i.DebugMon_Handler) for DebugMon_Handler
    startup_stm32f103xe.o(RESET) refers to stm32f1xx_it.o(i.PendSV_Handler) for PendSV_Handler
    startup_stm32f103xe.o(RESET) refers to stm32f1xx_it.o(i.SysTick_Handler) for SysTick_Handler
    startup_stm32f103xe.o(RESET) refers to stm32f1xx_it.o(i.TIM4_IRQHandler) for TIM4_IRQHandler
    startup_stm32f103xe.o(RESET) refers to stm32f1xx_it.o(i.USART1_IRQHandler) for USART1_IRQHandler
    startup_stm32f103xe.o(RESET) refers to stm32f1xx_it.o(i.USART3_IRQHandler) for USART3_IRQHandler
    startup_stm32f103xe.o(.text) refers to system_stm32f1xx.o(i.SystemInit) for SystemInit
    startup_stm32f103xe.o(.text) refers to entry.o(.ARM.Collect$$$$00000000) for __main
    lcd.o(i.Draw_Circle) refers to lcd.o(i.LCD_DrawPoint) for LCD_DrawPoint
    lcd.o(i.LCD_Address_Set) refers to lcd.o(i.LCD_WR_REG) for LCD_WR_REG
==============================================================================

Removing Unused input sections from the image.

    Removing startup_stm32f103xe.o(HEAP), (1024 bytes).
    Removing lcd.o(.rev16_text), (4 bytes).
    Removing lcd.o(.revsh_text), (4 bytes).
    Removing lcd.o(.rrx_text), (6 bytes).
    Removing lcd.o(i.Draw_Circle), (142 bytes).
    Removing lcd.o(i.LCD_Clear_H), (40 bytes).
    Removing lcd.o(i.LCD_Delay), (4 bytes).
    Removing lcd.o(i.LCD_DrawLine), (150 bytes).
    Removing lcd.o(i.LCD_DrawPoint_big), (18 bytes).
    Removing lcd.o(i.LCD_DrawRectangle), (68 bytes).
    Removing lcd.o(i.LCD_Fill), (48 bytes).
    Removing lcd.o(i.LCD_ShowChinese32x32), (120 bytes).
    Removing lcd.o(i.LCD_ShowNum), (106 bytes).
    Removing lcd.o(i.LCD_ShowNum1), (128 bytes).
    Removing lcd.o(i.LCD_ShowNumArray), (54 bytes).
    Removing lcd.o(i.LCD_ShowPicture), (48 bytes).
    Removing lcd.o(i.mypow), (16 bytes).
    Removing dht11.o(.rev16_text), (4 bytes).
==============================================================================

Image Symbol Table

    Local Symbols

    Symbol Name                              Value     Ov Type        Size  Object(Section)

    ../Drivers/STM32F1xx_HAL_Driver/Src/stm32f1xx_hal.c 0x00000000   Number         0  stm32f1xx_hal.o ABSOLUTE
    ../Drivers/STM32F1xx_HAL_Driver/Src/stm32f1xx_hal_cortex.c 0x00000000   Number         0  stm32f1xx_hal_cortex.o ABSOLUTE
    ../Drivers/STM32F1xx_HAL_Driver/Src/stm32f1xx_hal_dma.c 0x00000000   Number         0  stm32f1xx_hal_dma.o ABSOLUTE
    ../Drivers/STM32F1xx_HAL_Driver/Src/stm32f1xx_hal_exti.c 0x00000000   Number         0  stm32f1xx_hal_exti.o ABSOLUTE
    ../Drivers/STM32F1xx_HAL_Driver/Src/stm32f1xx_hal_flash.c 0x00000000   Number         0  stm32f1xx_hal_flash.o ABSOLUTE
    ../Drivers/STM32F1xx_HAL_Driver/Src/stm32f1xx_hal_flash_ex.c 0x00000000   Number         0  stm32f1xx_hal_flash_ex.o ABSOLUTE
    ../Drivers/STM32F1xx_HAL_Driver/Src/stm32f1xx_hal_gpio.c 0x00000000   Number         0  stm32f1xx_hal_gpio.o ABSOLUTE
    ../Drivers/STM32F1xx_HAL_Driver/Src/stm32f1xx_hal_gpio_ex.c 0x00000000   Number         0  stm32f1xx_hal_gpio_ex.o ABSOLUTE
    ../Drivers/STM32F1xx_HAL_Driver/Src/stm32f1xx_hal_pwr.c 0x00000000   Number         0  stm32f1xx_hal_pwr.o ABSOLUTE
    ../Drivers/STM32F1xx_HAL_Driver/Src/stm32f1xx_hal_rcc.c 0x00000000   Number         0  stm32f1xx_hal_rcc.o ABSOLUTE
    ../Drivers/STM32F1xx_HAL_Driver/Src/stm32f1xx_hal_rcc_ex.c 0x00000000   Number         0  stm32f1xx_hal_rcc_ex.o ABSOLUTE
    ../Drivers/STM32F1xx_HAL_Driver/Src/stm32f1xx_hal_tim.c 0x00000000   Number         0  stm32f1xx_hal_tim.o ABSOLUTE
    ../Drivers/STM32F1xx_HAL_Driver/Src/stm32f1xx_hal_tim_ex.c 0x00000000   Number         0  stm32f1xx_hal_tim_ex.o ABSOLUTE
    ../Drivers/STM32F1xx_HAL_Driver/Src/stm32f1xx_hal_uart.c 0x00000000   Number         0  stm32f1xx_hal_uart.o ABSOLUTE
    ../Src/gpio.c                            0x00000000   Number         0  gpio.o ABSOLUTE
    ../Src/main.c                            0x00000000   Number         0  main.o ABSOLUTE
    ../Src/stm32f1xx_hal_msp.c               0x00000000   Number         0  stm32f1xx_hal_msp.o ABSOLUTE
    ../Src/stm32f1xx_it.c                    0x00000000   Number         0  stm32f1xx_it.o ABSOLUTE
    ../Src/system_stm32f1xx.c                0x00000000   Number         0  system_stm32f1xx.o ABSOLUTE
    ../Src/tim.c                             0x00000000   Number         0  tim.o ABSOLUTE
    ../Src/usart.c                           0x00000000   Number         0  usart.o ABSOLUTE
    ../clib/../cmprslib/lz77c.c              0x00000000   Number         0  __dclz77c.o ABSOLUTE
    ../clib/microlib/division.c              0x00000000   Number         0  uidiv.o ABSOLUTE
    ../clib/microlib/division.c              0x00000000   Number         0  uldiv.o ABSOLUTE
    ../clib/microlib/init/entry.s            0x00000000   Number         0  entry12a.o ABSOLUTE
    ../clib/microlib/init/entry.s            0x00000000   Number         0  entry11a.o ABSOLUTE
    ../clib/microlib/init/entry.s            0x00000000   Number         0  entry12b.o ABSOLUTE
    ../clib/microlib/init/entry.s            0x00000000   Number         0  entry11b.o ABSOLUTE
    ../clib/microlib/init/entry.s            0x00000000   Number         0  entry.o ABSOLUTE
    ../clib/microlib/init/entry.s            0x00000000   Number         0  entry2.o ABSOLUTE
    ../clib/microlib/init/entry.s            0x00000000   Number         0  entry9b.o ABSOLUTE
    ../clib/microlib/init/entry.s            0x00000000   Number         0  entry5.o ABSOLUTE
    ../clib/microlib/init/entry.s            0x00000000   Number         0  entry7a.o ABSOLUTE
    ../clib/microlib/init/entry.s            0x00000000   Number         0  entry7b.o ABSOLUTE
    ../clib/microlib/init/entry.s            0x00000000   Number         0  entry8a.o ABSOLUTE
    ../clib/microlib/init/entry.s            0x00000000   Number         0  entry8b.o ABSOLUTE
    ../clib/microlib/init/entry.s            0x00000000   Number         0  entry9a.o ABSOLUTE
    ../clib/microlib/init/entry.s            0x00000000   Number         0  entry10a.o ABSOLUTE
    ../clib/microlib/init/entry.s            0x00000000   Number         0  entry10b.o ABSOLUTE
    ../clib/microlib/longlong.c              0x00000000   Number         0  llshl.o ABSOLUTE
    ../clib/microlib/longlong.c              0x00000000   Number         0  llushr.o ABSOLUTE
    ../clib/microlib/longlong.c              0x00000000   Number         0  llsshr.o ABSOLUTE
    ../clib/microlib/printf/printf.c         0x00000000   Number         0  printf8.o ABSOLUTE
    ../clib/microlib/printf/printf.c         0x00000000   Number         0  printf1.o ABSOLUTE
    ../clib/microlib/printf/printf.c         0x00000000   Number         0  printfa.o ABSOLUTE
    ../clib/microlib/printf/printf.c         0x00000000   Number         0  printf2.o ABSOLUTE
    ../clib/microlib/printf/printf.c         0x00000000   Number         0  printfb.o ABSOLUTE
    ../clib/microlib/printf/printf.c         0x00000000   Number         0  printf3.o ABSOLUTE
    ../clib/microlib/printf/printf.c         0x00000000   Number         0  printf4.o ABSOLUTE
    ../clib/microlib/printf/printf.c         0x00000000   Number         0  printf0.o ABSOLUTE
    ../clib/microlib/printf/printf.c         0x00000000   Number         0  printf5.o ABSOLUTE
    ../clib/microlib/printf/printf.c         0x00000000   Number         0  printf6.o ABSOLUTE
    ../clib/microlib/printf/printf.c         0x00000000   Number         0  printf7.o ABSOLUTE
    ../clib/microlib/stdio/streams.c         0x00000000   Number         0  stdout.o ABSOLUTE
    ../clib/microlib/stdlib/abort.c          0x00000000   Number         0  abort.o ABSOLUTE
    ../clib/microlib/string/memcpy.c         0x00000000   Number         0  memcpya.o ABSOLUTE
    ../clib/microlib/string/memcpy.c         0x00000000   Number         0  memcpyb.o ABSOLUTE
    ../clib/microlib/string/memset.c         0x00000000   Number         0  memseta.o ABSOLUTE
    ../clib/microlib/stubs.s                 0x00000000   Number         0  iusefp.o ABSOLUTE
    ../fplib/microlib/fpadd.c                0x00000000   Number         0  dadd.o ABSOLUTE
    ../fplib/microlib/fpdiv.c                0x00000000   Number         0  ddiv.o ABSOLUTE
    ../fplib/microlib/fpepilogue.c           0x00000000   Number         0  depilogue.o ABSOLUTE
    ../fplib/microlib/fpfix.c                0x00000000   Number         0  ffixui.o ABSOLUTE
    ../fplib/microlib/fpfix.c                0x00000000   Number         0  dfixul.o ABSOLUTE
    ../fplib/microlib/fpmul.c                0x00000000   Number         0  fmul.o ABSOLUTE
    ../fplib/microlib/fpmul.c                0x00000000   Number         0  dmul.o ABSOLUTE
    ..\Drivers\STM32F1xx_HAL_Driver\Src\stm32f1xx_hal.c 0x00000000   Number         0  stm32f1xx_hal.o ABSOLUTE
    ..\Drivers\STM32F1xx_HAL_Driver\Src\stm32f1xx_hal_cortex.c 0x00000000   Number         0  stm32f1xx_hal_cortex.o ABSOLUTE
    ..\Drivers\STM32F1xx_HAL_Driver\Src\stm32f1xx_hal_dma.c 0x00000000   Number         0  stm32f1xx_hal_dma.o ABSOLUTE
    ..\Drivers\STM32F1xx_HAL_Driver\Src\stm32f1xx_hal_exti.c 0x00000000   Number         0  stm32f1xx_hal_exti.o ABSOLUTE
    ..\Drivers\STM32F1xx_HAL_Driver\Src\stm32f1xx_hal_flash.c 0x00000000   Number         0  stm32f1xx_hal_flash.o ABSOLUTE
    ..\Drivers\STM32F1xx_HAL_Driver\Src\stm32f1xx_hal_flash_ex.c 0x00000000   Number         0  stm32f1xx_hal_flash_ex.o ABSOLUTE
    ..\Drivers\STM32F1xx_HAL_Driver\Src\stm32f1xx_hal_gpio.c 0x00000000   Number         0  stm32f1xx_hal_gpio.o ABSOLUTE
    ..\Drivers\STM32F1xx_HAL_Driver\Src\stm32f1xx_hal_gpio_ex.c 0x00000000   Number         0  stm32f1xx_hal_gpio_ex.o ABSOLUTE
    ..\Drivers\STM32F1xx_HAL_Driver\Src\stm32f1xx_hal_pwr.c 0x00000000   Number         0  stm32f1xx_hal_pwr.o ABSOLUTE
    ..\Drivers\STM32F1xx_HAL_Driver\Src\stm32f1xx_hal_rcc.c 0x00000000   Number         0  stm32f1xx_hal_rcc.o ABSOLUTE
    ..\Drivers\STM32F1xx_HAL_Driver\Src\stm32f1xx_hal_rcc_ex.c 0x00000000   Number         0  stm32f1xx_hal_rcc_ex.o ABSOLUTE
    ..\Drivers\STM32F1xx_HAL_Driver\Src\stm32f1xx_hal_tim.c 0x00000000   Number         0  stm32f1xx_hal_tim.o ABSOLUTE
    ..\Drivers\STM32F1xx_HAL_Driver\Src\stm32f1xx_hal_tim_ex.c 0x00000000   Number         0  stm32f1xx_hal_tim_ex.o ABSOLUTE
    ..\Drivers\STM32F1xx_HAL_Driver\Src\stm32f1xx_hal_uart.c 0x00000000   Number         0  stm32f1xx_hal_uart.o ABSOLUTE
    ..\FreeModbus\modbus\mb.c                0x00000000   Number         0  mb.o ABSOLUTE
    ..\FreeModbus\modbus\mbascii.c           0x00000000   Number         0  mbascii.o ABSOLUTE
    ..\FreeModbus\modbus\mbcrc.c             0x00000000   Number         0  mbcrc.o ABSOLUTE
    ..\FreeModbus\modbus\mbfunccoils.c       0x00000000   Number         0  mbfunccoils.o ABSOLUTE
    ..\FreeModbus\modbus\mbfuncdiag.c        0x00000000   Number         0  mbfuncdiag.o ABSOLUTE
    ..\FreeModbus\modbus\mbfuncdisc.c        0x00000000   Number         0  mbfuncdisc.o ABSOLUTE
    ..\FreeModbus\modbus\mbfuncholding.c     0x00000000   Number         0  mbfuncholding.o ABSOLUTE
    ..\FreeModbus\modbus\mbfuncinput.c       0x00000000   Number         0  mbfuncinput.o ABSOLUTE
    ..\FreeModbus\modbus\mbfuncother.c       0x00000000   Number         0  mbfuncother.o ABSOLUTE
    ..\FreeModbus\modbus\mbrtu.c             0x00000000   Number         0  mbrtu.o ABSOLUTE
    ..\FreeModbus\modbus\mbtcp.c             0x00000000   Number         0  mbtcp.o ABSOLUTE
    ..\FreeModbus\modbus\mbutils.c           0x00000000   Number         0  mbutils.o ABSOLUTE
    ..\FreeModbus\port\port.c                0x00000000   Number         0  port.o ABSOLUTE
    ..\FreeModbus\port\portevent.c           0x00000000   Number         0  portevent.o ABSOLUTE
    ..\FreeModbus\port\portserial.c          0x00000000   Number         0  portserial.o ABSOLUTE
    ..\FreeModbus\port\porttimer.c           0x00000000   Number         0  porttimer.o ABSOLUTE
    ..\Src\dht11.c                           0x00000000   Number         0  dht11.o ABSOLUTE
    ..\Src\gpio.c                            0x00000000   Number         0  gpio.o ABSOLUTE
    ..\Src\lcd.c                             0x00000000   Number         0  lcd.o ABSOLUTE
    ..\Src\main.c                            0x00000000   Number         0  main.o ABSOLUTE
    ..\Src\stm32f1xx_hal_msp.c               0x00000000   Number         0  stm32f1xx_hal_msp.o ABSOLUTE
    ..\Src\stm32f1xx_it.c                    0x00000000   Number         0  stm32f1xx_it.o ABSOLUTE
    ..\Src\system_stm32f1xx.c                0x00000000   Number         0  system_stm32f1xx.o ABSOLUTE
    ..\Src\tim.c                             0x00000000   Number         0  tim.o ABSOLUTE
    ..\Src\usart.c                           0x00000000   Number         0  usart.o ABSOLUTE
    ..\\FreeModbus\\modbus\\mb.c             0x00000000   Number         0  mb.o ABSOLUTE
    ..\\FreeModbus\\modbus\\mbascii.c        0x00000000   Number         0  mbascii.o ABSOLUTE
    ..\\FreeModbus\\modbus\\mbfunccoils.c    0x00000000   Number         0  mbfunccoils.o ABSOLUTE
    ..\\FreeModbus\\modbus\\mbfuncdisc.c     0x00000000   Number         0  mbfuncdisc.o ABSOLUTE
    ..\\FreeModbus\\modbus\\mbfuncholding.c  0x00000000   Number         0  mbfuncholding.o ABSOLUTE
    ..\\FreeModbus\\modbus\\mbfuncinput.c    0x00000000   Number         0  mbfuncinput.o ABSOLUTE
    ..\\FreeModbus\\modbus\\mbfuncother.c    0x00000000   Number         0  mbfuncother.o ABSOLUTE
    ..\\FreeModbus\\modbus\\mbrtu.c          0x00000000   Number         0  mbrtu.o ABSOLUTE
    ..\\FreeModbus\\modbus\\mbtcp.c          0x00000000   Number         0  mbtcp.o ABSOLUTE
    ..\\FreeModbus\\modbus\\mbutils.c        0x00000000   Number         0  mbutils.o ABSOLUTE
    ..\\FreeModbus\\port\\port.c             0x00000000   Number         0  port.o ABSOLUTE
    ..\\FreeModbus\\port\\portevent.c        0x00000000   Number         0  portevent.o ABSOLUTE
    ..\\FreeModbus\\port\\portserial.c       0x00000000   Number         0  portserial.o ABSOLUTE
    ..\\FreeModbus\\port\\porttimer.c        0x00000000   Number         0  porttimer.o ABSOLUTE
    ..\\Src\\dht11.c                         0x00000000   Number         0  dht11.o ABSOLUTE
    ..\\Src\\lcd.c                           0x00000000   Number         0  lcd.o ABSOLUTE
    cdrcmple.s                               0x00000000   Number         0  cdrcmple.o ABSOLUTE
    dc.s                                     0x00000000   Number         0  dc.o ABSOLUTE
    handlers.s                               0x00000000   Number         0  handlers.o ABSOLUTE
    init.s                                   0x00000000   Number         0  init.o ABSOLUTE
    startup_stm32f103xe.s                    0x00000000   Number         0  startup_stm32f103xe.o ABSOLUTE
    RESET                                    0x08000000   Section      304  startup_stm32f103xe.o(RESET)
    .ARM.Collect$$$$00000000                 0x08000130   Section        0  entry.o(.ARM.Collect$$$$00000000)
    .ARM.Collect$$$$00000001                 0x08000130   Section        4  entry2.o(.ARM.Collect$$$$00000001)
    .ARM.Collect$$$$00000004                 0x08000134   Section        4  entry5.o(.ARM.Collect$$$$00000004)
    .ARM.Collect$$$$00000008                 0x08000138   Section        0  entry7b.o(.ARM.Collect$$$$00000008)
    .ARM.Collect$$$$0000000A                 0x08000138   Section        0  entry8b.o(.ARM.Collect$$$$0000000A)
    .ARM.Collect$$$$0000000B                 0x08000138   Section        8  entry9a.o(.ARM.Collect$$$$0000000B)
    .ARM.Collect$$$$0000000E                 0x08000140   Section        4  entry12b.o(.ARM.Collect$$$$0000000E)
    .ARM.Collect$$$$0000000F                 0x08000144   Section        0  entry10a.o(.ARM.Collect$$$$0000000F)
    .ARM.Collect$$$$00000011                 0x08000144   Section        0  entry11a.o(.ARM.Collect$$$$00000011)
    .ARM.Collect$$$$00002712                 0x08000144   Section        4  entry2.o(.ARM.Collect$$$$00002712)
    __lit__00000000                          0x08000144   Data           4  entry2.o(.ARM.Collect$$$$00002712)
    .text                                    0x08000148   Section       36  startup_stm32f103xe.o(.text)
    .text                                    0x0800016c   Section        0  memcpya.o(.text)
    .text                                    0x08000190   Section        0  memseta.o(.text)
    .text                                    0x080001b4   Section       36  init.o(.text)
    .text                                    0x080001d8   Section        0  __dclz77c.o(.text)
    i.BusFault_Handler                       0x08000236   Section        0  stm32f1xx_it.o(i.BusFault_Handler)
    i.DebugMon_Handler                       0x08000238   Section        0  stm32f1xx_it.o(i.DebugMon_Handler)
    i.Error_Handler                          0x0800023c   Section        0  main.o(i.Error_Handler)
    i.HAL_DMA_Abort                          0x08000258   Section        0  stm32f1xx_hal_dma.o(i.HAL_DMA_Abort)
    i.HAL_DMA_Abort_IT                       0x080002a0   Section        0  stm32f1xx_hal_dma.o(i.HAL_DMA_Abort_IT)
    i.HAL_Delay                              0x080003d0   Section        0  stm32f1xx_hal.o(i.HAL_Delay)
    i.HAL_GPIO_Init                          0x080003f4   Section        0  stm32f1xx_hal_gpio.o(i.HAL_GPIO_Init)
    i.HAL_GPIO_ReadPin                       0x080005ec   Section        0  stm32f1xx_hal_gpio.o(i.HAL_GPIO_ReadPin)
    i.HAL_GPIO_TogglePin                     0x080005f6   Section        0  stm32f1xx_hal_gpio.o(i.HAL_GPIO_TogglePin)
    i.HAL_GPIO_WritePin                      0x08000606   Section        0  stm32f1xx_hal_gpio.o(i.HAL_GPIO_WritePin)
    i.HAL_GetTick                            0x08000610   Section        0  stm32f1xx_hal.o(i.HAL_GetTick)
    i.HAL_IncTick                            0x0800061c   Section        0  stm32f1xx_hal.o(i.HAL_IncTick)
    i.HAL_Init                               0x0800062c   Section        0  stm32f1xx_hal.o(i.HAL_Init)
    i.HAL_InitTick                           0x08000650   Section        0  stm32f1xx_hal.o(i.HAL_InitTick)
    i.HAL_MspInit                            0x08000690   Section        0  stm32f1xx_hal_msp.o(i.HAL_MspInit)
    i.HAL_NVIC_EnableIRQ                     0x080006cc   Section        0  stm32f1xx_hal_cortex.o(i.HAL_NVIC_EnableIRQ)
    i.HAL_NVIC_SetPriority                   0x080006e8   Section        0  stm32f1xx_hal_cortex.o(i.HAL_NVIC_SetPriority)
    i.HAL_NVIC_SetPriorityGrouping           0x08000728   Section        0  stm32f1xx_hal_cortex.o(i.HAL_NVIC_SetPriorityGrouping)
    i.HAL_RCC_ClockConfig                    0x0800074c   Section        0  stm32f1xx_hal_rcc.o(i.HAL_RCC_ClockConfig)
    i.HAL_RCC_GetPCLK1Freq                   0x08000878   Section        0  stm32f1xx_hal_rcc.o(i.HAL_RCC_GetPCLK1Freq)
    i.HAL_RCC_GetPCLK2Freq                   0x08000898   Section        0  stm32f1xx_hal_rcc.o(i.HAL_RCC_GetPCLK2Freq)
    i.HAL_RCC_GetSysClockFreq                0x080008b8   Section        0  stm32f1xx_hal_rcc.o(i.HAL_RCC_GetSysClockFreq)
    i.HAL_RCC_OscConfig                      0x08000924   Section        0  stm32f1xx_hal_rcc.o(i.HAL_RCC_OscConfig)
    i.HAL_SYSTICK_Config                     0x08000c44   Section        0  stm32f1xx_hal_cortex.o(i.HAL_SYSTICK_Config)
    i.HAL_TIMEx_BreakCallback                0x08000c6c   Section        0  stm32f1xx_hal_tim_ex.o(i.HAL_TIMEx_BreakCallback)
    i.HAL_TIMEx_CommutCallback               0x08000c6e   Section        0  stm32f1xx_hal_tim_ex.o(i.HAL_TIMEx_CommutCallback)
    i.HAL_TIMEx_MasterConfigSynchronization  0x08000c70   Section        0  stm32f1xx_hal_tim_ex.o(i.HAL_TIMEx_MasterConfigSynchronization)
    i.HAL_TIM_Base_Init                      0x08000cec   Section        0  stm32f1xx_hal_tim.o(i.HAL_TIM_Base_Init)
    i.HAL_TIM_Base_MspInit                   0x08000d48   Section        0  tim.o(i.HAL_TIM_Base_MspInit)
    i.HAL_TIM_ConfigClockSource              0x08000db8   Section        0  stm32f1xx_hal_tim.o(i.HAL_TIM_ConfigClockSource)
    i.HAL_TIM_IC_CaptureCallback             0x08000e8e   Section        0  stm32f1xx_hal_tim.o(i.HAL_TIM_IC_CaptureCallback)
    i.HAL_TIM_IRQHandler                     0x08000e90   Section        0  stm32f1xx_hal_tim.o(i.HAL_TIM_IRQHandler)
    i.HAL_TIM_MspPostInit                    0x08000ff8   Section        0  tim.o(i.HAL_TIM_MspPostInit)
    i.HAL_TIM_OC_DelayElapsedCallback        0x08001058   Section        0  stm32f1xx_hal_tim.o(i.HAL_TIM_OC_DelayElapsedCallback)
    i.HAL_TIM_PWM_ConfigChannel              0x0800105a   Section        0  stm32f1xx_hal_tim.o(i.HAL_TIM_PWM_ConfigChannel)
    i.HAL_TIM_PWM_Init                       0x08001120   Section        0  stm32f1xx_hal_tim.o(i.HAL_TIM_PWM_Init)
    i.HAL_TIM_PWM_MspInit                    0x0800117a   Section        0  stm32f1xx_hal_tim.o(i.HAL_TIM_PWM_MspInit)
    i.HAL_TIM_PWM_PulseFinishedCallback      0x0800117c   Section        0  stm32f1xx_hal_tim.o(i.HAL_TIM_PWM_PulseFinishedCallback)
    i.HAL_TIM_PeriodElapsedCallback          0x0800117e   Section        0  stm32f1xx_hal_tim.o(i.HAL_TIM_PeriodElapsedCallback)
    i.HAL_TIM_TriggerCallback                0x08001180   Section        0  stm32f1xx_hal_tim.o(i.HAL_TIM_TriggerCallback)
    i.HAL_UARTEx_RxEventCallback             0x08001182   Section        0  stm32f1xx_hal_uart.o(i.HAL_UARTEx_RxEventCallback)
    i.HAL_UART_ErrorCallback                 0x08001184   Section        0  stm32f1xx_hal_uart.o(i.HAL_UART_ErrorCallback)
    i.HAL_UART_IRQHandler                    0x08001188   Section        0  stm32f1xx_hal_uart.o(i.HAL_UART_IRQHandler)
    i.HAL_UART_Init                          0x08001394   Section        0  stm32f1xx_hal_uart.o(i.HAL_UART_Init)
    i.HAL_UART_MspInit                       0x080013f8   Section        0  usart.o(i.HAL_UART_MspInit)
    i.HAL_UART_RxCpltCallback                0x080014d4   Section        0  stm32f1xx_hal_uart.o(i.HAL_UART_RxCpltCallback)
    i.HAL_UART_Transmit                      0x080014d8   Section        0  stm32f1xx_hal_uart.o(i.HAL_UART_Transmit)
    i.HAL_UART_TxCpltCallback                0x0800158a   Section        0  stm32f1xx_hal_uart.o(i.HAL_UART_TxCpltCallback)
    i.HardFault_Handler                      0x0800158c   Section        0  stm32f1xx_it.o(i.HardFault_Handler)
    i.LCD_Address_Set                        0x0800158e   Section        0  lcd.o(i.LCD_Address_Set)
    i.LCD_Clear                              0x080015c8   Section        0  lcd.o(i.LCD_Clear)
    i.LCD_DrawPoint                          0x080015fa   Section        0  lcd.o(i.LCD_DrawPoint)
    i.LCD_ShowChar                           0x08001610   Section        0  lcd.o(i.LCD_ShowChar)
    i.LCD_ShowString                         0x080016bc   Section        0  lcd.o(i.LCD_ShowString)
    i.LCD_WR_DATA                            0x08001708   Section        0  lcd.o(i.LCD_WR_DATA)
    i.LCD_WR_DATA8                           0x0800172c   Section        0  lcd.o(i.LCD_WR_DATA8)
    i.LCD_WR_REG                             0x08001748   Section        0  lcd.o(i.LCD_WR_REG)
    i.LCD_Writ_Bus                           0x08001764   Section        0  lcd.o(i.LCD_Writ_Bus)
    i.Lcd_Init                               0x080017bc   Section        0  lcd.o(i.Lcd_Init)
    i.MX_GPIO_Init                           0x080019e0   Section        0  gpio.o(i.MX_GPIO_Init)
    i.MX_TIM3_Init                           0x08001aa8   Section        0  tim.o(i.MX_TIM3_Init)
    i.MX_TIM4_Init                           0x08001b44   Section        0  tim.o(i.MX_TIM4_Init)
    i.MX_TIM6_Init                           0x08001ba8   Section        0  tim.o(i.MX_TIM6_Init)
    i.MX_USART1_UART_Init                    0x08001bec   Section        0  usart.o(i.MX_USART1_UART_Init)
    i.MX_USART3_UART_Init                    0x08001c24   Section        0  usart.o(i.MX_USART3_UART_Init)
    i.MemManage_Handler                      0x08001c5c   Section        0  stm32f1xx_it.o(i.MemManage_Handler)
    i.NMI_Handler                            0x08001c5e   Section        0  stm32f1xx_it.o(i.NMI_Handler)
    i.PendSV_Handler                         0x08001c60   Section        0  stm32f1xx_it.o(i.PendSV_Handler)
    i.SVC_Handler                            0x08001c62   Section        0  stm32f1xx_it.o(i.SVC_Handler)
    i.SysTick_Handler                        0x08001c64   Section        0  stm32f1xx_it.o(i.SysTick_Handler)
    i.SystemClock_Config                     0x08001c68   Section        0  main.o(i.SystemClock_Config)
    i.SystemInit                             0x08001cc6   Section        0  system_stm32f1xx.o(i.SystemInit)
    i.TIM4_IRQHandler                        0x08001cc8   Section        0  stm32f1xx_it.o(i.TIM4_IRQHandler)
    i.TIM4_My_Callback                       0x08001cdc   Section        0  porttimer.o(i.TIM4_My_Callback)
    i.TIM_Base_SetConfig                     0x08001cfc   Section        0  stm32f1xx_hal_tim.o(i.TIM_Base_SetConfig)
    i.TIM_ETR_SetConfig                      0x08001d88   Section        0  stm32f1xx_hal_tim.o(i.TIM_ETR_SetConfig)
    i.TIM_ITRx_SetConfig                     0x08001d9c   Section        0  stm32f1xx_hal_tim.o(i.TIM_ITRx_SetConfig)
    TIM_ITRx_SetConfig                       0x08001d9d   Thumb Code    16  stm32f1xx_hal_tim.o(i.TIM_ITRx_SetConfig)
    i.TIM_OC1_SetConfig                      0x08001dac   Section        0  stm32f1xx_hal_tim.o(i.TIM_OC1_SetConfig)
    TIM_OC1_SetConfig                        0x08001dad   Thumb Code    88  stm32f1xx_hal_tim.o(i.TIM_OC1_SetConfig)
    i.TIM_OC2_SetConfig                      0x08001e0c   Section        0  stm32f1xx_hal_tim.o(i.TIM_OC2_SetConfig)
    i.TIM_OC3_SetConfig                      0x08001e78   Section        0  stm32f1xx_hal_tim.o(i.TIM_OC3_SetConfig)
    TIM_OC3_SetConfig                        0x08001e79   Thumb Code    96  stm32f1xx_hal_tim.o(i.TIM_OC3_SetConfig)
    i.TIM_OC4_SetConfig                      0x08001ee0   Section        0  stm32f1xx_hal_tim.o(i.TIM_OC4_SetConfig)
    TIM_OC4_SetConfig                        0x08001ee1   Thumb Code    70  stm32f1xx_hal_tim.o(i.TIM_OC4_SetConfig)
    i.TIM_TI1_ConfigInputStage               0x08001f30   Section        0  stm32f1xx_hal_tim.o(i.TIM_TI1_ConfigInputStage)
    TIM_TI1_ConfigInputStage                 0x08001f31   Thumb Code    34  stm32f1xx_hal_tim.o(i.TIM_TI1_ConfigInputStage)
    i.TIM_TI2_ConfigInputStage               0x08001f52   Section        0  stm32f1xx_hal_tim.o(i.TIM_TI2_ConfigInputStage)
    TIM_TI2_ConfigInputStage                 0x08001f53   Thumb Code    36  stm32f1xx_hal_tim.o(i.TIM_TI2_ConfigInputStage)
    i.UART_DMAAbortOnError                   0x08001f76   Section        0  stm32f1xx_hal_uart.o(i.UART_DMAAbortOnError)
    UART_DMAAbortOnError                     0x08001f77   Thumb Code    16  stm32f1xx_hal_uart.o(i.UART_DMAAbortOnError)
    i.UART_EndRxTransfer                     0x08001f86   Section        0  stm32f1xx_hal_uart.o(i.UART_EndRxTransfer)
    UART_EndRxTransfer                       0x08001f87   Thumb Code    48  stm32f1xx_hal_uart.o(i.UART_EndRxTransfer)
    i.UART_Receive_IT                        0x08001fb6   Section        0  stm32f1xx_hal_uart.o(i.UART_Receive_IT)
    UART_Receive_IT                          0x08001fb7   Thumb Code   182  stm32f1xx_hal_uart.o(i.UART_Receive_IT)
    i.UART_SetConfig                         0x0800206c   Section        0  stm32f1xx_hal_uart.o(i.UART_SetConfig)
    UART_SetConfig                           0x0800206d   Thumb Code   178  stm32f1xx_hal_uart.o(i.UART_SetConfig)
    i.UART_WaitOnFlagUntilTimeout            0x08002124   Section        0  stm32f1xx_hal_uart.o(i.UART_WaitOnFlagUntilTimeout)
    UART_WaitOnFlagUntilTimeout              0x08002125   Thumb Code   100  stm32f1xx_hal_uart.o(i.UART_WaitOnFlagUntilTimeout)
    i.USART1_IRQHandler                      0x08002188   Section        0  stm32f1xx_it.o(i.USART1_IRQHandler)
    i.USART3_IRQHandler                      0x08002194   Section        0  stm32f1xx_it.o(i.USART3_IRQHandler)
    i.USART3_My_Callback                     0x080021a8   Section        0  portserial.o(i.USART3_My_Callback)
    i.UsageFault_Handler                     0x080021e8   Section        0  stm32f1xx_it.o(i.UsageFault_Handler)
    i.__0printf$bare                         0x080021ec   Section        0  printfb.o(i.__0printf$bare)
    i.__NVIC_SetPriority                     0x080021fc   Section        0  stm32f1xx_hal_cortex.o(i.__NVIC_SetPriority)
    __NVIC_SetPriority                       0x080021fd   Thumb Code    32  stm32f1xx_hal_cortex.o(i.__NVIC_SetPriority)
    i.__scatterload_copy                     0x0800221c   Section       14  handlers.o(i.__scatterload_copy)
    i.__scatterload_null                     0x0800222a   Section        2  handlers.o(i.__scatterload_null)
    i.__scatterload_zeroinit                 0x0800222c   Section       14  handlers.o(i.__scatterload_zeroinit)
    i._printf_core                           0x0800223a   Section        0  printfb.o(i._printf_core)
    _printf_core                             0x0800223b   Thumb Code    34  printfb.o(i._printf_core)
    i.eMBASCIIInit                           0x0800225c   Section        0  mbascii.o(i.eMBASCIIInit)
    i.eMBASCIIReceive                        0x0800228c   Section        0  mbascii.o(i.eMBASCIIReceive)
    i.eMBASCIISend                           0x080022d4   Section        0  mbascii.o(i.eMBASCIISend)
    i.eMBASCIIStart                          0x0800231c   Section        0  mbascii.o(i.eMBASCIIStart)
    i.eMBASCIIStop                           0x08002338   Section        0  mbascii.o(i.eMBASCIIStop)
    i.eMBEnable                              0x0800234c   Section        0  mb.o(i.eMBEnable)
    i.eMBFuncReadCoils                       0x0800236c   Section        0  mbfunccoils.o(i.eMBFuncReadCoils)
    i.eMBFuncReadDiscreteInputs              0x080023de   Section        0  mbfuncdisc.o(i.eMBFuncReadDiscreteInputs)
    i.eMBFuncReadHoldingRegister             0x08002450   Section        0  mbfuncholding.o(i.eMBFuncReadHoldingRegister)
    i.eMBFuncReadInputRegister               0x080024ae   Section        0  mbfuncinput.o(i.eMBFuncReadInputRegister)
    i.eMBFuncReadWriteMultipleHoldingRegister 0x08002510   Section        0  mbfuncholding.o(i.eMBFuncReadWriteMultipleHoldingRegister)
    i.eMBFuncReportSlaveID                   0x080025ac   Section        0  mbfuncother.o(i.eMBFuncReportSlaveID)
    i.eMBFuncWriteCoil                       0x080025d0   Section        0  mbfunccoils.o(i.eMBFuncWriteCoil)
    i.eMBFuncWriteHoldingRegister            0x08002626   Section        0  mbfuncholding.o(i.eMBFuncWriteHoldingRegister)
    i.eMBFuncWriteMultipleCoils              0x08002658   Section        0  mbfunccoils.o(i.eMBFuncWriteMultipleCoils)
    i.eMBFuncWriteMultipleHoldingRegister    0x080026bc   Section        0  mbfuncholding.o(i.eMBFuncWriteMultipleHoldingRegister)
    i.eMBInit                                0x0800270c   Section        0  mb.o(i.eMBInit)
    i.eMBPoll                                0x080027d4   Section        0  mb.o(i.eMBPoll)
    i.eMBRTUInit                             0x08002888   Section        0  mbrtu.o(i.eMBRTUInit)
    i.eMBRTUReceive                          0x080028c4   Section        0  mbrtu.o(i.eMBRTUReceive)
    i.eMBRTUSend                             0x08002914   Section        0  mbrtu.o(i.eMBRTUSend)
    i.eMBRTUStart                            0x0800296c   Section        0  mbrtu.o(i.eMBRTUStart)
    i.eMBRTUStop                             0x08002988   Section        0  mbrtu.o(i.eMBRTUStop)
    i.eMBRegCoilsCB                          0x0800299c   Section        0  port.o(i.eMBRegCoilsCB)
    i.eMBRegDiscreteCB                       0x08002a30   Section        0  port.o(i.eMBRegDiscreteCB)
    i.eMBRegHoldingCB                        0x08002ab0   Section        0  port.o(i.eMBRegHoldingCB)
    i.eMBRegInputCB                          0x08002b08   Section        0  port.o(i.eMBRegInputCB)
    i.fputc                                  0x08002b58   Section        0  usart.o(i.fputc)
    i.main                                   0x08002b78   Section        0  main.o(i.main)
    i.prveMBError2Exception                  0x08002c48   Section        0  mbutils.o(i.prveMBError2Exception)
    i.prvucMBBIN2CHAR                        0x08002c60   Section        0  mbascii.o(i.prvucMBBIN2CHAR)
    prvucMBBIN2CHAR                          0x08002c61   Thumb Code    28  mbascii.o(i.prvucMBBIN2CHAR)
    i.prvucMBLRC                             0x08002c7c   Section        0  mbascii.o(i.prvucMBLRC)
    prvucMBLRC                               0x08002c7d   Thumb Code    24  mbascii.o(i.prvucMBLRC)
    i.usMBCRC16                              0x08002c94   Section        0  mbcrc.o(i.usMBCRC16)
    i.vMBPortSerialEnable                    0x08002cc0   Section        0  portserial.o(i.vMBPortSerialEnable)
    i.vMBPortTimersDisable                   0x08002cf0   Section        0  porttimer.o(i.vMBPortTimersDisable)
    i.vMBPortTimersEnable                    0x08002d14   Section        0  porttimer.o(i.vMBPortTimersEnable)
    i.xMBASCIIReceiveFSM                     0x08002d2c   Section        0  mbascii.o(i.xMBASCIIReceiveFSM)
    i.xMBASCIITimerT1SExpired                0x08002e10   Section        0  mbascii.o(i.xMBASCIITimerT1SExpired)
    i.xMBASCIITransmitFSM                    0x08002e40   Section        0  mbascii.o(i.xMBASCIITransmitFSM)
    i.xMBPortEventGet                        0x08002eec   Section        0  portevent.o(i.xMBPortEventGet)
    i.xMBPortEventInit                       0x08002f08   Section        0  portevent.o(i.xMBPortEventInit)
    i.xMBPortEventPost                       0x08002f18   Section        0  portevent.o(i.xMBPortEventPost)
    i.xMBPortSerialGetByte                   0x08002f28   Section        0  portserial.o(i.xMBPortSerialGetByte)
    i.xMBPortSerialInit                      0x08002f38   Section        0  portserial.o(i.xMBPortSerialInit)
    i.xMBPortSerialPutByte                   0x08002f88   Section        0  portserial.o(i.xMBPortSerialPutByte)
    i.xMBPortTimersInit                      0x08002f94   Section        0  porttimer.o(i.xMBPortTimersInit)
    i.xMBRTUReceiveFSM                       0x08003000   Section        0  mbrtu.o(i.xMBRTUReceiveFSM)
    i.xMBRTUTimerT35Expired                  0x08003068   Section        0  mbrtu.o(i.xMBRTUTimerT35Expired)
    i.xMBRTUTransmitFSM                      0x080030a8   Section        0  mbrtu.o(i.xMBRTUTransmitFSM)
    .constdata                               0x08003104   Section     4720  lcd.o(.constdata)
    .constdata                               0x08004374   Section       16  system_stm32f1xx.o(.constdata)
    .constdata                               0x08004384   Section        8  system_stm32f1xx.o(.constdata)
    .constdata                               0x0800438c   Section      512  mbcrc.o(.constdata)
    aucCRCHi                                 0x0800438c   Data         256  mbcrc.o(.constdata)
    aucCRCLo                                 0x0800448c   Data         256  mbcrc.o(.constdata)
    .data                                    0x20000000   Section     4916  lcd.o(.data)
    .data                                    0x20001334   Section        4  system_stm32f1xx.o(.data)
    .data                                    0x20001338   Section       12  stm32f1xx_hal.o(.data)
    .data                                    0x20001344   Section      172  mb.o(.data)
    eMBState                                 0x20001344   Data           1  mb.o(.data)
    ucRcvAddress                             0x20001345   Data           1  mb.o(.data)
    ucFunctionCode                           0x20001346   Data           1  mb.o(.data)
    eException                               0x20001347   Data           1  mb.o(.data)
    ucMBAddress                              0x20001348   Data           1  mb.o(.data)
    eMBCurrentMode                           0x20001349   Data           1  mb.o(.data)
    usLength                                 0x2000134a   Data           2  mb.o(.data)
    ucMBFrame                                0x2000134c   Data           4  mb.o(.data)
    peMBFrameSendCur                         0x20001350   Data           4  mb.o(.data)
    pvMBFrameStartCur                        0x20001354   Data           4  mb.o(.data)
    pvMBFrameStopCur                         0x20001358   Data           4  mb.o(.data)
    peMBFrameReceiveCur                      0x2000135c   Data           4  mb.o(.data)
    pvMBFrameCloseCur                        0x20001360   Data           4  mb.o(.data)
    xFuncHandlers                            0x20001370   Data         128  mb.o(.data)
    .data                                    0x200013f0   Section       16  mbascii.o(.data)
    eSndState                                0x200013f0   Data           1  mbascii.o(.data)
    eRcvState                                0x200013f1   Data           1  mbascii.o(.data)
    eBytePos                                 0x200013f2   Data           1  mbascii.o(.data)
    ucMBLFCharacter                          0x200013f3   Data           1  mbascii.o(.data)
    usRcvBufferPos                           0x200013f4   Data           2  mbascii.o(.data)
    usSndBufferCount                         0x200013f6   Data           2  mbascii.o(.data)
    ucASCIIBuf                               0x200013f8   Data           4  mbascii.o(.data)
    pucSndBufferCur                          0x200013fc   Data           4  mbascii.o(.data)
    .data                                    0x20001400   Section        2  mbfuncother.o(.data)
    usMBSlaveIDLen                           0x20001400   Data           2  mbfuncother.o(.data)
    .data                                    0x20001404   Section       12  mbrtu.o(.data)
    eSndState                                0x20001404   Data           1  mbrtu.o(.data)
    eRcvState                                0x20001405   Data           1  mbrtu.o(.data)
    usSndBufferCount                         0x20001406   Data           2  mbrtu.o(.data)
    usRcvBufferPos                           0x20001408   Data           2  mbrtu.o(.data)
    pucSndBufferCur                          0x2000140c   Data           4  mbrtu.o(.data)
    .data                                    0x20001410   Section       20  port.o(.data)
    .data                                    0x20001424   Section        2  portevent.o(.data)
    eQueuedEvent                             0x20001424   Data           1  portevent.o(.data)
    xEventInQueue                            0x20001425   Data           1  portevent.o(.data)
    .data                                    0x20001428   Section        4  stdout.o(.data)
    .bss                                     0x2000142c   Section      216  tim.o(.bss)
    .bss                                     0x20001504   Section      136  usart.o(.bss)
    .bss                                     0x2000158c   Section       32  mbfuncother.o(.bss)
    ucMBSlaveID                              0x2000158c   Data          32  mbfuncother.o(.bss)
    .bss                                     0x200015ac   Section      256  mbrtu.o(.bss)
    .bss                                     0x200016ac   Section       40  port.o(.bss)
    STACK                                    0x200016d8   Section     4096  startup_stm32f103xe.o(STACK)

    Global Symbols

    Symbol Name                              Value     Ov Type        Size  Object(Section)

    BuildAttributes$$THM_ISAv4$P$D$K$B$S$PE$A:L22UL41UL21$X:L11$S22US41US21$IEEE1$IW$USESV6$~STKCKD$USESV7$~SHL$OSPACE$ROPI$EBA8$MICROLIB$REQ8$PRES8$EABIv2 0x00000000   Number         0  anon$$obj.o ABSOLUTE
    __ARM_use_no_argv                        0x00000000   Number         0  main.o ABSOLUTE
    __arm_fini_                               - Undefined Weak Reference
    __cpp_initialize__aeabi_                  - Undefined Weak Reference
    __cxa_finalize                            - Undefined Weak Reference
    _clock_init                               - Undefined Weak Reference
    _microlib_exit                            - Undefined Weak Reference
    __Vectors_Size                           0x00000130   Number         0  startup_stm32f103xe.o ABSOLUTE
    __Vectors                                0x08000000   Data           4  startup_stm32f103xe.o(RESET)
    __Vectors_End                            0x08000130   Data           0  startup_stm32f103xe.o(RESET)
    __main                                   0x08000131   Thumb Code     0  entry.o(.ARM.Collect$$$$00000000)
    _main_stk                                0x08000131   Thumb Code     0  entry2.o(.ARM.Collect$$$$00000001)
    _main_scatterload                        0x08000135   Thumb Code     0  entry5.o(.ARM.Collect$$$$00000004)
    __main_after_scatterload                 0x08000139   Thumb Code     0  entry5.o(.ARM.Collect$$$$00000004)
    _main_clock                              0x08000139   Thumb Code     0  entry7b.o(.ARM.Collect$$$$00000008)
    _main_cpp_init                           0x08000139   Thumb Code     0  entry8b.o(.ARM.Collect$$$$0000000A)
    _main_init                               0x08000139   Thumb Code     0  entry9a.o(.ARM.Collect$$$$0000000B)
    __rt_lib_shutdown_fini                   0x08000141   Thumb Code     0  entry12b.o(.ARM.Collect$$$$0000000E)
    __rt_final_cpp                           0x08000145   Thumb Code     0  entry10a.o(.ARM.Collect$$$$0000000F)
    __rt_final_exit                          0x08000145   Thumb Code     0  entry11a.o(.ARM.Collect$$$$00000011)
    Reset_Handler                            0x08000149   Thumb Code     8  startup_stm32f103xe.o(.text)
    ADC1_2_IRQHandler                        0x08000163   Thumb Code     0  startup_stm32f103xe.o(.text)
    ADC3_IRQHandler                          0x08000163   Thumb Code     0  startup_stm32f103xe.o(.text)
    CAN1_RX1_IRQHandler                      0x08000163   Thumb Code     0  startup_stm32f103xe.o(.text)
    CAN1_SCE_IRQHandler                      0x08000163   Thumb Code     0  startup_stm32f103xe.o(.text)
    DMA1_Channel1_IRQHandler                 0x08000163   Thumb Code     0  startup_stm32f103xe.o(.text)
    DMA1_Channel2_IRQHandler                 0x08000163   Thumb Code     0  startup_stm32f103xe.o(.text)
    DMA1_Channel3_IRQHandler                 0x08000163   Thumb Code     0  startup_stm32f103xe.o(.text)
    DMA1_Channel4_IRQHandler                 0x08000163   Thumb Code     0  startup_stm32f103xe.o(.text)
    DMA1_Channel5_IRQHandler                 0x08000163   Thumb Code     0  startup_stm32f103xe.o(.text)
    DMA1_Channel6_IRQHandler                 0x08000163   Thumb Code     0  startup_stm32f103xe.o(.text)
    DMA1_Channel7_IRQHandler                 0x08000163   Thumb Code     0  startup_stm32f103xe.o(.text)
    DMA2_Channel1_IRQHandler                 0x08000163   Thumb Code     0  startup_stm32f103xe.o(.text)
    DMA2_Channel2_IRQHandler                 0x08000163   Thumb Code     0  startup_stm32f103xe.o(.text)
    DMA2_Channel3_IRQHandler                 0x08000163   Thumb Code     0  startup_stm32f103xe.o(.text)
    DMA2_Channel4_5_IRQHandler               0x08000163   Thumb Code     0  startup_stm32f103xe.o(.text)
    EXTI0_IRQHandler                         0x08000163   Thumb Code     0  startup_stm32f103xe.o(.text)
    EXTI15_10_IRQHandler                     0x08000163   Thumb Code     0  startup_stm32f103xe.o(.text)
    EXTI1_IRQHandler                         0x08000163   Thumb Code     0  startup_stm32f103xe.o(.text)
    EXTI2_IRQHandler                         0x08000163   Thumb Code     0  startup_stm32f103xe.o(.text)
    EXTI3_IRQHandler                         0x08000163   Thumb Code     0  startup_stm32f103xe.o(.text)
    EXTI4_IRQHandler                         0x08000163   Thumb Code     0  startup_stm32f103xe.o(.text)
    EXTI9_5_IRQHandler                       0x08000163   Thumb Code     0  startup_stm32f103xe.o(.text)
    FLASH_IRQHandler                         0x08000163   Thumb Code     0  startup_stm32f103xe.o(.text)
    FSMC_IRQHandler                          0x08000163   Thumb Code     0  startup_stm32f103xe.o(.text)
    I2C1_ER_IRQHandler                       0x08000163   Thumb Code     0  startup_stm32f103xe.o(.text)
    I2C1_EV_IRQHandler                       0x08000163   Thumb Code     0  startup_stm32f103xe.o(.text)
    I2C2_ER_IRQHandler                       0x08000163   Thumb Code     0  startup_stm32f103xe.o(.text)
    I2C2_EV_IRQHandler                       0x08000163   Thumb Code     0  startup_stm32f103xe.o(.text)
    PVD_IRQHandler                           0x08000163   Thumb Code     0  startup_stm32f103xe.o(.text)
    RCC_IRQHandler                           0x08000163   Thumb Code     0  startup_stm32f103xe.o(.text)
    RTC_Alarm_IRQHandler                     0x08000163   Thumb Code     0  startup_stm32f103xe.o(.text)
    RTC_IRQHandler                           0x08000163   Thumb Code     0  startup_stm32f103xe.o(.text)
    SDIO_IRQHandler                          0x08000163   Thumb Code     0  startup_stm32f103xe.o(.text)
    SPI1_IRQHandler                          0x08000163   Thumb Code     0  startup_stm32f103xe.o(.text)
    SPI2_IRQHandler                          0x08000163   Thumb Code     0  startup_stm32f103xe.o(.text)
    SPI3_IRQHandler                          0x08000163   Thumb Code     0  startup_stm32f103xe.o(.text)
    TAMPER_IRQHandler                        0x08000163   Thumb Code     0  startup_stm32f103xe.o(.text)
    TIM1_BRK_IRQHandler                      0x08000163   Thumb Code     0  startup_stm32f103xe.o(.text)
    TIM1_CC_IRQHandler                       0x08000163   Thumb Code     0  startup_stm32f103xe.o(.text)
    TIM1_TRG_COM_IRQHandler                  0x08000163   Thumb Code     0  startup_stm32f103xe.o(.text)
    TIM1_UP_IRQHandler                       0x08000163   Thumb Code     0  startup_stm32f103xe.o(.text)
    TIM2_IRQHandler                          0x08000163   Thumb Code     0  startup_stm32f103xe.o(.text)
    TIM3_IRQHandler                          0x08000163   Thumb Code     0  startup_stm32f103xe.o(.text)
    TIM5_IRQHandler                          0x08000163   Thumb Code     0  startup_stm32f103xe.o(.text)
    TIM6_IRQHandler                          0x08000163   Thumb Code     0  startup_stm32f103xe.o(.text)
    TIM7_IRQHandler                          0x08000163   Thumb Code     0  startup_stm32f103xe.o(.text)
    TIM8_BRK_IRQHandler                      0x08000163   Thumb Code     0  startup_stm32f103xe.o(.text)
    TIM8_CC_IRQHandler                       0x08000163   Thumb Code     0  startup_stm32f103xe.o(.text)
    TIM8_TRG_COM_IRQHandler                  0x08000163   Thumb Code     0  startup_stm32f103xe.o(.text)
    TIM8_UP_IRQHandler                       0x08000163   Thumb Code     0  startup_stm32f103xe.o(.text)
    UART4_IRQHandler                         0x08000163   Thumb Code     0  startup_stm32f103xe.o(.text)
    UART5_IRQHandler                         0x08000163   Thumb Code     0  startup_stm32f103xe.o(.text)
    USART2_IRQHandler                        0x08000163   Thumb Code     0  startup_stm32f103xe.o(.text)
    USBWakeUp_IRQHandler                     0x08000163   Thumb Code     0  startup_stm32f103xe.o(.text)
    USB_HP_CAN1_TX_IRQHandler                0x08000163   Thumb Code     0  startup_stm32f103xe.o(.text)
    USB_LP_CAN1_RX0_IRQHandler               0x08000163   Thumb Code     0  startup_stm32f103xe.o(.text)
    WWDG_IRQHandler                          0x08000163   Thumb Code     0  startup_stm32f103xe.o(.text)
    __aeabi_memcpy                           0x0800016d   Thumb Code    36  memcpya.o(.text)
    __aeabi_memcpy4                          0x0800016d   Thumb Code     0  memcpya.o(.text)
    __aeabi_memcpy8                          0x0800016d   Thumb Code     0  memcpya.o(.text)
    __aeabi_memset                           0x08000191   Thumb Code    14  memseta.o(.text)
    __aeabi_memset4                          0x08000191   Thumb Code     0  memseta.o(.text)
    __aeabi_memset8                          0x08000191   Thumb Code     0  memseta.o(.text)
    __aeabi_memclr                           0x0800019f   Thumb Code     4  memseta.o(.text)
    __aeabi_memclr4                          0x0800019f   Thumb Code     0  memseta.o(.text)
    __aeabi_memclr8                          0x0800019f   Thumb Code     0  memseta.o(.text)
    _memset$wrapper                          0x080001a3   Thumb Code    18  memseta.o(.text)
    __scatterload                            0x080001b5   Thumb Code    28  init.o(.text)
    __scatterload_rt2                        0x080001b5   Thumb Code     0  init.o(.text)
    __decompress                             0x080001d9   Thumb Code     0  __dclz77c.o(.text)
    __decompress2                            0x080001d9   Thumb Code    94  __dclz77c.o(.text)
    BusFault_Handler                         0x08000237   Thumb Code     2  stm32f1xx_it.o(i.BusFault_Handler)
    DebugMon_Handler                         0x08000239   Thumb Code     2  stm32f1xx_it.o(i.DebugMon_Handler)
    Error_Handler                            0x0800023d   Thumb Code     6  main.o(i.Error_Handler)
    HAL_DMA_Abort                            0x08000259   Thumb Code    70  stm32f1xx_hal_dma.o(i.HAL_DMA_Abort)
    HAL_DMA_Abort_IT                         0x080002a1   Thumb Code   296  stm32f1xx_hal_dma.o(i.HAL_DMA_Abort_IT)
    HAL_Delay                                0x080003d1   Thumb Code    32  stm32f1xx_hal.o(i.HAL_Delay)
    HAL_GPIO_Init                            0x080003f5   Thumb Code   462  stm32f1xx_hal_gpio.o(i.HAL_GPIO_Init)
    HAL_GPIO_ReadPin                         0x080005ed   Thumb Code    10  stm32f1xx_hal_gpio.o(i.HAL_GPIO_ReadPin)
    HAL_GPIO_TogglePin                       0x080005f7   Thumb Code    16  stm32f1xx_hal_gpio.o(i.HAL_GPIO_TogglePin)
    HAL_GPIO_WritePin                        0x08000607   Thumb Code    10  stm32f1xx_hal_gpio.o(i.HAL_GPIO_WritePin)
    HAL_GetTick                              0x08000611   Thumb Code     6  stm32f1xx_hal.o(i.HAL_GetTick)
    HAL_IncTick                              0x0800061d   Thumb Code    12  stm32f1xx_hal.o(i.HAL_IncTick)
    HAL_Init                                 0x0800062d   Thumb Code    32  stm32f1xx_hal.o(i.HAL_Init)
    HAL_InitTick                             0x08000651   Thumb Code    54  stm32f1xx_hal.o(i.HAL_InitTick)
    HAL_MspInit                              0x08000691   Thumb Code    52  stm32f1xx_hal_msp.o(i.HAL_MspInit)
    HAL_NVIC_EnableIRQ                       0x080006cd   Thumb Code    26  stm32f1xx_hal_cortex.o(i.HAL_NVIC_EnableIRQ)
    HAL_NVIC_SetPriority                     0x080006e9   Thumb Code    60  stm32f1xx_hal_cortex.o(i.HAL_NVIC_SetPriority)
    HAL_NVIC_SetPriorityGrouping             0x08000729   Thumb Code    26  stm32f1xx_hal_cortex.o(i.HAL_NVIC_SetPriorityGrouping)
    HAL_RCC_ClockConfig                      0x0800074d   Thumb Code   280  stm32f1xx_hal_rcc.o(i.HAL_RCC_ClockConfig)
    HAL_RCC_GetPCLK1Freq                     0x08000879   Thumb Code    20  stm32f1xx_hal_rcc.o(i.HAL_RCC_GetPCLK1Freq)
    HAL_RCC_GetPCLK2Freq                     0x08000899   Thumb Code    20  stm32f1xx_hal_rcc.o(i.HAL_RCC_GetPCLK2Freq)
    HAL_RCC_GetSysClockFreq                  0x080008b9   Thumb Code    74  stm32f1xx_hal_rcc.o(i.HAL_RCC_GetSysClockFreq)
    HAL_RCC_OscConfig                        0x08000925   Thumb Code   778  stm32f1xx_hal_rcc.o(i.HAL_RCC_OscConfig)
    HAL_SYSTICK_Config                       0x08000c45   Thumb Code    40  stm32f1xx_hal_cortex.o(i.HAL_SYSTICK_Config)
    HAL_TIMEx_BreakCallback                  0x08000c6d   Thumb Code     2  stm32f1xx_hal_tim_ex.o(i.HAL_TIMEx_BreakCallback)
    HAL_TIMEx_CommutCallback                 0x08000c6f   Thumb Code     2  stm32f1xx_hal_tim_ex.o(i.HAL_TIMEx_CommutCallback)
    HAL_TIMEx_MasterConfigSynchronization    0x08000c71   Thumb Code   104  stm32f1xx_hal_tim_ex.o(i.HAL_TIMEx_MasterConfigSynchronization)
    HAL_TIM_Base_Init                        0x08000ced   Thumb Code    90  stm32f1xx_hal_tim.o(i.HAL_TIM_Base_Init)
    HAL_TIM_Base_MspInit                     0x08000d49   Thumb Code    94  tim.o(i.HAL_TIM_Base_MspInit)
    HAL_TIM_ConfigClockSource                0x08000db9   Thumb Code   214  stm32f1xx_hal_tim.o(i.HAL_TIM_ConfigClockSource)
    HAL_TIM_IC_CaptureCallback               0x08000e8f   Thumb Code     2  stm32f1xx_hal_tim.o(i.HAL_TIM_IC_CaptureCallback)
    HAL_TIM_IRQHandler                       0x08000e91   Thumb Code   358  stm32f1xx_hal_tim.o(i.HAL_TIM_IRQHandler)
    HAL_TIM_MspPostInit                      0x08000ff9   Thumb Code    80  tim.o(i.HAL_TIM_MspPostInit)
    HAL_TIM_OC_DelayElapsedCallback          0x08001059   Thumb Code     2  stm32f1xx_hal_tim.o(i.HAL_TIM_OC_DelayElapsedCallback)
    HAL_TIM_PWM_ConfigChannel                0x0800105b   Thumb Code   198  stm32f1xx_hal_tim.o(i.HAL_TIM_PWM_ConfigChannel)
    HAL_TIM_PWM_Init                         0x08001121   Thumb Code    90  stm32f1xx_hal_tim.o(i.HAL_TIM_PWM_Init)
    HAL_TIM_PWM_MspInit                      0x0800117b   Thumb Code     2  stm32f1xx_hal_tim.o(i.HAL_TIM_PWM_MspInit)
    HAL_TIM_PWM_PulseFinishedCallback        0x0800117d   Thumb Code     2  stm32f1xx_hal_tim.o(i.HAL_TIM_PWM_PulseFinishedCallback)
    HAL_TIM_PeriodElapsedCallback            0x0800117f   Thumb Code     2  stm32f1xx_hal_tim.o(i.HAL_TIM_PeriodElapsedCallback)
    HAL_TIM_TriggerCallback                  0x08001181   Thumb Code     2  stm32f1xx_hal_tim.o(i.HAL_TIM_TriggerCallback)
    HAL_UARTEx_RxEventCallback               0x08001183   Thumb Code     2  stm32f1xx_hal_uart.o(i.HAL_UARTEx_RxEventCallback)
    HAL_UART_ErrorCallback                   0x08001185   Thumb Code     2  stm32f1xx_hal_uart.o(i.HAL_UART_ErrorCallback)
    HAL_UART_IRQHandler                      0x08001189   Thumb Code   520  stm32f1xx_hal_uart.o(i.HAL_UART_IRQHandler)
    HAL_UART_Init                            0x08001395   Thumb Code    98  stm32f1xx_hal_uart.o(i.HAL_UART_Init)
    HAL_UART_MspInit                         0x080013f9   Thumb Code   198  usart.o(i.HAL_UART_MspInit)
    HAL_UART_RxCpltCallback                  0x080014d5   Thumb Code     2  stm32f1xx_hal_uart.o(i.HAL_UART_RxCpltCallback)
    HAL_UART_Transmit                        0x080014d9   Thumb Code   178  stm32f1xx_hal_uart.o(i.HAL_UART_Transmit)
    HAL_UART_TxCpltCallback                  0x0800158b   Thumb Code     2  stm32f1xx_hal_uart.o(i.HAL_UART_TxCpltCallback)
    HardFault_Handler                        0x0800158d   Thumb Code     2  stm32f1xx_it.o(i.HardFault_Handler)
    LCD_Address_Set                          0x0800158f   Thumb Code    58  lcd.o(i.LCD_Address_Set)
    LCD_Clear                                0x080015c9   Thumb Code    50  lcd.o(i.LCD_Clear)
    LCD_DrawPoint                            0x080015fb   Thumb Code    22  lcd.o(i.LCD_DrawPoint)
    LCD_ShowChar                             0x08001611   Thumb Code   162  lcd.o(i.LCD_ShowChar)
    LCD_ShowString                           0x080016bd   Thumb Code    74  lcd.o(i.LCD_ShowString)
    LCD_WR_DATA                              0x08001709   Thumb Code    32  lcd.o(i.LCD_WR_DATA)
    LCD_WR_DATA8                             0x0800172d   Thumb Code    24  lcd.o(i.LCD_WR_DATA8)
    LCD_WR_REG                               0x08001749   Thumb Code    24  lcd.o(i.LCD_WR_REG)
    LCD_Writ_Bus                             0x08001765   Thumb Code    82  lcd.o(i.LCD_Writ_Bus)
    Lcd_Init                                 0x080017bd   Thumb Code   542  lcd.o(i.Lcd_Init)
    MX_GPIO_Init                             0x080019e1   Thumb Code   188  gpio.o(i.MX_GPIO_Init)
    MX_TIM3_Init                             0x08001aa9   Thumb Code   146  tim.o(i.MX_TIM3_Init)
    MX_TIM4_Init                             0x08001b45   Thumb Code    92  tim.o(i.MX_TIM4_Init)
    MX_TIM6_Init                             0x08001ba9   Thumb Code    58  tim.o(i.MX_TIM6_Init)
    MX_USART1_UART_Init                      0x08001bed   Thumb Code    48  usart.o(i.MX_USART1_UART_Init)
    MX_USART3_UART_Init                      0x08001c25   Thumb Code    48  usart.o(i.MX_USART3_UART_Init)
    MemManage_Handler                        0x08001c5d   Thumb Code     2  stm32f1xx_it.o(i.MemManage_Handler)
    NMI_Handler                              0x08001c5f   Thumb Code     2  stm32f1xx_it.o(i.NMI_Handler)
    PendSV_Handler                           0x08001c61   Thumb Code     2  stm32f1xx_it.o(i.PendSV_Handler)
    SVC_Handler                              0x08001c63   Thumb Code     2  stm32f1xx_it.o(i.SVC_Handler)
    SysTick_Handler                          0x08001c65   Thumb Code     4  stm32f1xx_it.o(i.SysTick_Handler)
    SystemClock_Config                       0x08001c69   Thumb Code    94  main.o(i.SystemClock_Config)
    SystemInit                               0x08001cc7   Thumb Code     2  system_stm32f1xx.o(i.SystemInit)
    TIM4_IRQHandler                          0x08001cc9   Thumb Code    16  stm32f1xx_it.o(i.TIM4_IRQHandler)
    TIM4_My_Callback                         0x08001cdd   Thumb Code    24  porttimer.o(i.TIM4_My_Callback)
    TIM_Base_SetConfig                       0x08001cfd   Thumb Code   120  stm32f1xx_hal_tim.o(i.TIM_Base_SetConfig)
    TIM_ETR_SetConfig                        0x08001d89   Thumb Code    20  stm32f1xx_hal_tim.o(i.TIM_ETR_SetConfig)
    TIM_OC2_SetConfig                        0x08001e0d   Thumb Code    98  stm32f1xx_hal_tim.o(i.TIM_OC2_SetConfig)
    USART1_IRQHandler                        0x08002189   Thumb Code     6  stm32f1xx_it.o(i.USART1_IRQHandler)
    USART3_IRQHandler                        0x08002195   Thumb Code    16  stm32f1xx_it.o(i.USART3_IRQHandler)
    USART3_My_Callback                       0x080021a9   Thumb Code    50  portserial.o(i.USART3_My_Callback)
    UsageFault_Handler                       0x080021e9   Thumb Code     2  stm32f1xx_it.o(i.UsageFault_Handler)
    __0printf$bare                           0x080021ed   Thumb Code     8  printfb.o(i.__0printf$bare)
    __1printf$bare                           0x080021ed   Thumb Code     0  printfb.o(i.__0printf$bare)
    __2printf                                0x080021ed   Thumb Code     0  printfb.o(i.__0printf$bare)
    __scatterload_copy                       0x0800221d   Thumb Code    14  handlers.o(i.__scatterload_copy)
    __scatterload_null                       0x0800222b   Thumb Code     2  handlers.o(i.__scatterload_null)
    __scatterload_zeroinit                   0x0800222d   Thumb Code    14  handlers.o(i.__scatterload_zeroinit)
    eMBASCIIInit                             0x0800225d   Thumb Code    44  mbascii.o(i.eMBASCIIInit)
    eMBASCIIReceive                          0x0800228d   Thumb Code    68  mbascii.o(i.eMBASCIIReceive)
    eMBASCIISend                             0x080022d5   Thumb Code    68  mbascii.o(i.eMBASCIISend)
    eMBASCIIStart                            0x0800231d   Thumb Code    24  mbascii.o(i.eMBASCIIStart)
    eMBASCIIStop                             0x08002339   Thumb Code    18  mbascii.o(i.eMBASCIIStop)
    eMBEnable                                0x0800234d   Thumb Code    28  mb.o(i.eMBEnable)
    eMBFuncReadCoils                         0x0800236d   Thumb Code   114  mbfunccoils.o(i.eMBFuncReadCoils)
    eMBFuncReadDiscreteInputs                0x080023df   Thumb Code   114  mbfuncdisc.o(i.eMBFuncReadDiscreteInputs)
    eMBFuncReadHoldingRegister               0x08002451   Thumb Code    94  mbfuncholding.o(i.eMBFuncReadHoldingRegister)
    eMBFuncReadInputRegister                 0x080024af   Thumb Code    98  mbfuncinput.o(i.eMBFuncReadInputRegister)
    eMBFuncReadWriteMultipleHoldingRegister  0x08002511   Thumb Code   156  mbfuncholding.o(i.eMBFuncReadWriteMultipleHoldingRegister)
    eMBFuncReportSlaveID                     0x080025ad   Thumb Code    26  mbfuncother.o(i.eMBFuncReportSlaveID)
    eMBFuncWriteCoil                         0x080025d1   Thumb Code    86  mbfunccoils.o(i.eMBFuncWriteCoil)
    eMBFuncWriteHoldingRegister              0x08002627   Thumb Code    50  mbfuncholding.o(i.eMBFuncWriteHoldingRegister)
    eMBFuncWriteMultipleCoils                0x08002659   Thumb Code   100  mbfunccoils.o(i.eMBFuncWriteMultipleCoils)
    eMBFuncWriteMultipleHoldingRegister      0x080026bd   Thumb Code    78  mbfuncholding.o(i.eMBFuncWriteMultipleHoldingRegister)
    eMBInit                                  0x0800270d   Thumb Code   140  mb.o(i.eMBInit)
    eMBPoll                                  0x080027d5   Thumb Code   176  mb.o(i.eMBPoll)
    eMBRTUInit                               0x08002889   Thumb Code    54  mbrtu.o(i.eMBRTUInit)
    eMBRTUReceive                            0x080028c5   Thumb Code    70  mbrtu.o(i.eMBRTUReceive)
    eMBRTUSend                               0x08002915   Thumb Code    80  mbrtu.o(i.eMBRTUSend)
    eMBRTUStart                              0x0800296d   Thumb Code    24  mbrtu.o(i.eMBRTUStart)
    eMBRTUStop                               0x08002989   Thumb Code    18  mbrtu.o(i.eMBRTUStop)
    eMBRegCoilsCB                            0x0800299d   Thumb Code   142  port.o(i.eMBRegCoilsCB)
    eMBRegDiscreteCB                         0x08002a31   Thumb Code   122  port.o(i.eMBRegDiscreteCB)
    eMBRegHoldingCB                          0x08002ab1   Thumb Code    82  port.o(i.eMBRegHoldingCB)
    eMBRegInputCB                            0x08002b09   Thumb Code    74  port.o(i.eMBRegInputCB)
    fputc                                    0x08002b59   Thumb Code    26  usart.o(i.fputc)
    main                                     0x08002b79   Thumb Code   176  main.o(i.main)
    prveMBError2Exception                    0x08002c49   Thumb Code    24  mbutils.o(i.prveMBError2Exception)
    usMBCRC16                                0x08002c95   Thumb Code    40  mbcrc.o(i.usMBCRC16)
    vMBPortSerialEnable                      0x08002cc1   Thumb Code    44  portserial.o(i.vMBPortSerialEnable)
    vMBPortTimersDisable                     0x08002cf1   Thumb Code    32  porttimer.o(i.vMBPortTimersDisable)
    vMBPortTimersEnable                      0x08002d15   Thumb Code    20  porttimer.o(i.vMBPortTimersEnable)
    xMBASCIIReceiveFSM                       0x08002d2d   Thumb Code   222  mbascii.o(i.xMBASCIIReceiveFSM)
    xMBASCIITimerT1SExpired                  0x08002e11   Thumb Code    42  mbascii.o(i.xMBASCIITimerT1SExpired)
    xMBASCIITransmitFSM                      0x08002e41   Thumb Code   168  mbascii.o(i.xMBASCIITransmitFSM)
    xMBPortEventGet                          0x08002eed   Thumb Code    24  portevent.o(i.xMBPortEventGet)
    xMBPortEventInit                         0x08002f09   Thumb Code    10  portevent.o(i.xMBPortEventInit)
    xMBPortEventPost                         0x08002f19   Thumb Code    12  portevent.o(i.xMBPortEventPost)
    xMBPortSerialGetByte                     0x08002f29   Thumb Code    10  portserial.o(i.xMBPortSerialGetByte)
    xMBPortSerialInit                        0x08002f39   Thumb Code    70  portserial.o(i.xMBPortSerialInit)
    xMBPortSerialPutByte                     0x08002f89   Thumb Code     8  portserial.o(i.xMBPortSerialPutByte)
    xMBPortTimersInit                        0x08002f95   Thumb Code    98  porttimer.o(i.xMBPortTimersInit)
    xMBRTUReceiveFSM                         0x08003001   Thumb Code    96  mbrtu.o(i.xMBRTUReceiveFSM)
    xMBRTUTimerT35Expired                    0x08003069   Thumb Code    58  mbrtu.o(i.xMBRTUTimerT35Expired)
    xMBRTUTransmitFSM                        0x080030a9   Thumb Code    86  mbrtu.o(i.xMBRTUTransmitFSM)
    asc2_1608                                0x08003104   Data        1520  lcd.o(.constdata)
    image                                    0x080036f4   Data        3200  lcd.o(.constdata)
    AHBPrescTable                            0x08004374   Data          16  system_stm32f1xx.o(.constdata)
    APBPrescTable                            0x08004384   Data           8  system_stm32f1xx.o(.constdata)
    Region$$Table$$Base                      0x0800458c   Number         0  anon$$obj.o(Region$$Table)
    Region$$Table$$Limit                     0x080045ac   Number         0  anon$$obj.o(Region$$Table)
    BACK_COLOR                               0x20000000   Data           4  lcd.o(.data)
    Hzk32                                    0x20000004   Data        3968  lcd.o(.data)
    Hzk16                                    0x20000f84   Data         944  lcd.o(.data)
    SystemCoreClock                          0x20001334   Data           4  system_stm32f1xx.o(.data)
    uwTickFreq                               0x20001338   Data           1  stm32f1xx_hal.o(.data)
    uwTickPrio                               0x2000133c   Data           4  stm32f1xx_hal.o(.data)
    uwTick                                   0x20001340   Data           4  stm32f1xx_hal.o(.data)
    pxMBFrameCBByteReceived                  0x20001364   Data           4  mb.o(.data)
    pxMBFrameCBTransmitterEmpty              0x20001368   Data           4  mb.o(.data)
    pxMBPortCBTimerExpired                   0x2000136c   Data           4  mb.o(.data)
    REG_HOLD_BUF                             0x20001410   Data          20  port.o(.data)
    __stdout                                 0x20001428   Data           4  stdout.o(.data)
    htim3                                    0x2000142c   Data          72  tim.o(.bss)
    htim4                                    0x20001474   Data          72  tim.o(.bss)
    htim6                                    0x200014bc   Data          72  tim.o(.bss)
    huart1                                   0x20001504   Data          68  usart.o(.bss)
    huart3                                   0x20001548   Data          68  usart.o(.bss)
    ucRTUBuf                                 0x200015ac   Data         256  mbrtu.o(.bss)
    REG_INPUT_BUF                            0x200016ac   Data          20  port.o(.bss)
    REG_COILS_BUF                            0x200016c0   Data          10  port.o(.bss)
    REG_DISC_BUF                             0x200016ca   Data          10  port.o(.bss)
    __initial_sp                             0x200026d8   Data           0  startup_stm32f103xe.o(STACK)



==============================================================================

Memory Map of the image

  Image Entry point : 0x08000131

  Load Region LR_IROM1 (Base: 0x08000000, Size: 0x000059d8, Max: 0x00040000, ABSOLUTE, COMPRESSED[0x000050a0])

    Execution Region ER_IROM1 (Exec base: 0x08000000, Load base: 0x08000000, Size: 0x000045ac, Max: 0x00040000, ABSOLUTE)

    Exec Addr    Load Addr    Size         Type   Attr      Idx    E Section Name        Object

    0x08000000   0x08000000   0x00000130   Data   RO            3    RESET               startup_stm32f103xe.o
    0x08000130   0x08000130   0x00000000   Code   RO         3696  * .ARM.Collect$$$$00000000  mc_w.l(entry.o)
    0x08000130   0x08000130   0x00000004   Code   RO         3973    .ARM.Collect$$$$00000001  mc_w.l(entry2.o)
    0x08000134   0x08000134   0x00000004   Code   RO         3976    .ARM.Collect$$$$00000004  mc_w.l(entry5.o)
    0x08000138   0x08000138   0x00000000   Code   RO         3978    .ARM.Collect$$$$00000008  mc_w.l(entry7b.o)
    0x08000138   0x08000138   0x00000000   Code   RO         3980    .ARM.Collect$$$$0000000A  mc_w.l(entry8b.o)
    0x08000138   0x08000138   0x00000008   Code   RO         3981    .ARM.Collect$$$$0000000B  mc_w.l(entry9a.o)
    0x08000140   0x08000140   0x00000004   Code   RO         3988    .ARM.Collect$$$$0000000E  mc_w.l(entry12b.o)
    0x08000144   0x08000144   0x00000000   Code   RO         3983    .ARM.Collect$$$$0000000F  mc_w.l(entry10a.o)
    0x08000144   0x08000144   0x00000000   Code   RO         3985    .ARM.Collect$$$$00000011  mc_w.l(entry11a.o)
    0x08000144   0x08000144   0x00000004   Code   RO         3974    .ARM.Collect$$$$00002712  mc_w.l(entry2.o)
    0x08000148   0x08000148   0x00000024   Code   RO            4    .text               startup_stm32f103xe.o
    0x0800016c   0x0800016c   0x00000024   Code   RO         3703    .text               mc_w.l(memcpya.o)
    0x08000190   0x08000190   0x00000024   Code   RO         3705    .text               mc_w.l(memseta.o)
    0x080001b4   0x080001b4   0x00000024   Code   RO         4005    .text               mc_w.l(init.o)
    0x080001d8   0x080001d8   0x0000005e   Code   RO         4021    .text               mc_w.l(__dclz77c.o)
    0x08000236   0x08000236   0x00000002   Code   RO          540    i.BusFault_Handler  stm32f1xx_it.o
    0x08000238   0x08000238   0x00000002   Code   RO          541    i.DebugMon_Handler  stm32f1xx_it.o
    0x0800023a   0x0800023a   0x00000002   PAD
    0x0800023c   0x0800023c   0x0000001c   Code   RO          331    i.Error_Handler     main.o
    0x08000258   0x08000258   0x00000046   Code   RO         2084    i.HAL_DMA_Abort     stm32f1xx_hal_dma.o
    0x0800029e   0x0800029e   0x00000002   PAD
    0x080002a0   0x080002a0   0x00000130   Code   RO         2085    i.HAL_DMA_Abort_IT  stm32f1xx_hal_dma.o
    0x080003d0   0x080003d0   0x00000024   Code   RO         1712    i.HAL_Delay         stm32f1xx_hal.o
    0x080003f4   0x080003f4   0x000001f8   Code   RO         2020    i.HAL_GPIO_Init     stm32f1xx_hal_gpio.o
    0x080005ec   0x080005ec   0x0000000a   Code   RO         2022    i.HAL_GPIO_ReadPin  stm32f1xx_hal_gpio.o
    0x080005f6   0x080005f6   0x00000010   Code   RO         2023    i.HAL_GPIO_TogglePin  stm32f1xx_hal_gpio.o
    0x08000606   0x08000606   0x0000000a   Code   RO         2024    i.HAL_GPIO_WritePin  stm32f1xx_hal_gpio.o
    0x08000610   0x08000610   0x0000000c   Code   RO         1716    i.HAL_GetTick       stm32f1xx_hal.o
    0x0800061c   0x0800061c   0x00000010   Code   RO         1722    i.HAL_IncTick       stm32f1xx_hal.o
    0x0800062c   0x0800062c   0x00000024   Code   RO         1723    i.HAL_Init          stm32f1xx_hal.o
    0x08000650   0x08000650   0x00000040   Code   RO         1724    i.HAL_InitTick      stm32f1xx_hal.o
    0x08000690   0x08000690   0x0000003c   Code   RO          634    i.HAL_MspInit       stm32f1xx_hal_msp.o
    0x080006cc   0x080006cc   0x0000001a   Code   RO         2180    i.HAL_NVIC_EnableIRQ  stm32f1xx_hal_cortex.o
    0x080006e6   0x080006e6   0x00000002   PAD
    0x080006e8   0x080006e8   0x00000040   Code   RO         2186    i.HAL_NVIC_SetPriority  stm32f1xx_hal_cortex.o
    0x08000728   0x08000728   0x00000024   Code   RO         2187    i.HAL_NVIC_SetPriorityGrouping  stm32f1xx_hal_cortex.o
    0x0800074c   0x0800074c   0x0000012c   Code   RO         1880    i.HAL_RCC_ClockConfig  stm32f1xx_hal_rcc.o
    0x08000878   0x08000878   0x00000020   Code   RO         1887    i.HAL_RCC_GetPCLK1Freq  stm32f1xx_hal_rcc.o
    0x08000898   0x08000898   0x00000020   Code   RO         1888    i.HAL_RCC_GetPCLK2Freq  stm32f1xx_hal_rcc.o
    0x080008b8   0x080008b8   0x0000006c   Code   RO         1889    i.HAL_RCC_GetSysClockFreq  stm32f1xx_hal_rcc.o
    0x08000924   0x08000924   0x00000320   Code   RO         1892    i.HAL_RCC_OscConfig  stm32f1xx_hal_rcc.o
    0x08000c44   0x08000c44   0x00000028   Code   RO         2191    i.HAL_SYSTICK_Config  stm32f1xx_hal_cortex.o
    0x08000c6c   0x08000c6c   0x00000002   Code   RO         1438    i.HAL_TIMEx_BreakCallback  stm32f1xx_hal_tim_ex.o
    0x08000c6e   0x08000c6e   0x00000002   Code   RO         1439    i.HAL_TIMEx_CommutCallback  stm32f1xx_hal_tim_ex.o
    0x08000c70   0x08000c70   0x0000007c   Code   RO         1457    i.HAL_TIMEx_MasterConfigSynchronization  stm32f1xx_hal_tim_ex.o
    0x08000cec   0x08000cec   0x0000005a   Code   RO          734    i.HAL_TIM_Base_Init  stm32f1xx_hal_tim.o
    0x08000d46   0x08000d46   0x00000002   PAD
    0x08000d48   0x08000d48   0x00000070   Code   RO          422    i.HAL_TIM_Base_MspInit  tim.o
    0x08000db8   0x08000db8   0x000000d6   Code   RO          743    i.HAL_TIM_ConfigClockSource  stm32f1xx_hal_tim.o
    0x08000e8e   0x08000e8e   0x00000002   Code   RO          768    i.HAL_TIM_IC_CaptureCallback  stm32f1xx_hal_tim.o
    0x08000e90   0x08000e90   0x00000166   Code   RO          782    i.HAL_TIM_IRQHandler  stm32f1xx_hal_tim.o
    0x08000ff6   0x08000ff6   0x00000002   PAD
    0x08000ff8   0x08000ff8   0x00000060   Code   RO          423    i.HAL_TIM_MspPostInit  tim.o
    0x08001058   0x08001058   0x00000002   Code   RO          785    i.HAL_TIM_OC_DelayElapsedCallback  stm32f1xx_hal_tim.o
    0x0800105a   0x0800105a   0x000000c6   Code   RO          806    i.HAL_TIM_PWM_ConfigChannel  stm32f1xx_hal_tim.o
    0x08001120   0x08001120   0x0000005a   Code   RO          809    i.HAL_TIM_PWM_Init  stm32f1xx_hal_tim.o
    0x0800117a   0x0800117a   0x00000002   Code   RO          811    i.HAL_TIM_PWM_MspInit  stm32f1xx_hal_tim.o
    0x0800117c   0x0800117c   0x00000002   Code   RO          812    i.HAL_TIM_PWM_PulseFinishedCallback  stm32f1xx_hal_tim.o
    0x0800117e   0x0800117e   0x00000002   Code   RO          820    i.HAL_TIM_PeriodElapsedCallback  stm32f1xx_hal_tim.o
    0x08001180   0x08001180   0x00000002   Code   RO          825    i.HAL_TIM_TriggerCallback  stm32f1xx_hal_tim.o
    0x08001182   0x08001182   0x00000002   Code   RO         2691    i.HAL_UARTEx_RxEventCallback  stm32f1xx_hal_uart.o
    0x08001184   0x08001184   0x00000002   Code   RO         2705    i.HAL_UART_ErrorCallback  stm32f1xx_hal_uart.o
    0x08001186   0x08001186   0x00000002   PAD
    0x08001188   0x08001188   0x0000020c   Code   RO         2708    i.HAL_UART_IRQHandler  stm32f1xx_hal_uart.o
    0x08001394   0x08001394   0x00000062   Code   RO         2709    i.HAL_UART_Init     stm32f1xx_hal_uart.o
    0x080013f6   0x080013f6   0x00000002   PAD
    0x080013f8   0x080013f8   0x000000dc   Code   RO          487    i.HAL_UART_MspInit  usart.o
    0x080014d4   0x080014d4   0x00000002   Code   RO         2715    i.HAL_UART_RxCpltCallback  stm32f1xx_hal_uart.o
    0x080014d6   0x080014d6   0x00000002   PAD
    0x080014d8   0x080014d8   0x000000b2   Code   RO         2717    i.HAL_UART_Transmit  stm32f1xx_hal_uart.o
    0x0800158a   0x0800158a   0x00000002   Code   RO         2720    i.HAL_UART_TxCpltCallback  stm32f1xx_hal_uart.o
    0x0800158c   0x0800158c   0x00000002   Code   RO          542    i.HardFault_Handler  stm32f1xx_it.o
    0x0800158e   0x0800158e   0x0000003a   Code   RO           14    i.LCD_Address_Set   lcd.o
    0x080015c8   0x080015c8   0x00000032   Code   RO           15    i.LCD_Clear         lcd.o
    0x080015fa   0x080015fa   0x00000016   Code   RO           19    i.LCD_DrawPoint     lcd.o
    0x08001610   0x08001610   0x000000ac   Code   RO           23    i.LCD_ShowChar      lcd.o
    0x080016bc   0x080016bc   0x0000004a   Code   RO           29    i.LCD_ShowString    lcd.o
    0x08001706   0x08001706   0x00000002   PAD
    0x08001708   0x08001708   0x00000024   Code   RO           30    i.LCD_WR_DATA       lcd.o
    0x0800172c   0x0800172c   0x0000001c   Code   RO           31    i.LCD_WR_DATA8      lcd.o
    0x08001748   0x08001748   0x0000001c   Code   RO           32    i.LCD_WR_REG        lcd.o
    0x08001764   0x08001764   0x00000058   Code   RO           33    i.LCD_Writ_Bus      lcd.o
    0x080017bc   0x080017bc   0x00000224   Code   RO           34    i.Lcd_Init          lcd.o
    0x080019e0   0x080019e0   0x000000c8   Code   RO          396    i.MX_GPIO_Init      gpio.o
    0x08001aa8   0x08001aa8   0x0000009c   Code   RO          424    i.MX_TIM3_Init      tim.o
    0x08001b44   0x08001b44   0x00000064   Code   RO          425    i.MX_TIM4_Init      tim.o
    0x08001ba8   0x08001ba8   0x00000044   Code   RO          426    i.MX_TIM6_Init      tim.o
    0x08001bec   0x08001bec   0x00000038   Code   RO          488    i.MX_USART1_UART_Init  usart.o
    0x08001c24   0x08001c24   0x00000038   Code   RO          489    i.MX_USART3_UART_Init  usart.o
    0x08001c5c   0x08001c5c   0x00000002   Code   RO          543    i.MemManage_Handler  stm32f1xx_it.o
    0x08001c5e   0x08001c5e   0x00000002   Code   RO          544    i.NMI_Handler       stm32f1xx_it.o
    0x08001c60   0x08001c60   0x00000002   Code   RO          545    i.PendSV_Handler    stm32f1xx_it.o
    0x08001c62   0x08001c62   0x00000002   Code   RO          546    i.SVC_Handler       stm32f1xx_it.o
    0x08001c64   0x08001c64   0x00000004   Code   RO          547    i.SysTick_Handler   stm32f1xx_it.o
    0x08001c68   0x08001c68   0x0000005e   Code   RO          332    i.SystemClock_Config  main.o
    0x08001cc6   0x08001cc6   0x00000002   Code   RO          659    i.SystemInit        system_stm32f1xx.o
    0x08001cc8   0x08001cc8   0x00000014   Code   RO          548    i.TIM4_IRQHandler   stm32f1xx_it.o
    0x08001cdc   0x08001cdc   0x00000020   Code   RO         3657    i.TIM4_My_Callback  porttimer.o
    0x08001cfc   0x08001cfc   0x0000008c   Code   RO          827    i.TIM_Base_SetConfig  stm32f1xx_hal_tim.o
    0x08001d88   0x08001d88   0x00000014   Code   RO          838    i.TIM_ETR_SetConfig  stm32f1xx_hal_tim.o
    0x08001d9c   0x08001d9c   0x00000010   Code   RO          839    i.TIM_ITRx_SetConfig  stm32f1xx_hal_tim.o
    0x08001dac   0x08001dac   0x00000060   Code   RO          840    i.TIM_OC1_SetConfig  stm32f1xx_hal_tim.o
    0x08001e0c   0x08001e0c   0x0000006c   Code   RO          841    i.TIM_OC2_SetConfig  stm32f1xx_hal_tim.o
    0x08001e78   0x08001e78   0x00000068   Code   RO          842    i.TIM_OC3_SetConfig  stm32f1xx_hal_tim.o
    0x08001ee0   0x08001ee0   0x00000050   Code   RO          843    i.TIM_OC4_SetConfig  stm32f1xx_hal_tim.o
    0x08001f30   0x08001f30   0x00000022   Code   RO          845    i.TIM_TI1_ConfigInputStage  stm32f1xx_hal_tim.o
    0x08001f52   0x08001f52   0x00000024   Code   RO          847    i.TIM_TI2_ConfigInputStage  stm32f1xx_hal_tim.o
    0x08001f76   0x08001f76   0x00000010   Code   RO         2722    i.UART_DMAAbortOnError  stm32f1xx_hal_uart.o
    0x08001f86   0x08001f86   0x00000030   Code   RO         2732    i.UART_EndRxTransfer  stm32f1xx_hal_uart.o
    0x08001fb6   0x08001fb6   0x000000b6   Code   RO         2734    i.UART_Receive_IT   stm32f1xx_hal_uart.o
    0x0800206c   0x0800206c   0x000000b8   Code   RO         2735    i.UART_SetConfig    stm32f1xx_hal_uart.o
    0x08002124   0x08002124   0x00000064   Code   RO         2738    i.UART_WaitOnFlagUntilTimeout  stm32f1xx_hal_uart.o
    0x08002188   0x08002188   0x0000000c   Code   RO          549    i.USART1_IRQHandler  stm32f1xx_it.o
    0x08002194   0x08002194   0x00000014   Code   RO          550    i.USART3_IRQHandler  stm32f1xx_it.o
    0x080021a8   0x080021a8   0x00000040   Code   RO         3608    i.USART3_My_Callback  portserial.o
    0x080021e8   0x080021e8   0x00000002   Code   RO          551    i.UsageFault_Handler  stm32f1xx_it.o
    0x080021ea   0x080021ea   0x00000002   PAD
    0x080021ec   0x080021ec   0x00000010   Code   RO         3710    i.__0printf$bare    mc_w.l(printfb.o)
    0x080021fc   0x080021fc   0x00000020   Code   RO         2193    i.__NVIC_SetPriority  stm32f1xx_hal_cortex.o
    0x0800221c   0x0800221c   0x0000000e   Code   RO         4015    i.__scatterload_copy  mc_w.l(handlers.o)
    0x0800222a   0x0800222a   0x00000002   Code   RO         4016    i.__scatterload_null  mc_w.l(handlers.o)
    0x0800222c   0x0800222c   0x0000000e   Code   RO         4017    i.__scatterload_zeroinit  mc_w.l(handlers.o)
    0x0800223a   0x0800223a   0x00000022   Code   RO         3717    i._printf_core      mc_w.l(printfb.o)
    0x0800225c   0x0800225c   0x00000030   Code   RO         3130    i.eMBASCIIInit      mbascii.o
    0x0800228c   0x0800228c   0x00000048   Code   RO         3131    i.eMBASCIIReceive   mbascii.o
    0x080022d4   0x080022d4   0x00000048   Code   RO         3132    i.eMBASCIISend      mbascii.o
    0x0800231c   0x0800231c   0x0000001c   Code   RO         3133    i.eMBASCIIStart     mbascii.o
    0x08002338   0x08002338   0x00000012   Code   RO         3134    i.eMBASCIIStop      mbascii.o
    0x0800234a   0x0800234a   0x00000002   PAD
    0x0800234c   0x0800234c   0x00000020   Code   RO         3039    i.eMBEnable         mb.o
    0x0800236c   0x0800236c   0x00000072   Code   RO         3229    i.eMBFuncReadCoils  mbfunccoils.o
    0x080023de   0x080023de   0x00000072   Code   RO         3268    i.eMBFuncReadDiscreteInputs  mbfuncdisc.o
    0x08002450   0x08002450   0x0000005e   Code   RO         3292    i.eMBFuncReadHoldingRegister  mbfuncholding.o
    0x080024ae   0x080024ae   0x00000062   Code   RO         3334    i.eMBFuncReadInputRegister  mbfuncinput.o
    0x08002510   0x08002510   0x0000009c   Code   RO         3293    i.eMBFuncReadWriteMultipleHoldingRegister  mbfuncholding.o
    0x080025ac   0x080025ac   0x00000024   Code   RO         3358    i.eMBFuncReportSlaveID  mbfuncother.o
    0x080025d0   0x080025d0   0x00000056   Code   RO         3230    i.eMBFuncWriteCoil  mbfunccoils.o
    0x08002626   0x08002626   0x00000032   Code   RO         3294    i.eMBFuncWriteHoldingRegister  mbfuncholding.o
    0x08002658   0x08002658   0x00000064   Code   RO         3231    i.eMBFuncWriteMultipleCoils  mbfunccoils.o
    0x080026bc   0x080026bc   0x0000004e   Code   RO         3295    i.eMBFuncWriteMultipleHoldingRegister  mbfuncholding.o
    0x0800270a   0x0800270a   0x00000002   PAD
    0x0800270c   0x0800270c   0x000000c8   Code   RO         3040    i.eMBInit           mb.o
    0x080027d4   0x080027d4   0x000000b4   Code   RO         3041    i.eMBPoll           mb.o
    0x08002888   0x08002888   0x0000003c   Code   RO         3391    i.eMBRTUInit        mbrtu.o
    0x080028c4   0x080028c4   0x00000050   Code   RO         3392    i.eMBRTUReceive     mbrtu.o
    0x08002914   0x08002914   0x00000058   Code   RO         3393    i.eMBRTUSend        mbrtu.o
    0x0800296c   0x0800296c   0x0000001c   Code   RO         3394    i.eMBRTUStart       mbrtu.o
    0x08002988   0x08002988   0x00000012   Code   RO         3395    i.eMBRTUStop        mbrtu.o
    0x0800299a   0x0800299a   0x00000002   PAD
    0x0800299c   0x0800299c   0x00000094   Code   RO         3518    i.eMBRegCoilsCB     port.o
    0x08002a30   0x08002a30   0x00000080   Code   RO         3519    i.eMBRegDiscreteCB  port.o
    0x08002ab0   0x08002ab0   0x00000058   Code   RO         3520    i.eMBRegHoldingCB   port.o
    0x08002b08   0x08002b08   0x00000050   Code   RO         3521    i.eMBRegInputCB     port.o
    0x08002b58   0x08002b58   0x00000020   Code   RO          490    i.fputc             usart.o
    0x08002b78   0x08002b78   0x000000d0   Code   RO          333    i.main              main.o
    0x08002c48   0x08002c48   0x00000018   Code   RO         3482    i.prveMBError2Exception  mbutils.o
    0x08002c60   0x08002c60   0x0000001c   Code   RO         3135    i.prvucMBBIN2CHAR   mbascii.o
    0x08002c7c   0x08002c7c   0x00000018   Code   RO         3136    i.prvucMBLRC        mbascii.o
    0x08002c94   0x08002c94   0x0000002c   Code   RO         3209    i.usMBCRC16         mbcrc.o
    0x08002cc0   0x08002cc0   0x00000030   Code   RO         3609    i.vMBPortSerialEnable  portserial.o
    0x08002cf0   0x08002cf0   0x00000024   Code   RO         3687    i.vMBPortTimersDisable  porttimer.o
    0x08002d14   0x08002d14   0x00000018   Code   RO         3681    i.vMBPortTimersEnable  porttimer.o
    0x08002d2c   0x08002d2c   0x000000e4   Code   RO         3137    i.xMBASCIIReceiveFSM  mbascii.o
    0x08002e10   0x08002e10   0x00000030   Code   RO         3138    i.xMBASCIITimerT1SExpired  mbascii.o
    0x08002e40   0x08002e40   0x000000ac   Code   RO         3139    i.xMBASCIITransmitFSM  mbascii.o
    0x08002eec   0x08002eec   0x0000001c   Code   RO         3570    i.xMBPortEventGet   portevent.o
    0x08002f08   0x08002f08   0x00000010   Code   RO         3571    i.xMBPortEventInit  portevent.o
    0x08002f18   0x08002f18   0x00000010   Code   RO         3572    i.xMBPortEventPost  portevent.o
    0x08002f28   0x08002f28   0x00000010   Code   RO         3610    i.xMBPortSerialGetByte  portserial.o
    0x08002f38   0x08002f38   0x00000050   Code   RO         3611    i.xMBPortSerialInit  portserial.o
    0x08002f88   0x08002f88   0x0000000c   Code   RO         3612    i.xMBPortSerialPutByte  portserial.o
    0x08002f94   0x08002f94   0x0000006c   Code   RO         3658    i.xMBPortTimersInit  porttimer.o
    0x08003000   0x08003000   0x00000068   Code   RO         3396    i.xMBRTUReceiveFSM  mbrtu.o
    0x08003068   0x08003068   0x00000040   Code   RO         3397    i.xMBRTUTimerT35Expired  mbrtu.o
    0x080030a8   0x080030a8   0x0000005c   Code   RO         3398    i.xMBRTUTransmitFSM  mbrtu.o
    0x08003104   0x08003104   0x00001270   Data   RO           36    .constdata          lcd.o
    0x08004374   0x08004374   0x00000010   Data   RO          660    .constdata          system_stm32f1xx.o
    0x08004384   0x08004384   0x00000008   Data   RO          661    .constdata          system_stm32f1xx.o
    0x0800438c   0x0800438c   0x00000200   Data   RO         3210    .constdata          mbcrc.o
    0x0800458c   0x0800458c   0x00000020   Data   RO         4013    Region$$Table       anon$$obj.o


    Execution Region RW_IRAM1 (Exec base: 0x20000000, Load base: 0x080045ac, Size: 0x000026d8, Max: 0x0000c000, ABSOLUTE, COMPRESSED[0x00000af4])

    Exec Addr    Load Addr    Size         Type   Attr      Idx    E Section Name        Object

    0x20000000   COMPRESSED   0x00001334   Data   RW           37    .data               lcd.o
    0x20001334   COMPRESSED   0x00000004   Data   RW          662    .data               system_stm32f1xx.o
    0x20001338   COMPRESSED   0x0000000c   Data   RW         1730    .data               stm32f1xx_hal.o
    0x20001344   COMPRESSED   0x000000ac   Data   RW         3043    .data               mb.o
    0x200013f0   COMPRESSED   0x00000010   Data   RW         3140    .data               mbascii.o
    0x20001400   COMPRESSED   0x00000002   Data   RW         3361    .data               mbfuncother.o
    0x20001402   COMPRESSED   0x00000002   PAD
    0x20001404   COMPRESSED   0x0000000c   Data   RW         3400    .data               mbrtu.o
    0x20001410   COMPRESSED   0x00000014   Data   RW         3523    .data               port.o
    0x20001424   COMPRESSED   0x00000002   Data   RW         3573    .data               portevent.o
    0x20001426   COMPRESSED   0x00000002   PAD
    0x20001428   COMPRESSED   0x00000004   Data   RW         3989    .data               mc_w.l(stdout.o)
    0x2000142c        -       0x000000d8   Zero   RW          427    .bss                tim.o
    0x20001504        -       0x00000088   Zero   RW          491    .bss                usart.o
    0x2000158c        -       0x00000020   Zero   RW         3360    .bss                mbfuncother.o
    0x200015ac        -       0x00000100   Zero   RW         3399    .bss                mbrtu.o
    0x200016ac        -       0x00000028   Zero   RW         3522    .bss                port.o
    0x200016d4   COMPRESSED   0x00000004   PAD
    0x200016d8        -       0x00001000   Zero   RW            1    STACK               startup_stm32f103xe.o


==============================================================================

Image component sizes


      Code (inc. data)   RO Data    RW Data    ZI Data      Debug   Object Name

       200         12          0          0          0        931   gpio.o
      1104         34       4720       4916          0     494200   lcd.o
       330         54          0          0          0       5085   main.o
       412         68          0        172          0       4664   mb.o
       738         38          0         16          0       7823   mbascii.o
        44          4        512          0          0       1192   mbcrc.o
       300          0          0          0          0       3610   mbfunccoils.o
       114          0          0          0          0       1512   mbfuncdisc.o
       378          0          0          0          0       4999   mbfuncholding.o
        98          0          0          0          0       1499   mbfuncinput.o
        36         10          0          2         32       1311   mbfuncother.o
       534         48          0         12        256       6107   mbrtu.o
        24          0          0          0          0        596   mbutils.o
       444         24          0         20         40       4169   port.o
        60         14          0          2          0       2064   portevent.o
       220         38          0          0          0       3322   portserial.o
       200         26          0          0          0       2484   porttimer.o
        36          8        304          0       4096        792   startup_stm32f103xe.o
       164         28          0         12          0       6413   stm32f1xx_hal.o
       198         14          0          0          0      28883   stm32f1xx_hal_cortex.o
       374          8          0          0          0       1799   stm32f1xx_hal_dma.o
       540         42          0          0          0       4088   stm32f1xx_hal_gpio.o
        60          8          0          0          0        822   stm32f1xx_hal_msp.o
      1272        100          0          0          0       5124   stm32f1xx_hal_rcc.o
      1596         56          0          0          0      14246   stm32f1xx_hal_tim.o
       128         20          0          0          0       2325   stm32f1xx_hal_tim_ex.o
      1338         10          0          0          0       9532   stm32f1xx_hal_uart.o
        72         14          0          0          0       5024   stm32f1xx_it.o
         2          0         24          4          0       1063   system_stm32f1xx.o
       532         62          0          0        216       3478   tim.o
       364         44          0          0        136       2751   usart.o

    ----------------------------------------------------------------------
     11938        784       5592       5160       4780     631908   Object Totals
         0          0         32          0          0          0   (incl. Generated)
        26          0          0          4          4          0   (incl. Padding)

    ----------------------------------------------------------------------

      Code (inc. data)   RO Data    RW Data    ZI Data      Debug   Library Member Name

        94          0          0          0          0          0   __dclz77c.o
         0          0          0          0          0          0   entry.o
         0          0          0          0          0          0   entry10a.o
         0          0          0          0          0          0   entry11a.o
         4          0          0          0          0          0   entry12b.o
         8          4          0          0          0          0   entry2.o
         4          0          0          0          0          0   entry5.o
         0          0          0          0          0          0   entry7b.o
         0          0          0          0          0          0   entry8b.o
         8          4          0          0          0          0   entry9a.o
        30          0          0          0          0          0   handlers.o
        36          8          0          0          0         68   init.o
        36          0          0          0          0         68   memcpya.o
        36          0          0          0          0        108   memseta.o
        50          8          0          0          0        152   printfb.o
         0          0          0          4          0          0   stdout.o

    ----------------------------------------------------------------------
       306         24          0          4          0        396   Library Totals
         0          0          0          0          0          0   (incl. Padding)

    ----------------------------------------------------------------------

      Code (inc. data)   RO Data    RW Data    ZI Data      Debug   Library Name

       306         24          0          4          0        396   mc_w.l

    ----------------------------------------------------------------------
       306         24          0          4          0        396   Library Totals

    ----------------------------------------------------------------------

==============================================================================


      Code (inc. data)   RO Data    RW Data    ZI Data      Debug   

     12244        808       5592       5164       4780     625308   Grand Totals
     12244        808       5592       2804       4780     625308   ELF Image Totals (compressed)
     12244        808       5592       2804          0          0   ROM Totals

==============================================================================

    Total RO  Size (Code + RO Data)                17836 (  17.42kB)
    Total RW  Size (RW Data + ZI Data)              9944 (   9.71kB)
    Total ROM Size (Code + RO Data + RW Data)      20640 (  20.16kB)

==============================================================================

